{
  "_format": "hh-sol-artifact-1",
  "contractName": "BullsOnTheBlock",
  "sourceName": "contracts/pull/BullsOnTheBlock.sol",
  "abi": [
    {
      "inputs": [],
      "stateMutability": "nonpayable",
      "type": "constructor"
    },
    {
      "anonymous": false,
      "inputs": [
        {
          "indexed": true,
          "internalType": "address",
          "name": "owner",
          "type": "address"
        },
        {
          "indexed": true,
          "internalType": "address",
          "name": "approved",
          "type": "address"
        },
        {
          "indexed": true,
          "internalType": "uint256",
          "name": "tokenId",
          "type": "uint256"
        }
      ],
      "name": "Approval",
      "type": "event"
    },
    {
      "anonymous": false,
      "inputs": [
        {
          "indexed": true,
          "internalType": "address",
          "name": "owner",
          "type": "address"
        },
        {
          "indexed": true,
          "internalType": "address",
          "name": "operator",
          "type": "address"
        },
        {
          "indexed": false,
          "internalType": "bool",
          "name": "approved",
          "type": "bool"
        }
      ],
      "name": "ApprovalForAll",
      "type": "event"
    },
    {
      "anonymous": false,
      "inputs": [
        {
          "indexed": true,
          "internalType": "address",
          "name": "previousOwner",
          "type": "address"
        },
        {
          "indexed": true,
          "internalType": "address",
          "name": "newOwner",
          "type": "address"
        }
      ],
      "name": "OwnershipTransferred",
      "type": "event"
    },
    {
      "anonymous": false,
      "inputs": [
        {
          "indexed": true,
          "internalType": "address",
          "name": "from",
          "type": "address"
        },
        {
          "indexed": true,
          "internalType": "address",
          "name": "to",
          "type": "address"
        },
        {
          "indexed": true,
          "internalType": "uint256",
          "name": "tokenId",
          "type": "uint256"
        }
      ],
      "name": "Transfer",
      "type": "event"
    },
    {
      "inputs": [],
      "name": "BOTB_PROVENANCE",
      "outputs": [
        {
          "internalType": "string",
          "name": "",
          "type": "string"
        }
      ],
      "stateMutability": "view",
      "type": "function"
    },
    {
      "inputs": [],
      "name": "MAX_NFT_PURCHASE",
      "outputs": [
        {
          "internalType": "uint256",
          "name": "",
          "type": "uint256"
        }
      ],
      "stateMutability": "view",
      "type": "function"
    },
    {
      "inputs": [],
      "name": "MAX_SUPPLY",
      "outputs": [
        {
          "internalType": "uint256",
          "name": "",
          "type": "uint256"
        }
      ],
      "stateMutability": "view",
      "type": "function"
    },
    {
      "inputs": [],
      "name": "NFT_PRICE",
      "outputs": [
        {
          "internalType": "uint256",
          "name": "",
          "type": "uint256"
        }
      ],
      "stateMutability": "view",
      "type": "function"
    },
    {
      "inputs": [],
      "name": "_baseURI",
      "outputs": [
        {
          "internalType": "string",
          "name": "",
          "type": "string"
        }
      ],
      "stateMutability": "view",
      "type": "function"
    },
    {
      "inputs": [
        {
          "internalType": "address",
          "name": "to",
          "type": "address"
        },
        {
          "internalType": "uint256",
          "name": "tokenId",
          "type": "uint256"
        }
      ],
      "name": "approve",
      "outputs": [],
      "stateMutability": "nonpayable",
      "type": "function"
    },
    {
      "inputs": [
        {
          "internalType": "address",
          "name": "owner",
          "type": "address"
        }
      ],
      "name": "balanceOf",
      "outputs": [
        {
          "internalType": "uint256",
          "name": "",
          "type": "uint256"
        }
      ],
      "stateMutability": "view",
      "type": "function"
    },
    {
      "inputs": [],
      "name": "calcStartingIndex",
      "outputs": [],
      "stateMutability": "nonpayable",
      "type": "function"
    },
    {
      "inputs": [],
      "name": "emergencySetStartingIndexBlock",
      "outputs": [],
      "stateMutability": "nonpayable",
      "type": "function"
    },
    {
      "inputs": [],
      "name": "flipSaleState",
      "outputs": [],
      "stateMutability": "nonpayable",
      "type": "function"
    },
    {
      "inputs": [
        {
          "internalType": "uint256",
          "name": "tokenId",
          "type": "uint256"
        }
      ],
      "name": "getApproved",
      "outputs": [
        {
          "internalType": "address",
          "name": "",
          "type": "address"
        }
      ],
      "stateMutability": "view",
      "type": "function"
    },
    {
      "inputs": [
        {
          "internalType": "address",
          "name": "owner",
          "type": "address"
        },
        {
          "internalType": "address",
          "name": "operator",
          "type": "address"
        }
      ],
      "name": "isApprovedForAll",
      "outputs": [
        {
          "internalType": "bool",
          "name": "",
          "type": "bool"
        }
      ],
      "stateMutability": "view",
      "type": "function"
    },
    {
      "inputs": [
        {
          "internalType": "uint256",
          "name": "numberOfTokens",
          "type": "uint256"
        }
      ],
      "name": "mintBull",
      "outputs": [],
      "stateMutability": "payable",
      "type": "function"
    },
    {
      "inputs": [],
      "name": "name",
      "outputs": [
        {
          "internalType": "string",
          "name": "",
          "type": "string"
        }
      ],
      "stateMutability": "view",
      "type": "function"
    },
    {
      "inputs": [],
      "name": "owner",
      "outputs": [
        {
          "internalType": "address",
          "name": "",
          "type": "address"
        }
      ],
      "stateMutability": "view",
      "type": "function"
    },
    {
      "inputs": [
        {
          "internalType": "uint256",
          "name": "tokenId",
          "type": "uint256"
        }
      ],
      "name": "ownerOf",
      "outputs": [
        {
          "internalType": "address",
          "name": "",
          "type": "address"
        }
      ],
      "stateMutability": "view",
      "type": "function"
    },
    {
      "inputs": [],
      "name": "renounceOwnership",
      "outputs": [],
      "stateMutability": "nonpayable",
      "type": "function"
    },
    {
      "inputs": [],
      "name": "reserveTokens",
      "outputs": [],
      "stateMutability": "nonpayable",
      "type": "function"
    },
    {
      "inputs": [
        {
          "internalType": "address",
          "name": "from",
          "type": "address"
        },
        {
          "internalType": "address",
          "name": "to",
          "type": "address"
        },
        {
          "internalType": "uint256",
          "name": "tokenId",
          "type": "uint256"
        }
      ],
      "name": "safeTransferFrom",
      "outputs": [],
      "stateMutability": "nonpayable",
      "type": "function"
    },
    {
      "inputs": [
        {
          "internalType": "address",
          "name": "from",
          "type": "address"
        },
        {
          "internalType": "address",
          "name": "to",
          "type": "address"
        },
        {
          "internalType": "uint256",
          "name": "tokenId",
          "type": "uint256"
        },
        {
          "internalType": "bytes",
          "name": "_data",
          "type": "bytes"
        }
      ],
      "name": "safeTransferFrom",
      "outputs": [],
      "stateMutability": "nonpayable",
      "type": "function"
    },
    {
      "inputs": [],
      "name": "saleIsActive",
      "outputs": [
        {
          "internalType": "bool",
          "name": "",
          "type": "bool"
        }
      ],
      "stateMutability": "view",
      "type": "function"
    },
    {
      "inputs": [
        {
          "internalType": "address",
          "name": "operator",
          "type": "address"
        },
        {
          "internalType": "bool",
          "name": "approved",
          "type": "bool"
        }
      ],
      "name": "setApprovalForAll",
      "outputs": [],
      "stateMutability": "nonpayable",
      "type": "function"
    },
    {
      "inputs": [
        {
          "internalType": "string",
          "name": "baseURI_",
          "type": "string"
        }
      ],
      "name": "setBaseURI",
      "outputs": [],
      "stateMutability": "nonpayable",
      "type": "function"
    },
    {
      "inputs": [],
      "name": "startingIndex",
      "outputs": [
        {
          "internalType": "uint256",
          "name": "",
          "type": "uint256"
        }
      ],
      "stateMutability": "view",
      "type": "function"
    },
    {
      "inputs": [],
      "name": "startingIndexBlock",
      "outputs": [
        {
          "internalType": "uint256",
          "name": "",
          "type": "uint256"
        }
      ],
      "stateMutability": "view",
      "type": "function"
    },
    {
      "inputs": [
        {
          "internalType": "bytes4",
          "name": "interfaceId",
          "type": "bytes4"
        }
      ],
      "name": "supportsInterface",
      "outputs": [
        {
          "internalType": "bool",
          "name": "",
          "type": "bool"
        }
      ],
      "stateMutability": "view",
      "type": "function"
    },
    {
      "inputs": [],
      "name": "symbol",
      "outputs": [
        {
          "internalType": "string",
          "name": "",
          "type": "string"
        }
      ],
      "stateMutability": "view",
      "type": "function"
    },
    {
      "inputs": [
        {
          "internalType": "uint256",
          "name": "index",
          "type": "uint256"
        }
      ],
      "name": "tokenByIndex",
      "outputs": [
        {
          "internalType": "uint256",
          "name": "",
          "type": "uint256"
        }
      ],
      "stateMutability": "view",
      "type": "function"
    },
    {
      "inputs": [
        {
          "internalType": "address",
          "name": "owner",
          "type": "address"
        },
        {
          "internalType": "uint256",
          "name": "index",
          "type": "uint256"
        }
      ],
      "name": "tokenOfOwnerByIndex",
      "outputs": [
        {
          "internalType": "uint256",
          "name": "",
          "type": "uint256"
        }
      ],
      "stateMutability": "view",
      "type": "function"
    },
    {
      "inputs": [
        {
          "internalType": "uint256",
          "name": "tokenId",
          "type": "uint256"
        }
      ],
      "name": "tokenURI",
      "outputs": [
        {
          "internalType": "string",
          "name": "",
          "type": "string"
        }
      ],
      "stateMutability": "view",
      "type": "function"
    },
    {
      "inputs": [],
      "name": "totalSupply",
      "outputs": [
        {
          "internalType": "uint256",
          "name": "",
          "type": "uint256"
        }
      ],
      "stateMutability": "view",
      "type": "function"
    },
    {
      "inputs": [
        {
          "internalType": "address",
          "name": "from",
          "type": "address"
        },
        {
          "internalType": "address",
          "name": "to",
          "type": "address"
        },
        {
          "internalType": "uint256",
          "name": "tokenId",
          "type": "uint256"
        }
      ],
      "name": "transferFrom",
      "outputs": [],
      "stateMutability": "nonpayable",
      "type": "function"
    },
    {
      "inputs": [
        {
          "internalType": "address",
          "name": "newOwner",
          "type": "address"
        }
      ],
      "name": "transferOwnership",
      "outputs": [],
      "stateMutability": "nonpayable",
      "type": "function"
    },
    {
      "inputs": [],
      "name": "withdraw",
      "outputs": [],
      "stateMutability": "nonpayable",
      "type": "function"
    }
  ],
  "bytecode": "0x6080604052604051806060016040528060408152602001620047f260409139600b908051906020019062000035929190620001c4565b50612710600c556000600d60006101000a81548160ff0219169083151502179055503480156200006457600080fd5b506040518060400160405280600f81526020017f42756c6c734f6e546865426c6f636b00000000000000000000000000000000008152506040518060400160405280600481526020017f424f5442000000000000000000000000000000000000000000000000000000008152508160009080519060200190620000e9929190620001c4565b50806001908051906020019062000102929190620001c4565b505050600062000117620001bc60201b60201c565b905080600a60006101000a81548173ffffffffffffffffffffffffffffffffffffffff021916908373ffffffffffffffffffffffffffffffffffffffff1602179055508073ffffffffffffffffffffffffffffffffffffffff16600073ffffffffffffffffffffffffffffffffffffffff167f8be0079c531659141344cd1fd0a4f28419497f9722a3daafe3b4186f6b6457e060405160405180910390a350620002d9565b600033905090565b828054620001d29062000274565b90600052602060002090601f016020900481019282620001f6576000855562000242565b82601f106200021157805160ff191683800117855562000242565b8280016001018555821562000242579182015b828111156200024157825182559160200191906001019062000224565b5b50905062000251919062000255565b5090565b5b808211156200027057600081600090555060010162000256565b5090565b600060028204905060018216806200028d57607f821691505b60208210811415620002a457620002a3620002aa565b5b50919050565b7f4e487b7100000000000000000000000000000000000000000000000000000000600052602260045260246000fd5b61450980620002e96000396000f3fe6080604052600436106101f95760003560e01c80636352211e1161010d578063a22cb465116100a0578063e13f351a1161006f578063e13f351a146106dc578063e36d6498146106f3578063e985e9c51461071e578063eb8d24441461075b578063f2fde38b14610786576101f9565b8063a22cb46514610622578063b88d4fde1461064b578063c87b56dd14610674578063cb774d47146106b1576101f9565b8063743976a0116100dc578063743976a01461058a5780637d17fcbe146105b55780638da5cb5b146105cc57806395d89b41146105f7576101f9565b80636352211e146104ce578063676dd5631461050b57806370a0823114610536578063715018a614610573576101f9565b806327ac36c41161019057806334918dfd1161015f57806334918dfd146104115780633ccfd60b1461042857806342842e0e1461043f5780634f6ccce71461046857806355f804b3146104a5576101f9565b806327ac36c4146103675780632f745c591461037e57806332cb6b0c146103bb57806334141c3b146103e6576101f9565b8063081812fc116101cc578063081812fc146102ad578063095ea7b3146102ea57806318160ddd1461031357806323b872dd1461033e576101f9565b806301ffc9a7146101fe578063020b39cc1461023b57806303ff8e9b1461026657806306fdde0314610282575b600080fd5b34801561020a57600080fd5b506102256004803603810190610220919061303f565b6107af565b60405161023291906135d5565b60405180910390f35b34801561024757600080fd5b50610250610829565b60405161025d9190613932565b60405180910390f35b610280600480360381019061027b91906130e2565b61082e565b005b34801561028e57600080fd5b50610297610995565b6040516102a491906135f0565b60405180910390f35b3480156102b957600080fd5b506102d460048036038101906102cf91906130e2565b610a27565b6040516102e1919061356e565b60405180910390f35b3480156102f657600080fd5b50610311600480360381019061030c9190612fff565b610aac565b005b34801561031f57600080fd5b50610328610bc4565b6040516103359190613932565b60405180910390f35b34801561034a57600080fd5b5061036560048036038101906103609190612ee9565b610bd1565b005b34801561037357600080fd5b5061037c610c31565b005b34801561038a57600080fd5b506103a560048036038101906103a09190612fff565b610d04565b6040516103b29190613932565b60405180910390f35b3480156103c757600080fd5b506103d0610da9565b6040516103dd9190613932565b60405180910390f35b3480156103f257600080fd5b506103fb610daf565b60405161040891906135f0565b60405180910390f35b34801561041d57600080fd5b50610426610e3d565b005b34801561043457600080fd5b5061043d610ee5565b005b34801561044b57600080fd5b5061046660048036038101906104619190612ee9565b610fb0565b005b34801561047457600080fd5b5061048f600480360381019061048a91906130e2565b610fd0565b60405161049c9190613932565b60405180910390f35b3480156104b157600080fd5b506104cc60048036038101906104c79190613099565b611041565b005b3480156104da57600080fd5b506104f560048036038101906104f091906130e2565b6110d7565b604051610502919061356e565b60405180910390f35b34801561051757600080fd5b50610520611189565b60405161052d9190613932565b60405180910390f35b34801561054257600080fd5b5061055d60048036038101906105589190612e7c565b611195565b60405161056a9190613932565b60405180910390f35b34801561057f57600080fd5b5061058861124d565b005b34801561059657600080fd5b5061059f61138a565b6040516105ac91906135f0565b60405180910390f35b3480156105c157600080fd5b506105ca61141c565b005b3480156105d857600080fd5b506105e16114e6565b6040516105ee919061356e565b60405180910390f35b34801561060357600080fd5b5061060c611510565b60405161061991906135f0565b60405180910390f35b34801561062e57600080fd5b5061064960048036038101906106449190612fbf565b6115a2565b005b34801561065757600080fd5b50610672600480360381019061066d9190612f3c565b611723565b005b34801561068057600080fd5b5061069b600480360381019061069691906130e2565b611785565b6040516106a891906135f0565b60405180910390f35b3480156106bd57600080fd5b506106c66118f8565b6040516106d39190613932565b60405180910390f35b3480156106e857600080fd5b506106f16118fe565b005b3480156106ff57600080fd5b50610708611a8b565b6040516107159190613932565b60405180910390f35b34801561072a57600080fd5b5061074560048036038101906107409190612ea9565b611a91565b60405161075291906135d5565b60405180910390f35b34801561076757600080fd5b50610770611b25565b60405161077d91906135d5565b60405180910390f35b34801561079257600080fd5b506107ad60048036038101906107a89190612e7c565b611b38565b005b60007f780e9d63000000000000000000000000000000000000000000000000000000007bffffffffffffffffffffffffffffffffffffffffffffffffffffffff1916827bffffffffffffffffffffffffffffffffffffffffffffffffffffffff19161480610822575061082182611ce4565b5b9050919050565b600a81565b600d60009054906101000a900460ff1661087d576040517f08c379a000000000000000000000000000000000000000000000000000000000815260040161087490613912565b60405180910390fd5b600081116108c0576040517f08c379a00000000000000000000000000000000000000000000000000000000081526004016108b790613632565b60405180910390fd5b600c546108dd826108cf610bc4565b611dc690919063ffffffff16565b111561091e576040517f08c379a0000000000000000000000000000000000000000000000000000000008152600401610915906138f2565b60405180910390fd5b600a811115610962576040517f08c379a0000000000000000000000000000000000000000000000000000000008152600401610959906136d2565b60405180910390fd5b60005b818110156109915761097e33610979610bc4565b611ddc565b808061098990613beb565b915050610965565b5050565b6060600080546109a490613b88565b80601f01602080910402602001604051908101604052809291908181526020018280546109d090613b88565b8015610a1d5780601f106109f257610100808354040283529160200191610a1d565b820191906000526020600020905b815481529060010190602001808311610a0057829003601f168201915b5050505050905090565b6000610a3282611dfa565b610a71576040517f08c379a0000000000000000000000000000000000000000000000000000000008152600401610a68906137f2565b60405180910390fd5b6004600083815260200190815260200160002060009054906101000a900473ffffffffffffffffffffffffffffffffffffffff169050919050565b6000610ab7826110d7565b90508073ffffffffffffffffffffffffffffffffffffffff168373ffffffffffffffffffffffffffffffffffffffff161415610b28576040517f08c379a0000000000000000000000000000000000000000000000000000000008152600401610b1f90613872565b60405180910390fd5b8073ffffffffffffffffffffffffffffffffffffffff16610b47611e66565b73ffffffffffffffffffffffffffffffffffffffff161480610b765750610b7581610b70611e66565b611a91565b5b610bb5576040517f08c379a0000000000000000000000000000000000000000000000000000000008152600401610bac90613772565b60405180910390fd5b610bbf8383611e6e565b505050565b6000600880549050905090565b610be2610bdc611e66565b82611f27565b610c21576040517f08c379a0000000000000000000000000000000000000000000000000000000008152600401610c1890613892565b60405180910390fd5b610c2c838383612005565b505050565b610c39611e66565b73ffffffffffffffffffffffffffffffffffffffff16610c576114e6565b73ffffffffffffffffffffffffffffffffffffffff1614610cad576040517f08c379a0000000000000000000000000000000000000000000000000000000008152600401610ca490613812565b60405180910390fd5b6000610cb7610bc4565b905060005b601e811015610ced57610cda338284610cd59190613a17565b611ddc565b8080610ce590613beb565b915050610cbc565b6000600f541415610d005743600f819055505b5050565b6000610d0f83611195565b8210610d50576040517f08c379a0000000000000000000000000000000000000000000000000000000008152600401610d4790613652565b60405180910390fd5b600660008473ffffffffffffffffffffffffffffffffffffffff1673ffffffffffffffffffffffffffffffffffffffff168152602001908152602001600020600083815260200190815260200160002054905092915050565b600c5481565b600b8054610dbc90613b88565b80601f0160208091040260200160405190810160405280929190818152602001828054610de890613b88565b8015610e355780601f10610e0a57610100808354040283529160200191610e35565b820191906000526020600020905b815481529060010190602001808311610e1857829003601f168201915b505050505081565b610e45611e66565b73ffffffffffffffffffffffffffffffffffffffff16610e636114e6565b73ffffffffffffffffffffffffffffffffffffffff1614610eb9576040517f08c379a0000000000000000000000000000000000000000000000000000000008152600401610eb090613812565b60405180910390fd5b600d60009054906101000a900460ff1615600d60006101000a81548160ff021916908315150217905550565b610eed611e66565b73ffffffffffffffffffffffffffffffffffffffff16610f0b6114e6565b73ffffffffffffffffffffffffffffffffffffffff1614610f61576040517f08c379a0000000000000000000000000000000000000000000000000000000008152600401610f5890613812565b60405180910390fd5b60004790503373ffffffffffffffffffffffffffffffffffffffff166108fc829081150290604051600060405180830381858888f19350505050158015610fac573d6000803e3d6000fd5b5050565b610fcb83838360405180602001604052806000815250611723565b505050565b6000610fda610bc4565b821061101b576040517f08c379a0000000000000000000000000000000000000000000000000000000008152600401611012906138b2565b60405180910390fd5b6008828154811061102f5761102e613d21565b5b90600052602060002001549050919050565b611049611e66565b73ffffffffffffffffffffffffffffffffffffffff166110676114e6565b73ffffffffffffffffffffffffffffffffffffffff16146110bd576040517f08c379a00000000000000000000000000000000000000000000000000000000081526004016110b490613812565b60405180910390fd5b80601090805190602001906110d3929190612c90565b5050565b6000806002600084815260200190815260200160002060009054906101000a900473ffffffffffffffffffffffffffffffffffffffff169050600073ffffffffffffffffffffffffffffffffffffffff168173ffffffffffffffffffffffffffffffffffffffff161415611180576040517f08c379a0000000000000000000000000000000000000000000000000000000008152600401611177906137b2565b60405180910390fd5b80915050919050565b67011c37937e08000081565b60008073ffffffffffffffffffffffffffffffffffffffff168273ffffffffffffffffffffffffffffffffffffffff161415611206576040517f08c379a00000000000000000000000000000000000000000000000000000000081526004016111fd90613792565b60405180910390fd5b600360008373ffffffffffffffffffffffffffffffffffffffff1673ffffffffffffffffffffffffffffffffffffffff168152602001908152602001600020549050919050565b611255611e66565b73ffffffffffffffffffffffffffffffffffffffff166112736114e6565b73ffffffffffffffffffffffffffffffffffffffff16146112c9576040517f08c379a00000000000000000000000000000000000000000000000000000000081526004016112c090613812565b60405180910390fd5b600073ffffffffffffffffffffffffffffffffffffffff16600a60009054906101000a900473ffffffffffffffffffffffffffffffffffffffff1673ffffffffffffffffffffffffffffffffffffffff167f8be0079c531659141344cd1fd0a4f28419497f9722a3daafe3b4186f6b6457e060405160405180910390a36000600a60006101000a81548173ffffffffffffffffffffffffffffffffffffffff021916908373ffffffffffffffffffffffffffffffffffffffff160217905550565b60606010805461139990613b88565b80601f01602080910402602001604051908101604052809291908181526020018280546113c590613b88565b80156114125780601f106113e757610100808354040283529160200191611412565b820191906000526020600020905b8154815290600101906020018083116113f557829003601f168201915b5050505050905090565b611424611e66565b73ffffffffffffffffffffffffffffffffffffffff166114426114e6565b73ffffffffffffffffffffffffffffffffffffffff1614611498576040517f08c379a000000000000000000000000000000000000000000000000000000000815260040161148f90613812565b60405180910390fd5b6000600e54146114dd576040517f08c379a00000000000000000000000000000000000000000000000000000000081526004016114d490613752565b60405180910390fd5b43600f81905550565b6000600a60009054906101000a900473ffffffffffffffffffffffffffffffffffffffff16905090565b60606001805461151f90613b88565b80601f016020809104026020016040519081016040528092919081815260200182805461154b90613b88565b80156115985780601f1061156d57610100808354040283529160200191611598565b820191906000526020600020905b81548152906001019060200180831161157b57829003601f168201915b5050505050905090565b6115aa611e66565b73ffffffffffffffffffffffffffffffffffffffff168273ffffffffffffffffffffffffffffffffffffffff161415611618576040517f08c379a000000000000000000000000000000000000000000000000000000000815260040161160f90613712565b60405180910390fd5b8060056000611625611e66565b73ffffffffffffffffffffffffffffffffffffffff1673ffffffffffffffffffffffffffffffffffffffff16815260200190815260200160002060008473ffffffffffffffffffffffffffffffffffffffff1673ffffffffffffffffffffffffffffffffffffffff16815260200190815260200160002060006101000a81548160ff0219169083151502179055508173ffffffffffffffffffffffffffffffffffffffff166116d2611e66565b73ffffffffffffffffffffffffffffffffffffffff167f17307eab39ab6107e8899845ad3d59bd9653f200f220920489ca2b5937696c318360405161171791906135d5565b60405180910390a35050565b61173461172e611e66565b83611f27565b611773576040517f08c379a000000000000000000000000000000000000000000000000000000000815260040161176a90613892565b60405180910390fd5b61177f84848484612261565b50505050565b606061179082611dfa565b6117cf576040517f08c379a00000000000000000000000000000000000000000000000000000000081526004016117c690613852565b60405180910390fd5b60006011600084815260200190815260200160002080546117ef90613b88565b80601f016020809104026020016040519081016040528092919081815260200182805461181b90613b88565b80156118685780601f1061183d57610100808354040283529160200191611868565b820191906000526020600020905b81548152906001019060200180831161184b57829003601f168201915b50505050509050600061187961138a565b905060008151141561188f5781925050506118f3565b6000825111156118c45780826040516020016118ac92919061354a565b604051602081830303815290604052925050506118f3565b806118ce856122bd565b6040516020016118df92919061354a565b604051602081830303815290604052925050505b919050565b600e5481565b611906611e66565b73ffffffffffffffffffffffffffffffffffffffff166119246114e6565b73ffffffffffffffffffffffffffffffffffffffff161461197a576040517f08c379a000000000000000000000000000000000000000000000000000000000815260040161197190613812565b60405180910390fd5b6000600e54146119bf576040517f08c379a00000000000000000000000000000000000000000000000000000000081526004016119b6906138d2565b60405180910390fd5b6000600f541415611a05576040517f08c379a00000000000000000000000000000000000000000000000000000000081526004016119fc90613612565b60405180910390fd5b600c54600f544060001c611a199190613c34565b600e8190555060ff611a36600f544361241e90919063ffffffff16565b1115611a6157600c54600143611a4c9190613a9e565b4060001c611a5a9190613c34565b600e819055505b6000600e541415611a8957611a826001600e54611dc690919063ffffffff16565b600e819055505b565b600f5481565b6000600560008473ffffffffffffffffffffffffffffffffffffffff1673ffffffffffffffffffffffffffffffffffffffff16815260200190815260200160002060008373ffffffffffffffffffffffffffffffffffffffff1673ffffffffffffffffffffffffffffffffffffffff16815260200190815260200160002060009054906101000a900460ff16905092915050565b600d60009054906101000a900460ff1681565b611b40611e66565b73ffffffffffffffffffffffffffffffffffffffff16611b5e6114e6565b73ffffffffffffffffffffffffffffffffffffffff1614611bb4576040517f08c379a0000000000000000000000000000000000000000000000000000000008152600401611bab90613812565b60405180910390fd5b600073ffffffffffffffffffffffffffffffffffffffff168173ffffffffffffffffffffffffffffffffffffffff161415611c24576040517f08c379a0000000000000000000000000000000000000000000000000000000008152600401611c1b90613692565b60405180910390fd5b8073ffffffffffffffffffffffffffffffffffffffff16600a60009054906101000a900473ffffffffffffffffffffffffffffffffffffffff1673ffffffffffffffffffffffffffffffffffffffff167f8be0079c531659141344cd1fd0a4f28419497f9722a3daafe3b4186f6b6457e060405160405180910390a380600a60006101000a81548173ffffffffffffffffffffffffffffffffffffffff021916908373ffffffffffffffffffffffffffffffffffffffff16021790555050565b60007f80ac58cd000000000000000000000000000000000000000000000000000000007bffffffffffffffffffffffffffffffffffffffffffffffffffffffff1916827bffffffffffffffffffffffffffffffffffffffffffffffffffffffff19161480611daf57507f5b5e139f000000000000000000000000000000000000000000000000000000007bffffffffffffffffffffffffffffffffffffffffffffffffffffffff1916827bffffffffffffffffffffffffffffffffffffffffffffffffffffffff1916145b80611dbf5750611dbe82612434565b5b9050919050565b60008183611dd49190613a17565b905092915050565b611df682826040518060200160405280600081525061249e565b5050565b60008073ffffffffffffffffffffffffffffffffffffffff166002600084815260200190815260200160002060009054906101000a900473ffffffffffffffffffffffffffffffffffffffff1673ffffffffffffffffffffffffffffffffffffffff1614159050919050565b600033905090565b816004600083815260200190815260200160002060006101000a81548173ffffffffffffffffffffffffffffffffffffffff021916908373ffffffffffffffffffffffffffffffffffffffff160217905550808273ffffffffffffffffffffffffffffffffffffffff16611ee1836110d7565b73ffffffffffffffffffffffffffffffffffffffff167f8c5be1e5ebec7d5bd14f71427d1e84f3dd0314c0f7b2291e5b200ac8c7c3b92560405160405180910390a45050565b6000611f3282611dfa565b611f71576040517f08c379a0000000000000000000000000000000000000000000000000000000008152600401611f6890613732565b60405180910390fd5b6000611f7c836110d7565b90508073ffffffffffffffffffffffffffffffffffffffff168473ffffffffffffffffffffffffffffffffffffffff161480611feb57508373ffffffffffffffffffffffffffffffffffffffff16611fd384610a27565b73ffffffffffffffffffffffffffffffffffffffff16145b80611ffc5750611ffb8185611a91565b5b91505092915050565b8273ffffffffffffffffffffffffffffffffffffffff16612025826110d7565b73ffffffffffffffffffffffffffffffffffffffff161461207b576040517f08c379a000000000000000000000000000000000000000000000000000000000815260040161207290613832565b60405180910390fd5b600073ffffffffffffffffffffffffffffffffffffffff168273ffffffffffffffffffffffffffffffffffffffff1614156120eb576040517f08c379a00000000000000000000000000000000000000000000000000000000081526004016120e2906136f2565b60405180910390fd5b6120f68383836124f9565b612101600082611e6e565b6001600360008573ffffffffffffffffffffffffffffffffffffffff1673ffffffffffffffffffffffffffffffffffffffff16815260200190815260200160002060008282546121519190613a9e565b925050819055506001600360008473ffffffffffffffffffffffffffffffffffffffff1673ffffffffffffffffffffffffffffffffffffffff16815260200190815260200160002060008282546121a89190613a17565b92505081905550816002600083815260200190815260200160002060006101000a81548173ffffffffffffffffffffffffffffffffffffffff021916908373ffffffffffffffffffffffffffffffffffffffff160217905550808273ffffffffffffffffffffffffffffffffffffffff168473ffffffffffffffffffffffffffffffffffffffff167fddf252ad1be2c89b69c2b068fc378daa952ba7f163c4a11628f55a4df523b3ef60405160405180910390a4505050565b61226c848484612005565b6122788484848461260d565b6122b7576040517f08c379a00000000000000000000000000000000000000000000000000000000081526004016122ae90613672565b60405180910390fd5b50505050565b60606000821415612305576040518060400160405280600181526020017f30000000000000000000000000000000000000000000000000000000000000008152509050612419565b600082905060005b6000821461233757808061232090613beb565b915050600a826123309190613a6d565b915061230d565b60008167ffffffffffffffff81111561235357612352613d50565b5b6040519080825280601f01601f1916602001820160405280156123855781602001600182028036833780820191505090505b5090505b600085146124125760018261239e9190613a9e565b9150600a856123ad9190613c34565b60306123b99190613a17565b60f81b8183815181106123cf576123ce613d21565b5b60200101907effffffffffffffffffffffffffffffffffffffffffffffffffffffffffffff1916908160001a905350600a8561240b9190613a6d565b9450612389565b8093505050505b919050565b6000818361242c9190613a9e565b905092915050565b60007f01ffc9a7000000000000000000000000000000000000000000000000000000007bffffffffffffffffffffffffffffffffffffffffffffffffffffffff1916827bffffffffffffffffffffffffffffffffffffffffffffffffffffffff1916149050919050565b6124a883836127a4565b6124b5600084848461260d565b6124f4576040517f08c379a00000000000000000000000000000000000000000000000000000000081526004016124eb90613672565b60405180910390fd5b505050565b612504838383612972565b600073ffffffffffffffffffffffffffffffffffffffff168373ffffffffffffffffffffffffffffffffffffffff1614156125475761254281612977565b612586565b8173ffffffffffffffffffffffffffffffffffffffff168373ffffffffffffffffffffffffffffffffffffffff16146125855761258483826129c0565b5b5b600073ffffffffffffffffffffffffffffffffffffffff168273ffffffffffffffffffffffffffffffffffffffff1614156125c9576125c481612b2d565b612608565b8273ffffffffffffffffffffffffffffffffffffffff168273ffffffffffffffffffffffffffffffffffffffff1614612607576126068282612bfe565b5b5b505050565b600061262e8473ffffffffffffffffffffffffffffffffffffffff16612c7d565b15612797578373ffffffffffffffffffffffffffffffffffffffff1663150b7a02612657611e66565b8786866040518563ffffffff1660e01b81526004016126799493929190613589565b602060405180830381600087803b15801561269357600080fd5b505af19250505080156126c457506040513d601f19601f820116820180604052508101906126c1919061306c565b60015b612747573d80600081146126f4576040519150601f19603f3d011682016040523d82523d6000602084013e6126f9565b606091505b5060008151141561273f576040517f08c379a000000000000000000000000000000000000000000000000000000000815260040161273690613672565b60405180910390fd5b805181602001fd5b63150b7a0260e01b7bffffffffffffffffffffffffffffffffffffffffffffffffffffffff1916817bffffffffffffffffffffffffffffffffffffffffffffffffffffffff19161491505061279c565b600190505b949350505050565b600073ffffffffffffffffffffffffffffffffffffffff168273ffffffffffffffffffffffffffffffffffffffff161415612814576040517f08c379a000000000000000000000000000000000000000000000000000000000815260040161280b906137d2565b60405180910390fd5b61281d81611dfa565b1561285d576040517f08c379a0000000000000000000000000000000000000000000000000000000008152600401612854906136b2565b60405180910390fd5b612869600083836124f9565b6001600360008473ffffffffffffffffffffffffffffffffffffffff1673ffffffffffffffffffffffffffffffffffffffff16815260200190815260200160002060008282546128b99190613a17565b92505081905550816002600083815260200190815260200160002060006101000a81548173ffffffffffffffffffffffffffffffffffffffff021916908373ffffffffffffffffffffffffffffffffffffffff160217905550808273ffffffffffffffffffffffffffffffffffffffff16600073ffffffffffffffffffffffffffffffffffffffff167fddf252ad1be2c89b69c2b068fc378daa952ba7f163c4a11628f55a4df523b3ef60405160405180910390a45050565b505050565b6008805490506009600083815260200190815260200160002081905550600881908060018154018082558091505060019003906000526020600020016000909190919091505550565b600060016129cd84611195565b6129d79190613a9e565b9050600060076000848152602001908152602001600020549050818114612abc576000600660008673ffffffffffffffffffffffffffffffffffffffff1673ffffffffffffffffffffffffffffffffffffffff168152602001908152602001600020600084815260200190815260200160002054905080600660008773ffffffffffffffffffffffffffffffffffffffff1673ffffffffffffffffffffffffffffffffffffffff168152602001908152602001600020600084815260200190815260200160002081905550816007600083815260200190815260200160002081905550505b6007600084815260200190815260200160002060009055600660008573ffffffffffffffffffffffffffffffffffffffff1673ffffffffffffffffffffffffffffffffffffffff16815260200190815260200160002060008381526020019081526020016000206000905550505050565b60006001600880549050612b419190613a9e565b9050600060096000848152602001908152602001600020549050600060088381548110612b7157612b70613d21565b5b906000526020600020015490508060088381548110612b9357612b92613d21565b5b906000526020600020018190555081600960008381526020019081526020016000208190555060096000858152602001908152602001600020600090556008805480612be257612be1613cf2565b5b6001900381819060005260206000200160009055905550505050565b6000612c0983611195565b905081600660008573ffffffffffffffffffffffffffffffffffffffff1673ffffffffffffffffffffffffffffffffffffffff168152602001908152602001600020600083815260200190815260200160002081905550806007600084815260200190815260200160002081905550505050565b600080823b905060008111915050919050565b828054612c9c90613b88565b90600052602060002090601f016020900481019282612cbe5760008555612d05565b82601f10612cd757805160ff1916838001178555612d05565b82800160010185558215612d05579182015b82811115612d04578251825591602001919060010190612ce9565b5b509050612d129190612d16565b5090565b5b80821115612d2f576000816000905550600101612d17565b5090565b6000612d46612d4184613972565b61394d565b905082815260208101848484011115612d6257612d61613d84565b5b612d6d848285613b46565b509392505050565b6000612d88612d83846139a3565b61394d565b905082815260208101848484011115612da457612da3613d84565b5b612daf848285613b46565b509392505050565b600081359050612dc681614477565b92915050565b600081359050612ddb8161448e565b92915050565b600081359050612df0816144a5565b92915050565b600081519050612e05816144a5565b92915050565b600082601f830112612e2057612e1f613d7f565b5b8135612e30848260208601612d33565b91505092915050565b600082601f830112612e4e57612e4d613d7f565b5b8135612e5e848260208601612d75565b91505092915050565b600081359050612e76816144bc565b92915050565b600060208284031215612e9257612e91613d8e565b5b6000612ea084828501612db7565b91505092915050565b60008060408385031215612ec057612ebf613d8e565b5b6000612ece85828601612db7565b9250506020612edf85828601612db7565b9150509250929050565b600080600060608486031215612f0257612f01613d8e565b5b6000612f1086828701612db7565b9350506020612f2186828701612db7565b9250506040612f3286828701612e67565b9150509250925092565b60008060008060808587031215612f5657612f55613d8e565b5b6000612f6487828801612db7565b9450506020612f7587828801612db7565b9350506040612f8687828801612e67565b925050606085013567ffffffffffffffff811115612fa757612fa6613d89565b5b612fb387828801612e0b565b91505092959194509250565b60008060408385031215612fd657612fd5613d8e565b5b6000612fe485828601612db7565b9250506020612ff585828601612dcc565b9150509250929050565b6000806040838503121561301657613015613d8e565b5b600061302485828601612db7565b925050602061303585828601612e67565b9150509250929050565b60006020828403121561305557613054613d8e565b5b600061306384828501612de1565b91505092915050565b60006020828403121561308257613081613d8e565b5b600061309084828501612df6565b91505092915050565b6000602082840312156130af576130ae613d8e565b5b600082013567ffffffffffffffff8111156130cd576130cc613d89565b5b6130d984828501612e39565b91505092915050565b6000602082840312156130f8576130f7613d8e565b5b600061310684828501612e67565b91505092915050565b61311881613ad2565b82525050565b61312781613ae4565b82525050565b6000613138826139d4565b61314281856139ea565b9350613152818560208601613b55565b61315b81613d93565b840191505092915050565b6000613171826139df565b61317b81856139fb565b935061318b818560208601613b55565b61319481613d93565b840191505092915050565b60006131aa826139df565b6131b48185613a0c565b93506131c4818560208601613b55565b80840191505092915050565b60006131dd6023836139fb565b91506131e882613da4565b604082019050919050565b60006132006033836139fb565b915061320b82613df3565b604082019050919050565b6000613223602b836139fb565b915061322e82613e42565b604082019050919050565b60006132466032836139fb565b915061325182613e91565b604082019050919050565b60006132696026836139fb565b915061327482613ee0565b604082019050919050565b600061328c601c836139fb565b915061329782613f2f565b602082019050919050565b60006132af6023836139fb565b91506132ba82613f58565b604082019050919050565b60006132d26024836139fb565b91506132dd82613fa7565b604082019050919050565b60006132f56019836139fb565b915061330082613ff6565b602082019050919050565b6000613318602c836139fb565b91506133238261401f565b604082019050919050565b600061333b601d836139fb565b91506133468261406e565b602082019050919050565b600061335e6038836139fb565b915061336982614097565b604082019050919050565b6000613381602a836139fb565b915061338c826140e6565b604082019050919050565b60006133a46029836139fb565b91506133af82614135565b604082019050919050565b60006133c76020836139fb565b91506133d282614184565b602082019050919050565b60006133ea602c836139fb565b91506133f5826141ad565b604082019050919050565b600061340d6020836139fb565b9150613418826141fc565b602082019050919050565b60006134306029836139fb565b915061343b82614225565b604082019050919050565b6000613453602f836139fb565b915061345e82614274565b604082019050919050565b60006134766021836139fb565b9150613481826142c3565b604082019050919050565b60006134996031836139fb565b91506134a482614312565b604082019050919050565b60006134bc602c836139fb565b91506134c782614361565b604082019050919050565b60006134df6023836139fb565b91506134ea826143b0565b604082019050919050565b60006135026029836139fb565b915061350d826143ff565b604082019050919050565b60006135256020836139fb565b91506135308261444e565b602082019050919050565b61354481613b3c565b82525050565b6000613556828561319f565b9150613562828461319f565b91508190509392505050565b6000602082019050613583600083018461310f565b92915050565b600060808201905061359e600083018761310f565b6135ab602083018661310f565b6135b8604083018561353b565b81810360608301526135ca818461312d565b905095945050505050565b60006020820190506135ea600083018461311e565b92915050565b6000602082019050818103600083015261360a8184613166565b905092915050565b6000602082019050818103600083015261362b816131d0565b9050919050565b6000602082019050818103600083015261364b816131f3565b9050919050565b6000602082019050818103600083015261366b81613216565b9050919050565b6000602082019050818103600083015261368b81613239565b9050919050565b600060208201905081810360008301526136ab8161325c565b9050919050565b600060208201905081810360008301526136cb8161327f565b9050919050565b600060208201905081810360008301526136eb816132a2565b9050919050565b6000602082019050818103600083015261370b816132c5565b9050919050565b6000602082019050818103600083015261372b816132e8565b9050919050565b6000602082019050818103600083015261374b8161330b565b9050919050565b6000602082019050818103600083015261376b8161332e565b9050919050565b6000602082019050818103600083015261378b81613351565b9050919050565b600060208201905081810360008301526137ab81613374565b9050919050565b600060208201905081810360008301526137cb81613397565b9050919050565b600060208201905081810360008301526137eb816133ba565b9050919050565b6000602082019050818103600083015261380b816133dd565b9050919050565b6000602082019050818103600083015261382b81613400565b9050919050565b6000602082019050818103600083015261384b81613423565b9050919050565b6000602082019050818103600083015261386b81613446565b9050919050565b6000602082019050818103600083015261388b81613469565b9050919050565b600060208201905081810360008301526138ab8161348c565b9050919050565b600060208201905081810360008301526138cb816134af565b9050919050565b600060208201905081810360008301526138eb816134d2565b9050919050565b6000602082019050818103600083015261390b816134f5565b9050919050565b6000602082019050818103600083015261392b81613518565b9050919050565b6000602082019050613947600083018461353b565b92915050565b6000613957613968565b90506139638282613bba565b919050565b6000604051905090565b600067ffffffffffffffff82111561398d5761398c613d50565b5b61399682613d93565b9050602081019050919050565b600067ffffffffffffffff8211156139be576139bd613d50565b5b6139c782613d93565b9050602081019050919050565b600081519050919050565b600081519050919050565b600082825260208201905092915050565b600082825260208201905092915050565b600081905092915050565b6000613a2282613b3c565b9150613a2d83613b3c565b9250827fffffffffffffffffffffffffffffffffffffffffffffffffffffffffffffffff03821115613a6257613a61613c65565b5b828201905092915050565b6000613a7882613b3c565b9150613a8383613b3c565b925082613a9357613a92613c94565b5b828204905092915050565b6000613aa982613b3c565b9150613ab483613b3c565b925082821015613ac757613ac6613c65565b5b828203905092915050565b6000613add82613b1c565b9050919050565b60008115159050919050565b60007fffffffff0000000000000000000000000000000000000000000000000000000082169050919050565b600073ffffffffffffffffffffffffffffffffffffffff82169050919050565b6000819050919050565b82818337600083830152505050565b60005b83811015613b73578082015181840152602081019050613b58565b83811115613b82576000848401525b50505050565b60006002820490506001821680613ba057607f821691505b60208210811415613bb457613bb3613cc3565b5b50919050565b613bc382613d93565b810181811067ffffffffffffffff82111715613be257613be1613d50565b5b80604052505050565b6000613bf682613b3c565b91507fffffffffffffffffffffffffffffffffffffffffffffffffffffffffffffffff821415613c2957613c28613c65565b5b600182019050919050565b6000613c3f82613b3c565b9150613c4a83613b3c565b925082613c5a57613c59613c94565b5b828206905092915050565b7f4e487b7100000000000000000000000000000000000000000000000000000000600052601160045260246000fd5b7f4e487b7100000000000000000000000000000000000000000000000000000000600052601260045260246000fd5b7f4e487b7100000000000000000000000000000000000000000000000000000000600052602260045260246000fd5b7f4e487b7100000000000000000000000000000000000000000000000000000000600052603160045260246000fd5b7f4e487b7100000000000000000000000000000000000000000000000000000000600052603260045260246000fd5b7f4e487b7100000000000000000000000000000000000000000000000000000000600052604160045260246000fd5b600080fd5b600080fd5b600080fd5b600080fd5b6000601f19601f8301169050919050565b7f5374617274696e6720696e64657820686173206e6f74206265656e207365742060008201527f7965740000000000000000000000000000000000000000000000000000000000602082015250565b7f4e756d626572206f6620746f6b656e732063616e206e6f74206265206c65737360008201527f207468616e206f7220657175616c20746f203000000000000000000000000000602082015250565b7f455243373231456e756d657261626c653a206f776e657220696e646578206f7560008201527f74206f6620626f756e6473000000000000000000000000000000000000000000602082015250565b7f4552433732313a207472616e7366657220746f206e6f6e20455243373231526560008201527f63656976657220696d706c656d656e7465720000000000000000000000000000602082015250565b7f4f776e61626c653a206e6577206f776e657220697320746865207a65726f206160008201527f6464726573730000000000000000000000000000000000000000000000000000602082015250565b7f4552433732313a20746f6b656e20616c7265616479206d696e74656400000000600082015250565b7f43616e206f6e6c79206d696e7420757020746f2031302070657220707572636860008201527f6173650000000000000000000000000000000000000000000000000000000000602082015250565b7f4552433732313a207472616e7366657220746f20746865207a65726f2061646460008201527f7265737300000000000000000000000000000000000000000000000000000000602082015250565b7f4552433732313a20617070726f766520746f2063616c6c657200000000000000600082015250565b7f4552433732313a206f70657261746f7220717565727920666f72206e6f6e657860008201527f697374656e7420746f6b656e0000000000000000000000000000000000000000602082015250565b7f5374617274696e6720696e64657820697320616c726561647920736574000000600082015250565b7f4552433732313a20617070726f76652063616c6c6572206973206e6f74206f7760008201527f6e6572206e6f7220617070726f76656420666f7220616c6c0000000000000000602082015250565b7f4552433732313a2062616c616e636520717565727920666f7220746865207a6560008201527f726f206164647265737300000000000000000000000000000000000000000000602082015250565b7f4552433732313a206f776e657220717565727920666f72206e6f6e657869737460008201527f656e7420746f6b656e0000000000000000000000000000000000000000000000602082015250565b7f4552433732313a206d696e7420746f20746865207a65726f2061646472657373600082015250565b7f4552433732313a20617070726f76656420717565727920666f72206e6f6e657860008201527f697374656e7420746f6b656e0000000000000000000000000000000000000000602082015250565b7f4f776e61626c653a2063616c6c6572206973206e6f7420746865206f776e6572600082015250565b7f4552433732313a207472616e73666572206f6620746f6b656e2074686174206960008201527f73206e6f74206f776e0000000000000000000000000000000000000000000000602082015250565b7f4552433732314d657461646174613a2055524920717565727920666f72206e6f60008201527f6e6578697374656e7420746f6b656e0000000000000000000000000000000000602082015250565b7f4552433732313a20617070726f76616c20746f2063757272656e74206f776e6560008201527f7200000000000000000000000000000000000000000000000000000000000000602082015250565b7f4552433732313a207472616e736665722063616c6c6572206973206e6f74206f60008201527f776e6572206e6f7220617070726f766564000000000000000000000000000000602082015250565b7f455243373231456e756d657261626c653a20676c6f62616c20696e646578206f60008201527f7574206f6620626f756e64730000000000000000000000000000000000000000602082015250565b7f5374617274696e6720696e6465782068617320616c7265616479206265656e2060008201527f7365740000000000000000000000000000000000000000000000000000000000602082015250565b7f507572636861736520776f756c6420657863656564206d617820737570706c7960008201527f206f662042756c6c730000000000000000000000000000000000000000000000602082015250565b7f53616c65206973206e6f742061637469766520617420746865206d6f6d656e74600082015250565b61448081613ad2565b811461448b57600080fd5b50565b61449781613ae4565b81146144a257600080fd5b50565b6144ae81613af0565b81146144b957600080fd5b50565b6144c581613b3c565b81146144d057600080fd5b5056fea2646970667358221220920d186acb925c0b26a136d6c026ba31662946b49679e033dd35bd7885a01cfa64736f6c6343000806003332623939396363363630636339336662303865326566636566346630646535393831363463633265366266636537316664646164616633386133363231656364",
  "linkReferences": {},
  "deployedLinkReferences": {}
}