{
  "_format": "hh-sol-artifact-1",
  "contractName": "MosaiqueV1",
  "sourceName": "contracts/MosaiqueV1.sol",
  "abi": [
    {
      "anonymous": false,
      "inputs": [
        {
          "indexed": false,
          "internalType": "bytes32",
          "name": "inscriptionNftMID",
          "type": "bytes32"
        }
      ],
      "name": "LogConsumedInscriptionNFT",
      "type": "event"
    },
    {
      "anonymous": false,
      "inputs": [
        {
          "indexed": false,
          "internalType": "address",
          "name": "owner",
          "type": "address"
        },
        {
          "indexed": false,
          "internalType": "bytes32",
          "name": "masterNftMID",
          "type": "bytes32"
        }
      ],
      "name": "LogCreatedSnapshotSupply",
      "type": "event"
    },
    {
      "anonymous": false,
      "inputs": [
        {
          "indexed": false,
          "internalType": "bytes32",
          "name": "nftMID",
          "type": "bytes32"
        }
      ],
      "name": "LogExhaustedSnapshotSupply",
      "type": "event"
    },
    {
      "anonymous": false,
      "inputs": [
        {
          "indexed": false,
          "internalType": "address",
          "name": "owner",
          "type": "address"
        },
        {
          "indexed": false,
          "internalType": "bytes32",
          "name": "masterNftMID",
          "type": "bytes32"
        },
        {
          "indexed": false,
          "internalType": "bytes32",
          "name": "newNftMID",
          "type": "bytes32"
        },
        {
          "indexed": false,
          "internalType": "uint256",
          "name": "newNftTokenId",
          "type": "uint256"
        }
      ],
      "name": "LogMintedBlazonNFT",
      "type": "event"
    },
    {
      "anonymous": false,
      "inputs": [
        {
          "indexed": false,
          "internalType": "address",
          "name": "owner",
          "type": "address"
        },
        {
          "indexed": false,
          "internalType": "bytes32",
          "name": "masterNftMID",
          "type": "bytes32"
        },
        {
          "indexed": false,
          "internalType": "bytes32",
          "name": "newNftMID",
          "type": "bytes32"
        },
        {
          "indexed": false,
          "internalType": "uint256",
          "name": "newNftTokenId",
          "type": "uint256"
        }
      ],
      "name": "LogMintedInscribedNFT",
      "type": "event"
    },
    {
      "anonymous": false,
      "inputs": [
        {
          "indexed": false,
          "internalType": "address",
          "name": "requester",
          "type": "address"
        },
        {
          "indexed": false,
          "internalType": "bytes32",
          "name": "masterNftMID",
          "type": "bytes32"
        },
        {
          "indexed": false,
          "internalType": "bytes32",
          "name": "newNftMID",
          "type": "bytes32"
        },
        {
          "indexed": false,
          "internalType": "uint256",
          "name": "newTokenId",
          "type": "uint256"
        },
        {
          "indexed": false,
          "internalType": "uint256",
          "name": "count",
          "type": "uint256"
        }
      ],
      "name": "LogMintedSnapshot",
      "type": "event"
    },
    {
      "anonymous": false,
      "inputs": [
        {
          "indexed": false,
          "internalType": "address",
          "name": "owner",
          "type": "address"
        },
        {
          "indexed": false,
          "internalType": "address",
          "name": "sourceNftContract",
          "type": "address"
        },
        {
          "indexed": false,
          "internalType": "uint256",
          "name": "sourceTokenId",
          "type": "uint256"
        },
        {
          "indexed": false,
          "internalType": "address",
          "name": "newNftContract",
          "type": "address"
        },
        {
          "indexed": false,
          "internalType": "uint256",
          "name": "newTokenId",
          "type": "uint256"
        }
      ],
      "name": "LogNFTCopied",
      "type": "event"
    },
    {
      "anonymous": false,
      "inputs": [
        {
          "indexed": false,
          "internalType": "address",
          "name": "nftContract",
          "type": "address"
        },
        {
          "indexed": false,
          "internalType": "uint256",
          "name": "tokenId",
          "type": "uint256"
        }
      ],
      "name": "LogNFTLocked",
      "type": "event"
    },
    {
      "anonymous": false,
      "inputs": [
        {
          "indexed": false,
          "internalType": "address",
          "name": "nftContract",
          "type": "address"
        },
        {
          "indexed": false,
          "internalType": "address",
          "name": "from",
          "type": "address"
        },
        {
          "indexed": false,
          "internalType": "uint256",
          "name": "tokenId",
          "type": "uint256"
        },
        {
          "indexed": false,
          "internalType": "bytes",
          "name": "data",
          "type": "bytes"
        }
      ],
      "name": "LogNFTReceived",
      "type": "event"
    },
    {
      "anonymous": false,
      "inputs": [
        {
          "indexed": false,
          "internalType": "address",
          "name": "nftContract",
          "type": "address"
        },
        {
          "indexed": false,
          "internalType": "address",
          "name": "from",
          "type": "address"
        },
        {
          "indexed": false,
          "internalType": "uint256",
          "name": "tokenId",
          "type": "uint256"
        }
      ],
      "name": "LogNFTUnlocked",
      "type": "event"
    },
    {
      "anonymous": false,
      "inputs": [
        {
          "indexed": false,
          "internalType": "address",
          "name": "account",
          "type": "address"
        }
      ],
      "name": "Paused",
      "type": "event"
    },
    {
      "anonymous": false,
      "inputs": [
        {
          "indexed": true,
          "internalType": "bytes32",
          "name": "role",
          "type": "bytes32"
        },
        {
          "indexed": true,
          "internalType": "bytes32",
          "name": "previousAdminRole",
          "type": "bytes32"
        },
        {
          "indexed": true,
          "internalType": "bytes32",
          "name": "newAdminRole",
          "type": "bytes32"
        }
      ],
      "name": "RoleAdminChanged",
      "type": "event"
    },
    {
      "anonymous": false,
      "inputs": [
        {
          "indexed": true,
          "internalType": "bytes32",
          "name": "role",
          "type": "bytes32"
        },
        {
          "indexed": true,
          "internalType": "address",
          "name": "account",
          "type": "address"
        },
        {
          "indexed": true,
          "internalType": "address",
          "name": "sender",
          "type": "address"
        }
      ],
      "name": "RoleGranted",
      "type": "event"
    },
    {
      "anonymous": false,
      "inputs": [
        {
          "indexed": true,
          "internalType": "bytes32",
          "name": "role",
          "type": "bytes32"
        },
        {
          "indexed": true,
          "internalType": "address",
          "name": "account",
          "type": "address"
        },
        {
          "indexed": true,
          "internalType": "address",
          "name": "sender",
          "type": "address"
        }
      ],
      "name": "RoleRevoked",
      "type": "event"
    },
    {
      "anonymous": false,
      "inputs": [
        {
          "indexed": false,
          "internalType": "address",
          "name": "account",
          "type": "address"
        }
      ],
      "name": "Unpaused",
      "type": "event"
    },
    {
      "inputs": [],
      "name": "DEFAULT_ADMIN_ROLE",
      "outputs": [
        {
          "internalType": "bytes32",
          "name": "",
          "type": "bytes32"
        }
      ],
      "stateMutability": "view",
      "type": "function"
    },
    {
      "inputs": [],
      "name": "OPERATOR_ROLE",
      "outputs": [
        {
          "internalType": "bytes32",
          "name": "",
          "type": "bytes32"
        }
      ],
      "stateMutability": "view",
      "type": "function"
    },
    {
      "inputs": [
        {
          "internalType": "address",
          "name": "operator",
          "type": "address"
        }
      ],
      "name": "addTrustedOperator",
      "outputs": [],
      "stateMutability": "nonpayable",
      "type": "function"
    },
    {
      "inputs": [
        {
          "internalType": "address",
          "name": "owner",
          "type": "address"
        },
        {
          "internalType": "bytes",
          "name": "signature",
          "type": "bytes"
        },
        {
          "internalType": "bytes32",
          "name": "masterNftMID",
          "type": "bytes32"
        },
        {
          "internalType": "bytes32",
          "name": "blazonNftMID",
          "type": "bytes32"
        },
        {
          "internalType": "string",
          "name": "newTokenURI",
          "type": "string"
        }
      ],
      "name": "blazon",
      "outputs": [
        {
          "internalType": "uint256",
          "name": "newTokenId",
          "type": "uint256"
        }
      ],
      "stateMutability": "nonpayable",
      "type": "function"
    },
    {
      "inputs": [
        {
          "internalType": "address",
          "name": "owner",
          "type": "address"
        },
        {
          "internalType": "address",
          "name": "nftContract",
          "type": "address"
        },
        {
          "internalType": "uint256",
          "name": "tokenId",
          "type": "uint256"
        }
      ],
      "name": "copyERC721",
      "outputs": [],
      "stateMutability": "nonpayable",
      "type": "function"
    },
    {
      "inputs": [
        {
          "internalType": "address",
          "name": "owner",
          "type": "address"
        },
        {
          "internalType": "bytes",
          "name": "signature",
          "type": "bytes"
        },
        {
          "internalType": "bytes32",
          "name": "masterNftMID",
          "type": "bytes32"
        },
        {
          "internalType": "uint256",
          "name": "initialPrice",
          "type": "uint256"
        },
        {
          "internalType": "uint256",
          "name": "totalSupply",
          "type": "uint256"
        },
        {
          "internalType": "bytes32",
          "name": "priceCurve",
          "type": "bytes32"
        },
        {
          "internalType": "uint256",
          "name": "birth",
          "type": "uint256"
        },
        {
          "internalType": "uint256",
          "name": "deadline",
          "type": "uint256"
        }
      ],
      "name": "createSnapshotSupply",
      "outputs": [],
      "stateMutability": "nonpayable",
      "type": "function"
    },
    {
      "inputs": [
        {
          "internalType": "bytes32",
          "name": "nftMID",
          "type": "bytes32"
        }
      ],
      "name": "getNftInfo",
      "outputs": [
        {
          "internalType": "address",
          "name": "nftContract",
          "type": "address"
        },
        {
          "internalType": "uint256",
          "name": "tokenId",
          "type": "uint256"
        },
        {
          "internalType": "address",
          "name": "owner",
          "type": "address"
        },
        {
          "internalType": "bool",
          "name": "burned",
          "type": "bool"
        },
        {
          "internalType": "bool",
          "name": "imprinted",
          "type": "bool"
        },
        {
          "internalType": "bool",
          "name": "unlocked",
          "type": "bool"
        },
        {
          "internalType": "bool",
          "name": "copy",
          "type": "bool"
        }
      ],
      "stateMutability": "view",
      "type": "function"
    },
    {
      "inputs": [
        {
          "internalType": "address",
          "name": "nftContract",
          "type": "address"
        },
        {
          "internalType": "uint256",
          "name": "tokenId",
          "type": "uint256"
        }
      ],
      "name": "getNftMID",
      "outputs": [
        {
          "internalType": "bytes32",
          "name": "nftMID",
          "type": "bytes32"
        }
      ],
      "stateMutability": "pure",
      "type": "function"
    },
    {
      "inputs": [
        {
          "internalType": "bytes32",
          "name": "role",
          "type": "bytes32"
        }
      ],
      "name": "getRoleAdmin",
      "outputs": [
        {
          "internalType": "bytes32",
          "name": "",
          "type": "bytes32"
        }
      ],
      "stateMutability": "view",
      "type": "function"
    },
    {
      "inputs": [
        {
          "internalType": "bytes32",
          "name": "role",
          "type": "bytes32"
        },
        {
          "internalType": "uint256",
          "name": "index",
          "type": "uint256"
        }
      ],
      "name": "getRoleMember",
      "outputs": [
        {
          "internalType": "address",
          "name": "",
          "type": "address"
        }
      ],
      "stateMutability": "view",
      "type": "function"
    },
    {
      "inputs": [
        {
          "internalType": "bytes32",
          "name": "role",
          "type": "bytes32"
        }
      ],
      "name": "getRoleMemberCount",
      "outputs": [
        {
          "internalType": "uint256",
          "name": "",
          "type": "uint256"
        }
      ],
      "stateMutability": "view",
      "type": "function"
    },
    {
      "inputs": [
        {
          "internalType": "bytes32",
          "name": "masterNftMID",
          "type": "bytes32"
        }
      ],
      "name": "getSnapshotStatus",
      "outputs": [
        {
          "internalType": "uint256",
          "name": "initialPrice",
          "type": "uint256"
        },
        {
          "internalType": "uint256",
          "name": "totalSupply",
          "type": "uint256"
        },
        {
          "internalType": "uint256",
          "name": "snapshotsMinted",
          "type": "uint256"
        },
        {
          "internalType": "bytes32",
          "name": "priceCurve",
          "type": "bytes32"
        },
        {
          "internalType": "uint256",
          "name": "birth",
          "type": "uint256"
        },
        {
          "internalType": "uint256",
          "name": "deadline",
          "type": "uint256"
        }
      ],
      "stateMutability": "view",
      "type": "function"
    },
    {
      "inputs": [
        {
          "internalType": "bytes32",
          "name": "role",
          "type": "bytes32"
        },
        {
          "internalType": "address",
          "name": "account",
          "type": "address"
        }
      ],
      "name": "grantRole",
      "outputs": [],
      "stateMutability": "nonpayable",
      "type": "function"
    },
    {
      "inputs": [
        {
          "internalType": "bytes32",
          "name": "role",
          "type": "bytes32"
        },
        {
          "internalType": "address",
          "name": "account",
          "type": "address"
        }
      ],
      "name": "hasRole",
      "outputs": [
        {
          "internalType": "bool",
          "name": "",
          "type": "bool"
        }
      ],
      "stateMutability": "view",
      "type": "function"
    },
    {
      "inputs": [],
      "name": "initialize",
      "outputs": [],
      "stateMutability": "nonpayable",
      "type": "function"
    },
    {
      "inputs": [
        {
          "internalType": "address",
          "name": "owner",
          "type": "address"
        },
        {
          "internalType": "bytes",
          "name": "signature",
          "type": "bytes"
        },
        {
          "internalType": "bytes32",
          "name": "masterNftMID",
          "type": "bytes32"
        },
        {
          "internalType": "string",
          "name": "newTokenURI",
          "type": "string"
        }
      ],
      "name": "inscribe",
      "outputs": [
        {
          "internalType": "uint256",
          "name": "newTokenId",
          "type": "uint256"
        }
      ],
      "stateMutability": "nonpayable",
      "type": "function"
    },
    {
      "inputs": [
        {
          "internalType": "address",
          "name": "owner",
          "type": "address"
        },
        {
          "internalType": "bytes",
          "name": "signature",
          "type": "bytes"
        },
        {
          "internalType": "bytes32",
          "name": "masterNftMID",
          "type": "bytes32"
        },
        {
          "internalType": "bytes32",
          "name": "inscriptionNftMID",
          "type": "bytes32"
        },
        {
          "internalType": "string",
          "name": "newTokenURI",
          "type": "string"
        }
      ],
      "name": "inscribe",
      "outputs": [
        {
          "internalType": "uint256",
          "name": "newTokenId",
          "type": "uint256"
        }
      ],
      "stateMutability": "nonpayable",
      "type": "function"
    },
    {
      "inputs": [
        {
          "internalType": "address",
          "name": "requester",
          "type": "address"
        },
        {
          "internalType": "bytes",
          "name": "signature",
          "type": "bytes"
        },
        {
          "internalType": "bytes32",
          "name": "masterNftMID",
          "type": "bytes32"
        },
        {
          "internalType": "string",
          "name": "newTokenURI",
          "type": "string"
        }
      ],
      "name": "mintSnapshot",
      "outputs": [
        {
          "internalType": "uint256",
          "name": "newTokenId",
          "type": "uint256"
        }
      ],
      "stateMutability": "nonpayable",
      "type": "function"
    },
    {
      "inputs": [],
      "name": "mosaiqueERC721Instance",
      "outputs": [
        {
          "internalType": "contract MosaiqueERC721V1",
          "name": "",
          "type": "address"
        }
      ],
      "stateMutability": "view",
      "type": "function"
    },
    {
      "inputs": [
        {
          "internalType": "bytes32",
          "name": "",
          "type": "bytes32"
        }
      ],
      "name": "nftMapping",
      "outputs": [
        {
          "internalType": "uint256",
          "name": "tokenId",
          "type": "uint256"
        },
        {
          "internalType": "address",
          "name": "nftContract",
          "type": "address"
        },
        {
          "internalType": "address",
          "name": "owner",
          "type": "address"
        },
        {
          "internalType": "bool",
          "name": "burned",
          "type": "bool"
        },
        {
          "internalType": "bool",
          "name": "imprinted",
          "type": "bool"
        },
        {
          "internalType": "bool",
          "name": "unlocked",
          "type": "bool"
        },
        {
          "internalType": "bool",
          "name": "copy",
          "type": "bool"
        }
      ],
      "stateMutability": "view",
      "type": "function"
    },
    {
      "inputs": [
        {
          "internalType": "address",
          "name": "",
          "type": "address"
        }
      ],
      "name": "nftWhitelist",
      "outputs": [
        {
          "internalType": "bool",
          "name": "",
          "type": "bool"
        }
      ],
      "stateMutability": "view",
      "type": "function"
    },
    {
      "inputs": [
        {
          "internalType": "address",
          "name": "operator",
          "type": "address"
        },
        {
          "internalType": "address",
          "name": "from",
          "type": "address"
        },
        {
          "internalType": "uint256",
          "name": "tokenId",
          "type": "uint256"
        },
        {
          "internalType": "bytes",
          "name": "data",
          "type": "bytes"
        }
      ],
      "name": "onERC721Received",
      "outputs": [
        {
          "internalType": "bytes4",
          "name": "",
          "type": "bytes4"
        }
      ],
      "stateMutability": "nonpayable",
      "type": "function"
    },
    {
      "inputs": [],
      "name": "paused",
      "outputs": [
        {
          "internalType": "bool",
          "name": "",
          "type": "bool"
        }
      ],
      "stateMutability": "view",
      "type": "function"
    },
    {
      "inputs": [
        {
          "internalType": "bytes32",
          "name": "role",
          "type": "bytes32"
        },
        {
          "internalType": "address",
          "name": "account",
          "type": "address"
        }
      ],
      "name": "renounceRole",
      "outputs": [],
      "stateMutability": "nonpayable",
      "type": "function"
    },
    {
      "inputs": [
        {
          "internalType": "bytes32",
          "name": "role",
          "type": "bytes32"
        },
        {
          "internalType": "address",
          "name": "account",
          "type": "address"
        }
      ],
      "name": "revokeRole",
      "outputs": [],
      "stateMutability": "nonpayable",
      "type": "function"
    },
    {
      "inputs": [
        {
          "internalType": "address",
          "name": "operator",
          "type": "address"
        }
      ],
      "name": "revokeTrustedOperator",
      "outputs": [],
      "stateMutability": "nonpayable",
      "type": "function"
    },
    {
      "inputs": [
        {
          "internalType": "contract MosaiqueERC721V1",
          "name": "instance",
          "type": "address"
        }
      ],
      "name": "setMosaiqueERC721Instance",
      "outputs": [],
      "stateMutability": "nonpayable",
      "type": "function"
    },
    {
      "inputs": [
        {
          "internalType": "address",
          "name": "tokenContract",
          "type": "address"
        },
        {
          "internalType": "bool",
          "name": "isWhitelisted",
          "type": "bool"
        }
      ],
      "name": "setNFTWhitelist",
      "outputs": [],
      "stateMutability": "nonpayable",
      "type": "function"
    },
    {
      "inputs": [
        {
          "internalType": "bytes32",
          "name": "",
          "type": "bytes32"
        }
      ],
      "name": "snapshotMapping",
      "outputs": [
        {
          "internalType": "bytes32",
          "name": "masterNftMID",
          "type": "bytes32"
        },
        {
          "internalType": "uint256",
          "name": "initialPrice",
          "type": "uint256"
        },
        {
          "internalType": "uint256",
          "name": "totalSupply",
          "type": "uint256"
        },
        {
          "internalType": "uint256",
          "name": "minted",
          "type": "uint256"
        },
        {
          "internalType": "bytes32",
          "name": "priceCurve",
          "type": "bytes32"
        },
        {
          "internalType": "uint256",
          "name": "birth",
          "type": "uint256"
        },
        {
          "internalType": "uint256",
          "name": "deadline",
          "type": "uint256"
        }
      ],
      "stateMutability": "view",
      "type": "function"
    },
    {
      "inputs": [
        {
          "internalType": "bytes",
          "name": "signature",
          "type": "bytes"
        }
      ],
      "name": "splitECSignature",
      "outputs": [
        {
          "internalType": "bytes32",
          "name": "r",
          "type": "bytes32"
        },
        {
          "internalType": "bytes32",
          "name": "s",
          "type": "bytes32"
        },
        {
          "internalType": "uint8",
          "name": "v",
          "type": "uint8"
        }
      ],
      "stateMutability": "pure",
      "type": "function"
    },
    {
      "inputs": [
        {
          "internalType": "bytes4",
          "name": "interfaceId",
          "type": "bytes4"
        }
      ],
      "name": "supportsInterface",
      "outputs": [
        {
          "internalType": "bool",
          "name": "",
          "type": "bool"
        }
      ],
      "stateMutability": "view",
      "type": "function"
    },
    {
      "inputs": [
        {
          "internalType": "address",
          "name": "signer",
          "type": "address"
        },
        {
          "internalType": "bytes32",
          "name": "hash",
          "type": "bytes32"
        },
        {
          "internalType": "bytes",
          "name": "signature",
          "type": "bytes"
        }
      ],
      "name": "verifyECSignatureSigner",
      "outputs": [
        {
          "internalType": "bool",
          "name": "",
          "type": "bool"
        }
      ],
      "stateMutability": "view",
      "type": "function"
    }
  ],
  "bytecode": "0x608060405234801561001057600080fd5b5061578480620000216000396000f3fe608060405234801561001057600080fd5b50600436106101f05760003560e01c8063659d0fe91161010f578063ab3bac4e116100a2578063cb64de6711610071578063cb64de671461064c578063d547741f1461067c578063d9c6f3b514610698578063f5b541a6146106ce576101f0565b8063ab3bac4e1461059a578063b332ae2c146105ca578063c05f0a1d14610600578063ca15c8731461061c576101f0565b806394ab7661116100de57806394ab7661146104fb578063a0b977bd1461052b578063a217fddf14610560578063a6639a171461057e576101f0565b8063659d0fe91461045b5780638129fc1c146104915780639010d07c1461049b57806391d14854146104cb576101f0565b806332f6bb06116101875780634cbf08ec116101565780634cbf08ec146103bf5780635c975abb146103f15780636081a5b21461040f57806361a849731461043f576101f0565b806332f6bb061461032757806336568abe146103575780634636af111461037357806346b31b6e1461038f576101f0565b806321b5cc84116101c357806321b5cc84146102a1578063233fbec6146102bf578063248a9ca3146102db5780632f2ff15d1461030b576101f0565b806301ffc9a7146101f55780630b5e2de714610225578063150b7a0214610241578063184eee4814610271575b600080fd5b61020f600480360381019061020a9190614106565b6106ec565b60405161021c9190614970565b60405180910390f35b61023f600480360381019061023a9190613bf7565b610766565b005b61025b60048036038101906102569190613ca4565b6107ac565b6040516102689190614b94565b60405180910390f35b61028b60048036038101906102869190613d6c565b610a14565b6040516102989190614970565b60405180910390f35b6102a9610a77565b6040516102b69190614baf565b60405180910390f35b6102d960048036038101906102d491906141a9565b610a9d565b005b6102f560048036038101906102f09190614059565b610af7565b604051610302919061498b565b60405180910390f35b61032560048036038101906103209190614086565b610b17565b005b610341600480360381019061033c9190613de0565b610b4b565b60405161034e9190614dec565b60405180910390f35b610371600480360381019061036c9190614086565b610eac565b005b61038d60048036038101906103889190613d2c565b610ee0565b005b6103a960048036038101906103a49190613bf7565b610f51565b6040516103b69190614970565b60405180910390f35b6103d960048036038101906103d49190614160565b610f71565b6040516103e8939291906149e6565b60405180910390f35b6103f9610f95565b6040516104069190614970565b60405180910390f35b61042960048036038101906104249190613e9c565b610fac565b6040516104369190614dec565b60405180910390f35b61045960048036038101906104549190613f43565b611260565b005b61047560048036038101906104709190614059565b6113f4565b6040516104889796959493929190614ae0565b60405180910390f35b610499611436565b005b6104b560048036038101906104b091906140c6565b611567565b6040516104c291906146c2565b60405180910390f35b6104e560048036038101906104e09190614086565b611596565b6040516104f29190614970565b60405180910390f35b61051560048036038101906105109190613e9c565b611601565b6040516105229190614dec565b60405180910390f35b61054560048036038101906105409190614059565b611901565b60405161055796959493929190614e76565b60405180910390f35b610568611955565b604051610575919061498b565b60405180910390f35b61059860048036038101906105939190613c51565b61195c565b005b6105b460048036038101906105af9190614019565b611bff565b6040516105c1919061498b565b60405180910390f35b6105e460048036038101906105df9190614059565b611c13565b6040516105f79796959493929190614e07565b60405180910390f35b61061a60048036038101906106159190613bf7565b611cc9565b005b61063660048036038101906106319190614059565b611d0f565b6040516106439190614dec565b60405180910390f35b61066660048036038101906106619190613de0565b611d33565b6040516106739190614dec565b60405180910390f35b61069660048036038101906106919190614086565b6120e8565b005b6106b260048036038101906106ad9190614059565b61211c565b6040516106c59796959493929190614901565b60405180910390f35b6106d66121ee565b6040516106e3919061498b565b60405180910390f35b60007f5a05180f000000000000000000000000000000000000000000000000000000007bffffffffffffffffffffffffffffffffffffffffffffffffffffffff1916827bffffffffffffffffffffffffffffffffffffffffffffffffffffffff1916148061075f575061075e82612215565b5b9050919050565b6000801b61077b8161077661228f565b612297565b6107a87f97667070c54ef182b0f5858b034beac1b6f3089aa2d3188bb1e8929f4fa9b92960001b83610b17565b5050565b600060fd60006107ba61228f565b73ffffffffffffffffffffffffffffffffffffffff1673ffffffffffffffffffffffffffffffffffffffff16815260200190815260200160002060009054906101000a900460ff16610841576040517f08c379a000000000000000000000000000000000000000000000000000000000815260040161083890614ccc565b60405180910390fd5b600060fc600061085861085261228f565b88612334565b81526020019081526020016000209050600073ffffffffffffffffffffffffffffffffffffffff168160010160009054906101000a900473ffffffffffffffffffffffffffffffffffffffff1673ffffffffffffffffffffffffffffffffffffffff1614610912578060020160169054906101000a900460ff16610911576040517f08c379a000000000000000000000000000000000000000000000000000000000815260040161090890614c4c565b60405180910390fd5b5b61091a61228f565b8160010160006101000a81548173ffffffffffffffffffffffffffffffffffffffff021916908373ffffffffffffffffffffffffffffffffffffffff160217905550848160000181905550858160020160006101000a81548173ffffffffffffffffffffffffffffffffffffffff021916908373ffffffffffffffffffffffffffffffffffffffff1602179055506109ba6109b361228f565b8787612367565b7f4489bd1a7381508ab547e59609b1c0f6f4bc2c4463ee6178025fd14a23353f2d6109e361228f565b878787876040516109f8959493929190614767565b60405180910390a163150b7a0260e01b91505095945050505050565b6000610a6d85610a2386612458565b85858080601f016020809104026020016040519081016040528093929190818152602001838380828437600081840152601f19601f82011690508083019250505050505050612488565b9050949350505050565b60fb60009054906101000a900473ffffffffffffffffffffffffffffffffffffffff1681565b6000801b610ab281610aad61228f565b612297565b8160fb60006101000a81548173ffffffffffffffffffffffffffffffffffffffff021916908373ffffffffffffffffffffffffffffffffffffffff1602179055505050565b600060656000838152602001908152602001600020600101549050919050565b610b2182826125bb565b610b4681609760008581526020019081526020016000206125e490919063ffffffff16565b505050565b60007f97667070c54ef182b0f5858b034beac1b6f3089aa2d3188bb1e8929f4fa9b92960001b610b8281610b7d61228f565b612297565b610bba8987878787604051602001610b9d94939291906149a6565b604051602081830303815290604052805190602001208a8a610a14565b610bf9576040517f08c379a0000000000000000000000000000000000000000000000000000000008152600401610bf090614dac565b60405180910390fd5b600060fc60008881526020019081526020016000209050600060fc600088815260200190815260200160002090508a73ffffffffffffffffffffffffffffffffffffffff168260020160009054906101000a900473ffffffffffffffffffffffffffffffffffffffff1673ffffffffffffffffffffffffffffffffffffffff1614610cb9576040517f08c379a0000000000000000000000000000000000000000000000000000000008152600401610cb090614d4c565b60405180910390fd5b8a73ffffffffffffffffffffffffffffffffffffffff168160020160009054906101000a900473ffffffffffffffffffffffffffffffffffffffff1673ffffffffffffffffffffffffffffffffffffffff1614610d4b576040517f08c379a0000000000000000000000000000000000000000000000000000000008152600401610d4290614c6c565b60405180910390fd5b610d7d8260010160009054906101000a900473ffffffffffffffffffffffffffffffffffffffff168360000154612614565b60fb60009054906101000a900473ffffffffffffffffffffffffffffffffffffffff1673ffffffffffffffffffffffffffffffffffffffff1663d204c45e8c88886040518463ffffffff1660e01b8152600401610ddc93929190614876565b602060405180830381600087803b158015610df657600080fd5b505af1158015610e0a573d6000803e3d6000fd5b505050506040513d601f19601f82011682018060405250810190610e2e919061421f565b93506000610e5e60fb60009054906101000a900473ffffffffffffffffffffffffffffffffffffffff1686612334565b90507f49b6fe2312f9cac57ad6f49a572a4c0af9b427bab533e80598d527086309d34b8c8a8388604051610e9594939291906147de565b60405180910390a150505050979650505050505050565b610eb68282612944565b610edb81609760008581526020019081526020016000206129c790919063ffffffff16565b505050565b6000801b610ef581610ef061228f565b612297565b8160fd60008573ffffffffffffffffffffffffffffffffffffffff1673ffffffffffffffffffffffffffffffffffffffff16815260200190815260200160002060006101000a81548160ff021916908315150217905550505050565b60fd6020528060005260406000206000915054906101000a900460ff1681565b60008060006020840151925060408401519150606084015160001a90509193909250565b600060c960009054906101000a900460ff16905090565b60007f97667070c54ef182b0f5858b034beac1b6f3089aa2d3188bb1e8929f4fa9b92960001b610fe381610fde61228f565b612297565b61101988868686604051602001610ffc93929190614a4d565b604051602081830303815290604052805190602001208989610a14565b611058576040517f08c379a000000000000000000000000000000000000000000000000000000000815260040161104f90614dac565b60405180910390fd5b600060fc600087815260200190815260200160002090508873ffffffffffffffffffffffffffffffffffffffff168160020160009054906101000a900473ffffffffffffffffffffffffffffffffffffffff1673ffffffffffffffffffffffffffffffffffffffff1614611101576040517f08c379a00000000000000000000000000000000000000000000000000000000081526004016110f890614d4c565b60405180910390fd5b6111338160010160009054906101000a900473ffffffffffffffffffffffffffffffffffffffff168260000154612614565b60fb60009054906101000a900473ffffffffffffffffffffffffffffffffffffffff1673ffffffffffffffffffffffffffffffffffffffff1663d204c45e8a87876040518463ffffffff1660e01b815260040161119293929190614876565b602060405180830381600087803b1580156111ac57600080fd5b505af11580156111c0573d6000803e3d6000fd5b505050506040513d601f19601f820116820180604052508101906111e4919061421f565b9250600061121460fb60009054906101000a900473ffffffffffffffffffffffffffffffffffffffff1685612334565b90507fb1d4567f6337596e49ffade72ee1285dc01c435a0129a57b3a2786a968e2c11d8a88838760405161124b94939291906147de565b60405180910390a15050509695505050505050565b7f97667070c54ef182b0f5858b034beac1b6f3089aa2d3188bb1e8929f4fa9b92960001b6112958161129061228f565b612297565b6112d18a8888888888886040516020016112b496959493929190614a7f565b604051602081830303815290604052805190602001208b8b610a14565b611310576040517f08c379a000000000000000000000000000000000000000000000000000000000815260040161130790614dac565b60405180910390fd5b600060fe60008981526020019081526020016000209050600081600501541461136e576040517f08c379a000000000000000000000000000000000000000000000000000000000815260040161136590614d8c565b60405180910390fd5b878160000181905550868160010181905550858160020181905550600081600301819055508481600401819055508381600501819055508281600601819055507f1177a6ee9db8918f9ee8541f0d3256a99d6bff5121f18c198e1653d696082c948b896040516113df9291906147b5565b60405180910390a15050505050505050505050565b60fe6020528060005260406000206000915090508060000154908060010154908060020154908060030154908060040154908060050154908060060154905087565b600060019054906101000a900460ff168061145c575060008054906101000a900460ff16155b61149b576040517f08c379a000000000000000000000000000000000000000000000000000000000815260040161149290614d0c565b60405180910390fd5b60008060019054906101000a900460ff1615905080156114eb576001600060016101000a81548160ff02191690831515021790555060016000806101000a81548160ff0219169083151502179055505b6114f36129f7565b6114fb612af0565b61150f6000801b61150a61228f565b612bd9565b6115437f97667070c54ef182b0f5858b034beac1b6f3089aa2d3188bb1e8929f4fa9b92960001b61153e61228f565b610b17565b80156115645760008060016101000a81548160ff0219169083151502179055505b50565b600061158e8260976000868152602001908152602001600020612c0d90919063ffffffff16565b905092915050565b60006065600084815260200190815260200160002060000160008373ffffffffffffffffffffffffffffffffffffffff1673ffffffffffffffffffffffffffffffffffffffff16815260200190815260200160002060009054906101000a900460ff16905092915050565b60007f97667070c54ef182b0f5858b034beac1b6f3089aa2d3188bb1e8929f4fa9b92960001b6116388161163361228f565b612297565b61166e8886868660405160200161165193929190614a4d565b604051602081830303815290604052805190602001208989610a14565b6116ad576040517f08c379a00000000000000000000000000000000000000000000000000000000081526004016116a490614dac565b60405180910390fd5b600060fe600087815260200190815260200160002090504381600601541161170a576040517f08c379a000000000000000000000000000000000000000000000000000000000815260040161170190614c8c565b60405180910390fd5b8060030154816002015411611754576040517f08c379a000000000000000000000000000000000000000000000000000000000815260040161174b90614d6c565b60405180910390fd5b8060030160008154611765906151e3565b919050819055508060030154816002015414156117b4577f8ffbb239649899fbb68518f485a15add28ad696cbb29051c9f1108a1bbf12310866040516117ab919061498b565b60405180910390a15b600060fc6000888152602001908152602001600020905060fb60009054906101000a900473ffffffffffffffffffffffffffffffffffffffff1673ffffffffffffffffffffffffffffffffffffffff1663d204c45e8b88886040518463ffffffff1660e01b815260040161182a93929190614876565b602060405180830381600087803b15801561184457600080fd5b505af1158015611858573d6000803e3d6000fd5b505050506040513d601f19601f8201168201806040525081019061187c919061421f565b935060006118ae8260010160009054906101000a900473ffffffffffffffffffffffffffffffffffffffff1686612334565b90507f92a22258f852a3b70c3d69f1a1931f26fabfce051cea4392ead49d926b8640bd8b89838887600301546040516118eb959493929190614823565b60405180910390a1505050509695505050505050565b600080600080600080600060fe600089815260200190815260200160002090508060010154816002015482600301548360040154846005015485600601549650965096509650965096505091939550919395565b6000801b81565b60008290508373ffffffffffffffffffffffffffffffffffffffff168173ffffffffffffffffffffffffffffffffffffffff16636352211e846040518263ffffffff1660e01b81526004016119b19190614dec565b60206040518083038186803b1580156119c957600080fd5b505afa1580156119dd573d6000803e3d6000fd5b505050506040513d601f19601f82011682018060405250810190611a019190613c24565b73ffffffffffffffffffffffffffffffffffffffff1614611a57576040517f08c379a0000000000000000000000000000000000000000000000000000000008152600401611a4e90614cec565b60405180910390fd5b600060fb60009054906101000a900473ffffffffffffffffffffffffffffffffffffffff1673ffffffffffffffffffffffffffffffffffffffff1663d204c45e868473ffffffffffffffffffffffffffffffffffffffff1663c87b56dd876040518263ffffffff1660e01b8152600401611ad19190614dec565b60006040518083038186803b158015611ae957600080fd5b505afa158015611afd573d6000803e3d6000fd5b505050506040513d6000823e3d601f19601f82011682018060405250810190611b2691906141d6565b6040518363ffffffff1660e01b8152600401611b439291906148a8565b602060405180830381600087803b158015611b5d57600080fd5b505af1158015611b71573d6000803e3d6000fd5b505050506040513d601f19601f82011682018060405250810190611b95919061421f565b90507f8c394d3611ddbfb7a426a89c1843a7fc38a831f3857ed1f0efb349156aad721685858560fb60009054906101000a900473ffffffffffffffffffffffffffffffffffffffff1685604051611bf0959493929190614714565b60405180910390a15050505050565b6000611c0b8383612334565b905092915050565b60fc6020528060005260406000206000915090508060000154908060010160009054906101000a900473ffffffffffffffffffffffffffffffffffffffff16908060020160009054906101000a900473ffffffffffffffffffffffffffffffffffffffff16908060020160149054906101000a900460ff16908060020160159054906101000a900460ff16908060020160169054906101000a900460ff16908060020160179054906101000a900460ff16905087565b6000801b611cde81611cd961228f565b612297565b611d0b7f97667070c54ef182b0f5858b034beac1b6f3089aa2d3188bb1e8929f4fa9b92960001b836120e8565b5050565b6000611d2c60976000848152602001908152602001600020612c27565b9050919050565b60007f97667070c54ef182b0f5858b034beac1b6f3089aa2d3188bb1e8929f4fa9b92960001b611d6a81611d6561228f565b612297565b611da28987878787604051602001611d8594939291906149a6565b604051602081830303815290604052805190602001208a8a610a14565b611de1576040517f08c379a0000000000000000000000000000000000000000000000000000000008152600401611dd890614dac565b60405180910390fd5b600060fc60008881526020019081526020016000209050600060fc600088815260200190815260200160002090508a73ffffffffffffffffffffffffffffffffffffffff168260020160009054906101000a900473ffffffffffffffffffffffffffffffffffffffff1673ffffffffffffffffffffffffffffffffffffffff1614611ea1576040517f08c379a0000000000000000000000000000000000000000000000000000000008152600401611e9890614d4c565b60405180910390fd5b8a73ffffffffffffffffffffffffffffffffffffffff168160020160009054906101000a900473ffffffffffffffffffffffffffffffffffffffff1673ffffffffffffffffffffffffffffffffffffffff1614611f33576040517f08c379a0000000000000000000000000000000000000000000000000000000008152600401611f2a90614c6c565b60405180910390fd5b611f658260010160009054906101000a900473ffffffffffffffffffffffffffffffffffffffff168360000154612614565b60018160020160146101000a81548160ff0219169083151502179055507f65f524cc2ee31b9de6f4e26e3c5a2d0f5ea115e7c3b642d3d9ce2454c73f1a8787604051611fb1919061498b565b60405180910390a160fb60009054906101000a900473ffffffffffffffffffffffffffffffffffffffff1673ffffffffffffffffffffffffffffffffffffffff1663d204c45e8c88886040518463ffffffff1660e01b815260040161201893929190614876565b602060405180830381600087803b15801561203257600080fd5b505af1158015612046573d6000803e3d6000fd5b505050506040513d601f19601f8201168201806040525081019061206a919061421f565b9350600061209a60fb60009054906101000a900473ffffffffffffffffffffffffffffffffffffffff1686612334565b90507fb1d4567f6337596e49ffade72ee1285dc01c435a0129a57b3a2786a968e2c11d8c8a83886040516120d194939291906147de565b60405180910390a150505050979650505050505050565b6120f28282612c3c565b61211781609760008581526020019081526020016000206129c790919063ffffffff16565b505050565b60008060008060008060008060fc60008a815260200190815260200160002090508060010160009054906101000a900473ffffffffffffffffffffffffffffffffffffffff1681600001548260020160009054906101000a900473ffffffffffffffffffffffffffffffffffffffff168360020160149054906101000a900460ff168460020160159054906101000a900460ff168560020160169054906101000a900460ff168660020160179054906101000a900460ff16975097509750975097509750975050919395979092949650565b7f97667070c54ef182b0f5858b034beac1b6f3089aa2d3188bb1e8929f4fa9b92960001b81565b60007f7965db0b000000000000000000000000000000000000000000000000000000007bffffffffffffffffffffffffffffffffffffffffffffffffffffffff1916827bffffffffffffffffffffffffffffffffffffffffffffffffffffffff19161480612288575061228782612c65565b5b9050919050565b600033905090565b6122a18282611596565b612330576122c68173ffffffffffffffffffffffffffffffffffffffff166014612ccf565b6122d48360001c6020612ccf565b6040516020016122e5929190614688565b6040516020818303038152906040526040517f08c379a00000000000000000000000000000000000000000000000000000000081526004016123279190614bca565b60405180910390fd5b5050565b600082826040516020016123499291906148d8565b60405160208183030381529060405280519060200120905092915050565b60008390508073ffffffffffffffffffffffffffffffffffffffff1663095ea7b384846040518363ffffffff1660e01b81526004016123a79291906148d8565b600060405180830381600087803b1580156123c157600080fd5b505af11580156123d5573d6000803e3d6000fd5b50505050600060fc60006123e98786612334565b8152602001908152602001600020905060018160020160166101000a81548160ff0219169083151502179055507fe4a708f90636c7aab954d473381466d256c53106aa2874019c04c01bf736f730858585604051612449939291906146dd565b60405180910390a15050505050565b60008160405160200161246b9190614662565b604051602081830303815290604052805190602001209050919050565b600061249384612f0b565b15612579578373ffffffffffffffffffffffffffffffffffffffff16631626ba7e84846040518363ffffffff1660e01b81526004016124d3929190614a1d565b60206040518083038186803b1580156124eb57600080fd5b505afa92505050801561251c57506040513d601f19601f820116820180604052508101906125199190614133565b60015b61252957600090506125b4565b631626ba7e60e01b7bffffffffffffffffffffffffffffffffffffffffffffffffffffffff1916817bffffffffffffffffffffffffffffffffffffffffffffffffffffffff1916149150506125b4565b8373ffffffffffffffffffffffffffffffffffffffff1661259a8484612f1e565b73ffffffffffffffffffffffffffffffffffffffff161490505b9392505050565b6125c482610af7565b6125d5816125d061228f565b612297565b6125df8383612fcd565b505050565b600061260c836000018373ffffffffffffffffffffffffffffffffffffffff1660001b6130ae565b905092915050565b60008290503073ffffffffffffffffffffffffffffffffffffffff168173ffffffffffffffffffffffffffffffffffffffff16636352211e846040518263ffffffff1660e01b81526004016126699190614dec565b60206040518083038186803b15801561268157600080fd5b505afa158015612695573d6000803e3d6000fd5b505050506040513d601f19601f820116820180604052508101906126b99190613c24565b73ffffffffffffffffffffffffffffffffffffffff1614801561284e57503073ffffffffffffffffffffffffffffffffffffffff168173ffffffffffffffffffffffffffffffffffffffff1663081812fc846040518263ffffffff1660e01b81526004016127279190614dec565b60206040518083038186803b15801561273f57600080fd5b505afa158015612753573d6000803e3d6000fd5b505050506040513d601f19601f820116820180604052508101906127779190613c24565b73ffffffffffffffffffffffffffffffffffffffff16148061284d5750600073ffffffffffffffffffffffffffffffffffffffff168173ffffffffffffffffffffffffffffffffffffffff1663081812fc846040518263ffffffff1660e01b81526004016127e59190614dec565b60206040518083038186803b1580156127fd57600080fd5b505afa158015612811573d6000803e3d6000fd5b505050506040513d601f19601f820116820180604052508101906128359190613c24565b73ffffffffffffffffffffffffffffffffffffffff16145b5b156128595750612940565b8073ffffffffffffffffffffffffffffffffffffffff1663095ea7b36000846040518363ffffffff1660e01b81526004016128959291906148d8565b600060405180830381600087803b1580156128af57600080fd5b505af11580156128c3573d6000803e3d6000fd5b50505050600060fc60006128d78686612334565b8152602001908152602001600020905060008160020160166101000a81548160ff0219169083151502179055507f5d2dfccf265e290ca53d59751054a0a1a4c82809a44400f4ba458886f4cdfd0084846040516129359291906148d8565b60405180910390a150505b5050565b61294c61228f565b73ffffffffffffffffffffffffffffffffffffffff168173ffffffffffffffffffffffffffffffffffffffff16146129b9576040517f08c379a00000000000000000000000000000000000000000000000000000000081526004016129b090614dcc565b60405180910390fd5b6129c3828261311e565b5050565b60006129ef836000018373ffffffffffffffffffffffffffffffffffffffff1660001b613200565b905092915050565b600060019054906101000a900460ff1680612a1d575060008054906101000a900460ff16155b612a5c576040517f08c379a0000000000000000000000000000000000000000000000000000000008152600401612a5390614d0c565b60405180910390fd5b60008060019054906101000a900460ff161590508015612aac576001600060016101000a81548160ff02191690831515021790555060016000806101000a81548160ff0219169083151502179055505b612ab4613314565b612abc6133ed565b612ac46134c6565b612acc61359f565b8015612aed5760008060016101000a81548160ff0219169083151502179055505b50565b600060019054906101000a900460ff1680612b16575060008054906101000a900460ff16155b612b55576040517f08c379a0000000000000000000000000000000000000000000000000000000008152600401612b4c90614d0c565b60405180910390fd5b60008060019054906101000a900460ff161590508015612ba5576001600060016101000a81548160ff02191690831515021790555060016000806101000a81548160ff0219169083151502179055505b612bad613314565b612bb5613678565b8015612bd65760008060016101000a81548160ff0219169083151502179055505b50565b612be3828261376c565b612c0881609760008581526020019081526020016000206125e490919063ffffffff16565b505050565b6000612c1c836000018361377a565b60001c905092915050565b6000612c35826000016137a5565b9050919050565b612c4582610af7565b612c5681612c5161228f565b612297565b612c60838361311e565b505050565b60007f01ffc9a7000000000000000000000000000000000000000000000000000000007bffffffffffffffffffffffffffffffffffffffffffffffffffffffff1916827bffffffffffffffffffffffffffffffffffffffffffffffffffffffff1916149050919050565b606060006002836002612ce29190614ff7565b612cec9190614fa1565b67ffffffffffffffff811115612d0557612d046152c3565b5b6040519080825280601f01601f191660200182016040528015612d375781602001600182028036833780820191505090505b5090507f300000000000000000000000000000000000000000000000000000000000000081600081518110612d6f57612d6e615294565b5b60200101907effffffffffffffffffffffffffffffffffffffffffffffffffffffffffffff1916908160001a9053507f780000000000000000000000000000000000000000000000000000000000000081600181518110612dd357612dd2615294565b5b60200101907effffffffffffffffffffffffffffffffffffffffffffffffffffffffffffff1916908160001a90535060006001846002612e139190614ff7565b612e1d9190614fa1565b90505b6001811115612ebd577f3031323334353637383961626364656600000000000000000000000000000000600f861660108110612e5f57612e5e615294565b5b1a60f81b828281518110612e7657612e75615294565b5b60200101907effffffffffffffffffffffffffffffffffffffffffffffffffffffffffffff1916908160001a905350600485901c945080612eb690615188565b9050612e20565b5060008414612f01576040517f08c379a0000000000000000000000000000000000000000000000000000000008152600401612ef890614c0c565b60405180910390fd5b8091505092915050565b600080823b905060008111915050919050565b6000604182511415612f5d5760008060006020850151925060408501519150606085015160001a9050612f53868285856137b6565b9350505050612fc7565b604082511415612f8c576000806020840151915060408401519050612f83858383613941565b92505050612fc7565b6040517f08c379a0000000000000000000000000000000000000000000000000000000008152600401612fbe90614c2c565b60405180910390fd5b92915050565b612fd78282611596565b6130aa5760016065600084815260200190815260200160002060000160008373ffffffffffffffffffffffffffffffffffffffff1673ffffffffffffffffffffffffffffffffffffffff16815260200190815260200160002060006101000a81548160ff02191690831515021790555061304f61228f565b73ffffffffffffffffffffffffffffffffffffffff168173ffffffffffffffffffffffffffffffffffffffff16837f2f8788117e7eff1d82e926ec794901d17c78024a50270940304540a733656f0d60405160405180910390a45b5050565b60006130ba838361398b565b613113578260000182908060018154018082558091505060019003906000526020600020016000909190919091505582600001805490508360010160008481526020019081526020016000208190555060019050613118565b600090505b92915050565b6131288282611596565b156131fc5760006065600084815260200190815260200160002060000160008373ffffffffffffffffffffffffffffffffffffffff1673ffffffffffffffffffffffffffffffffffffffff16815260200190815260200160002060006101000a81548160ff0219169083151502179055506131a161228f565b73ffffffffffffffffffffffffffffffffffffffff168173ffffffffffffffffffffffffffffffffffffffff16837ff6391f5c32d9c69d2a47ea670b442974b53935d1edc7fd64eb21e047a839171b60405160405180910390a45b5050565b600080836001016000848152602001908152602001600020549050600081146133085760006001826132329190615051565b905060006001866000018054905061324a9190615051565b90508181146132b957600086600001828154811061326b5761326a615294565b5b906000526020600020015490508087600001848154811061328f5761328e615294565b5b90600052602060002001819055508387600101600083815260200190815260200160002081905550505b856000018054806132cd576132cc615265565b5b60019003818190600052602060002001600090559055856001016000868152602001908152602001600020600090556001935050505061330e565b60009150505b92915050565b600060019054906101000a900460ff168061333a575060008054906101000a900460ff16155b613379576040517f08c379a000000000000000000000000000000000000000000000000000000000815260040161337090614d0c565b60405180910390fd5b60008060019054906101000a900460ff1615905080156133c9576001600060016101000a81548160ff02191690831515021790555060016000806101000a81548160ff0219169083151502179055505b80156133ea5760008060016101000a81548160ff0219169083151502179055505b50565b600060019054906101000a900460ff1680613413575060008054906101000a900460ff16155b613452576040517f08c379a000000000000000000000000000000000000000000000000000000000815260040161344990614d0c565b60405180910390fd5b60008060019054906101000a900460ff1615905080156134a2576001600060016101000a81548160ff02191690831515021790555060016000806101000a81548160ff0219169083151502179055505b80156134c35760008060016101000a81548160ff0219169083151502179055505b50565b600060019054906101000a900460ff16806134ec575060008054906101000a900460ff16155b61352b576040517f08c379a000000000000000000000000000000000000000000000000000000000815260040161352290614d0c565b60405180910390fd5b60008060019054906101000a900460ff16159050801561357b576001600060016101000a81548160ff02191690831515021790555060016000806101000a81548160ff0219169083151502179055505b801561359c5760008060016101000a81548160ff0219169083151502179055505b50565b600060019054906101000a900460ff16806135c5575060008054906101000a900460ff16155b613604576040517f08c379a00000000000000000000000000000000000000000000000000000000081526004016135fb90614d0c565b60405180910390fd5b60008060019054906101000a900460ff161590508015613654576001600060016101000a81548160ff02191690831515021790555060016000806101000a81548160ff0219169083151502179055505b80156136755760008060016101000a81548160ff0219169083151502179055505b50565b600060019054906101000a900460ff168061369e575060008054906101000a900460ff16155b6136dd576040517f08c379a00000000000000000000000000000000000000000000000000000000081526004016136d490614d0c565b60405180910390fd5b60008060019054906101000a900460ff16159050801561372d576001600060016101000a81548160ff02191690831515021790555060016000806101000a81548160ff0219169083151502179055505b600060c960006101000a81548160ff02191690831515021790555080156137695760008060016101000a81548160ff0219169083151502179055505b50565b6137768282612fcd565b5050565b600082600001828154811061379257613791615294565b5b9060005260206000200154905092915050565b600081600001805490509050919050565b60007f7fffffffffffffffffffffffffffffff5d576e7357a4501ddfe92f46681b20a08260001c111561381e576040517f08c379a000000000000000000000000000000000000000000000000000000000815260040161381590614cac565b60405180910390fd5b601b8460ff1614806138335750601c8460ff16145b613872576040517f08c379a000000000000000000000000000000000000000000000000000000000815260040161386990614d2c565b60405180910390fd5b6000600186868686604051600081526020016040526040516138979493929190614b4f565b6020604051602081039080840390855afa1580156138b9573d6000803e3d6000fd5b505050602060405103519050600073ffffffffffffffffffffffffffffffffffffffff168173ffffffffffffffffffffffffffffffffffffffff161415613935576040517f08c379a000000000000000000000000000000000000000000000000000000000815260040161392c90614bec565b60405180910390fd5b80915050949350505050565b60008060007f7fffffffffffffffffffffffffffffffffffffffffffffffffffffffffffffff84169150601b8460ff1c019050613980868287856137b6565b925050509392505050565b600080836001016000848152602001908152602001600020541415905092915050565b60006139c16139bc84614efc565b614ed7565b9050828152602081018484840111156139dd576139dc615301565b5b6139e8848285615146565b509392505050565b6000613a036139fe84614f2d565b614ed7565b905082815260208101848484011115613a1f57613a1e615301565b5b613a2a848285615155565b509392505050565b600081359050613a41816156c4565b92915050565b600081519050613a56816156c4565b92915050565b600081359050613a6b816156db565b92915050565b600081359050613a80816156f2565b92915050565b600081359050613a9581615709565b92915050565b600081519050613aaa81615709565b92915050565b60008083601f840112613ac657613ac56152f7565b5b8235905067ffffffffffffffff811115613ae357613ae26152f2565b5b602083019150836001820283011115613aff57613afe6152fc565b5b9250929050565b600082601f830112613b1b57613b1a6152f7565b5b8135613b2b8482602086016139ae565b91505092915050565b600081359050613b4381615720565b92915050565b60008083601f840112613b5f57613b5e6152f7565b5b8235905067ffffffffffffffff811115613b7c57613b7b6152f2565b5b602083019150836001820283011115613b9857613b976152fc565b5b9250929050565b600082601f830112613bb457613bb36152f7565b5b8151613bc48482602086016139f0565b91505092915050565b600081359050613bdc81615737565b92915050565b600081519050613bf181615737565b92915050565b600060208284031215613c0d57613c0c61530b565b5b6000613c1b84828501613a32565b91505092915050565b600060208284031215613c3a57613c3961530b565b5b6000613c4884828501613a47565b91505092915050565b600080600060608486031215613c6a57613c6961530b565b5b6000613c7886828701613a32565b9350506020613c8986828701613a32565b9250506040613c9a86828701613bcd565b9150509250925092565b600080600080600060808688031215613cc057613cbf61530b565b5b6000613cce88828901613a32565b9550506020613cdf88828901613a32565b9450506040613cf088828901613bcd565b935050606086013567ffffffffffffffff811115613d1157613d10615306565b5b613d1d88828901613ab0565b92509250509295509295909350565b60008060408385031215613d4357613d4261530b565b5b6000613d5185828601613a32565b9250506020613d6285828601613a5c565b9150509250929050565b60008060008060608587031215613d8657613d8561530b565b5b6000613d9487828801613a32565b9450506020613da587828801613a71565b935050604085013567ffffffffffffffff811115613dc657613dc5615306565b5b613dd287828801613ab0565b925092505092959194509250565b600080600080600080600060a0888a031215613dff57613dfe61530b565b5b6000613e0d8a828b01613a32565b975050602088013567ffffffffffffffff811115613e2e57613e2d615306565b5b613e3a8a828b01613ab0565b96509650506040613e4d8a828b01613a71565b9450506060613e5e8a828b01613a71565b935050608088013567ffffffffffffffff811115613e7f57613e7e615306565b5b613e8b8a828b01613b49565b925092505092959891949750929550565b60008060008060008060808789031215613eb957613eb861530b565b5b6000613ec789828a01613a32565b965050602087013567ffffffffffffffff811115613ee857613ee7615306565b5b613ef489828a01613ab0565b95509550506040613f0789828a01613a71565b935050606087013567ffffffffffffffff811115613f2857613f27615306565b5b613f3489828a01613b49565b92509250509295509295509295565b60008060008060008060008060006101008a8c031215613f6657613f6561530b565b5b6000613f748c828d01613a32565b99505060208a013567ffffffffffffffff811115613f9557613f94615306565b5b613fa18c828d01613ab0565b98509850506040613fb48c828d01613a71565b9650506060613fc58c828d01613bcd565b9550506080613fd68c828d01613bcd565b94505060a0613fe78c828d01613a71565b93505060c0613ff88c828d01613bcd565b92505060e06140098c828d01613bcd565b9150509295985092959850929598565b600080604083850312156140305761402f61530b565b5b600061403e85828601613a32565b925050602061404f85828601613bcd565b9150509250929050565b60006020828403121561406f5761406e61530b565b5b600061407d84828501613a71565b91505092915050565b6000806040838503121561409d5761409c61530b565b5b60006140ab85828601613a71565b92505060206140bc85828601613a32565b9150509250929050565b600080604083850312156140dd576140dc61530b565b5b60006140eb85828601613a71565b92505060206140fc85828601613bcd565b9150509250929050565b60006020828403121561411c5761411b61530b565b5b600061412a84828501613a86565b91505092915050565b6000602082840312156141495761414861530b565b5b600061415784828501613a9b565b91505092915050565b6000602082840312156141765761417561530b565b5b600082013567ffffffffffffffff81111561419457614193615306565b5b6141a084828501613b06565b91505092915050565b6000602082840312156141bf576141be61530b565b5b60006141cd84828501613b34565b91505092915050565b6000602082840312156141ec576141eb61530b565b5b600082015167ffffffffffffffff81111561420a57614209615306565b5b61421684828501613b9f565b91505092915050565b6000602082840312156142355761423461530b565b5b600061424384828501613be2565b91505092915050565b61425581615085565b82525050565b61426481615097565b82525050565b614273816150a3565b82525050565b61428a614285826150a3565b61522c565b82525050565b614299816150ad565b82525050565b60006142ab8385614f74565b93506142b8838584615146565b6142c183615310565b840190509392505050565b60006142d782614f5e565b6142e18185614f74565b93506142f1818560208601615155565b6142fa81615310565b840191505092915050565b61430e81615122565b82525050565b60006143208385614f85565b935061432d838584615146565b61433683615310565b840190509392505050565b600061434c82614f69565b6143568185614f85565b9350614366818560208601615155565b61436f81615310565b840191505092915050565b600061438582614f69565b61438f8185614f96565b935061439f818560208601615155565b80840191505092915050565b60006143b8601883614f85565b91506143c382615321565b602082019050919050565b60006143db602083614f85565b91506143e68261534a565b602082019050919050565b60006143fe601f83614f85565b915061440982615373565b602082019050919050565b6000614421601c83614f96565b915061442c8261539c565b601c82019050919050565b6000614444601583614f85565b915061444f826153c5565b602082019050919050565b6000614467601783614f85565b9150614472826153ee565b602082019050919050565b600061448a600b83614f85565b915061449582615417565b602082019050919050565b60006144ad602283614f85565b91506144b882615440565b604082019050919050565b60006144d0601583614f85565b91506144db8261548f565b602082019050919050565b60006144f3601283614f85565b91506144fe826154b8565b602082019050919050565b6000614516602e83614f85565b9150614521826154e1565b604082019050919050565b6000614539602283614f85565b915061454482615530565b604082019050919050565b600061455c601783614f85565b91506145678261557f565b602082019050919050565b600061457f601483614f85565b915061458a826155a8565b602082019050919050565b60006145a2601383614f85565b91506145ad826155d1565b602082019050919050565b60006145c5601783614f96565b91506145d0826155fa565b601782019050919050565b60006145e8601583614f85565b91506145f382615623565b602082019050919050565b600061460b601183614f96565b91506146168261564c565b601182019050919050565b600061462e602f83614f85565b915061463982615675565b604082019050919050565b61464d8161510b565b82525050565b61465c81615115565b82525050565b600061466d82614414565b91506146798284614279565b60208201915081905092915050565b6000614693826145b8565b915061469f828561437a565b91506146aa826145fe565b91506146b6828461437a565b91508190509392505050565b60006020820190506146d7600083018461424c565b92915050565b60006060820190506146f2600083018661424c565b6146ff602083018561424c565b61470c6040830184614644565b949350505050565b600060a082019050614729600083018861424c565b614736602083018761424c565b6147436040830186614644565b614750606083018561424c565b61475d6080830184614644565b9695505050505050565b600060808201905061477c600083018861424c565b614789602083018761424c565b6147966040830186614644565b81810360608301526147a981848661429f565b90509695505050505050565b60006040820190506147ca600083018561424c565b6147d7602083018461426a565b9392505050565b60006080820190506147f3600083018761424c565b614800602083018661426a565b61480d604083018561426a565b61481a6060830184614644565b95945050505050565b600060a082019050614838600083018861424c565b614845602083018761426a565b614852604083018661426a565b61485f6060830185614644565b61486c6080830184614644565b9695505050505050565b600060408201905061488b600083018661424c565b818103602083015261489e818486614314565b9050949350505050565b60006040820190506148bd600083018561424c565b81810360208301526148cf8184614341565b90509392505050565b60006040820190506148ed600083018561424c565b6148fa6020830184614644565b9392505050565b600060e082019050614916600083018a61424c565b6149236020830189614644565b614930604083018861424c565b61493d606083018761425b565b61494a608083018661425b565b61495760a083018561425b565b61496460c083018461425b565b98975050505050505050565b6000602082019050614985600083018461425b565b92915050565b60006020820190506149a0600083018461426a565b92915050565b60006060820190506149bb600083018761426a565b6149c8602083018661426a565b81810360408301526149db818486614314565b905095945050505050565b60006060820190506149fb600083018661426a565b614a08602083018561426a565b614a156040830184614653565b949350505050565b6000604082019050614a32600083018561426a565b8181036020830152614a4481846142cc565b90509392505050565b6000604082019050614a62600083018661426a565b8181036020830152614a75818486614314565b9050949350505050565b600060c082019050614a94600083018961426a565b614aa16020830188614644565b614aae6040830187614644565b614abb606083018661426a565b614ac86080830185614644565b614ad560a0830184614644565b979650505050505050565b600060e082019050614af5600083018a61426a565b614b026020830189614644565b614b0f6040830188614644565b614b1c6060830187614644565b614b29608083018661426a565b614b3660a0830185614644565b614b4360c0830184614644565b98975050505050505050565b6000608082019050614b64600083018761426a565b614b716020830186614653565b614b7e604083018561426a565b614b8b606083018461426a565b95945050505050565b6000602082019050614ba96000830184614290565b92915050565b6000602082019050614bc46000830184614305565b92915050565b60006020820190508181036000830152614be48184614341565b905092915050565b60006020820190508181036000830152614c05816143ab565b9050919050565b60006020820190508181036000830152614c25816143ce565b9050919050565b60006020820190508181036000830152614c45816143f1565b9050919050565b60006020820190508181036000830152614c6581614437565b9050919050565b60006020820190508181036000830152614c858161445a565b9050919050565b60006020820190508181036000830152614ca58161447d565b9050919050565b60006020820190508181036000830152614cc5816144a0565b9050919050565b60006020820190508181036000830152614ce5816144c3565b9050919050565b60006020820190508181036000830152614d05816144e6565b9050919050565b60006020820190508181036000830152614d2581614509565b9050919050565b60006020820190508181036000830152614d458161452c565b9050919050565b60006020820190508181036000830152614d658161454f565b9050919050565b60006020820190508181036000830152614d8581614572565b9050919050565b60006020820190508181036000830152614da581614595565b9050919050565b60006020820190508181036000830152614dc5816145db565b9050919050565b60006020820190508181036000830152614de581614621565b9050919050565b6000602082019050614e016000830184614644565b92915050565b600060e082019050614e1c600083018a614644565b614e29602083018961424c565b614e36604083018861424c565b614e43606083018761425b565b614e50608083018661425b565b614e5d60a083018561425b565b614e6a60c083018461425b565b98975050505050505050565b600060c082019050614e8b6000830189614644565b614e986020830188614644565b614ea56040830187614644565b614eb2606083018661426a565b614ebf6080830185614644565b614ecc60a0830184614644565b979650505050505050565b6000614ee1614ef2565b9050614eed82826151b2565b919050565b6000604051905090565b600067ffffffffffffffff821115614f1757614f166152c3565b5b614f2082615310565b9050602081019050919050565b600067ffffffffffffffff821115614f4857614f476152c3565b5b614f5182615310565b9050602081019050919050565b600081519050919050565b600081519050919050565b600082825260208201905092915050565b600082825260208201905092915050565b600081905092915050565b6000614fac8261510b565b9150614fb78361510b565b9250827fffffffffffffffffffffffffffffffffffffffffffffffffffffffffffffffff03821115614fec57614feb615236565b5b828201905092915050565b60006150028261510b565b915061500d8361510b565b9250817fffffffffffffffffffffffffffffffffffffffffffffffffffffffffffffffff048311821515161561504657615045615236565b5b828202905092915050565b600061505c8261510b565b91506150678361510b565b92508282101561507a57615079615236565b5b828203905092915050565b6000615090826150eb565b9050919050565b60008115159050919050565b6000819050919050565b60007fffffffff0000000000000000000000000000000000000000000000000000000082169050919050565b60006150e482615085565b9050919050565b600073ffffffffffffffffffffffffffffffffffffffff82169050919050565b6000819050919050565b600060ff82169050919050565b600061512d82615134565b9050919050565b600061513f826150eb565b9050919050565b82818337600083830152505050565b60005b83811015615173578082015181840152602081019050615158565b83811115615182576000848401525b50505050565b60006151938261510b565b915060008214156151a7576151a6615236565b5b600182039050919050565b6151bb82615310565b810181811067ffffffffffffffff821117156151da576151d96152c3565b5b80604052505050565b60006151ee8261510b565b91507fffffffffffffffffffffffffffffffffffffffffffffffffffffffffffffffff82141561522157615220615236565b5b600182019050919050565b6000819050919050565b7f4e487b7100000000000000000000000000000000000000000000000000000000600052601160045260246000fd5b7f4e487b7100000000000000000000000000000000000000000000000000000000600052603160045260246000fd5b7f4e487b7100000000000000000000000000000000000000000000000000000000600052603260045260246000fd5b7f4e487b7100000000000000000000000000000000000000000000000000000000600052604160045260246000fd5b600080fd5b600080fd5b600080fd5b600080fd5b600080fd5b600080fd5b6000601f19601f8301169050919050565b7f45434453413a20696e76616c6964207369676e61747572650000000000000000600082015250565b7f537472696e67733a20686578206c656e67746820696e73756666696369656e74600082015250565b7f45434453413a20696e76616c6964207369676e6174757265206c656e67746800600082015250565b7f19457468657265756d205369676e6564204d6573736167653a0a333200000000600082015250565b7f4d533a204c6f636b6564204e4654206578697374730000000000000000000000600082015250565b7f4d533a20556e617574686f72697a656420626c617a6f6e000000000000000000600082015250565b7f4d533a2045787069726564000000000000000000000000000000000000000000600082015250565b7f45434453413a20696e76616c6964207369676e6174757265202773272076616c60008201527f7565000000000000000000000000000000000000000000000000000000000000602082015250565b7f4d533a20556e617070726f76656420736f757263650000000000000000000000600082015250565b7f4d533a204f776e6572206d69736d617463680000000000000000000000000000600082015250565b7f496e697469616c697a61626c653a20636f6e747261637420697320616c72656160008201527f647920696e697469616c697a6564000000000000000000000000000000000000602082015250565b7f45434453413a20696e76616c6964207369676e6174757265202776272076616c60008201527f7565000000000000000000000000000000000000000000000000000000000000602082015250565b7f4d533a20556e617574686f72697a6564206d6173746572000000000000000000600082015250565b7f4d533a20537570706c7920657868617573746564000000000000000000000000600082015250565b7f4d533a20536e617073686f742065786973747300000000000000000000000000600082015250565b7f416363657373436f6e74726f6c3a206163636f756e7420000000000000000000600082015250565b7f4d533a20496e76616c6964207369676e61747572650000000000000000000000600082015250565b7f206973206d697373696e6720726f6c6520000000000000000000000000000000600082015250565b7f416363657373436f6e74726f6c3a2063616e206f6e6c792072656e6f756e636560008201527f20726f6c657320666f722073656c660000000000000000000000000000000000602082015250565b6156cd81615085565b81146156d857600080fd5b50565b6156e481615097565b81146156ef57600080fd5b50565b6156fb816150a3565b811461570657600080fd5b50565b615712816150ad565b811461571d57600080fd5b50565b615729816150d9565b811461573457600080fd5b50565b6157408161510b565b811461574b57600080fd5b5056fea264697066735822122030643dbbdb1391043d778a217b37641e8c3c2c46c3e4e4ec8bff664bc1ca525664736f6c63430008060033",
  "linkReferences": {},
  "deployedLinkReferences": {}
}