{
  "_format": "hh-sol-artifact-1",
  "contractName": "MosaiqueERC721V1",
  "sourceName": "contracts/MosaiqueERC721V1.sol",
  "abi": [
    {
      "anonymous": false,
      "inputs": [
        {
          "indexed": true,
          "internalType": "address",
          "name": "owner",
          "type": "address"
        },
        {
          "indexed": true,
          "internalType": "address",
          "name": "approved",
          "type": "address"
        },
        {
          "indexed": true,
          "internalType": "uint256",
          "name": "tokenId",
          "type": "uint256"
        }
      ],
      "name": "Approval",
      "type": "event"
    },
    {
      "anonymous": false,
      "inputs": [
        {
          "indexed": true,
          "internalType": "address",
          "name": "owner",
          "type": "address"
        },
        {
          "indexed": true,
          "internalType": "address",
          "name": "operator",
          "type": "address"
        },
        {
          "indexed": false,
          "internalType": "bool",
          "name": "approved",
          "type": "bool"
        }
      ],
      "name": "ApprovalForAll",
      "type": "event"
    },
    {
      "anonymous": false,
      "inputs": [
        {
          "indexed": true,
          "internalType": "bytes32",
          "name": "role",
          "type": "bytes32"
        },
        {
          "indexed": true,
          "internalType": "bytes32",
          "name": "previousAdminRole",
          "type": "bytes32"
        },
        {
          "indexed": true,
          "internalType": "bytes32",
          "name": "newAdminRole",
          "type": "bytes32"
        }
      ],
      "name": "RoleAdminChanged",
      "type": "event"
    },
    {
      "anonymous": false,
      "inputs": [
        {
          "indexed": true,
          "internalType": "bytes32",
          "name": "role",
          "type": "bytes32"
        },
        {
          "indexed": true,
          "internalType": "address",
          "name": "account",
          "type": "address"
        },
        {
          "indexed": true,
          "internalType": "address",
          "name": "sender",
          "type": "address"
        }
      ],
      "name": "RoleGranted",
      "type": "event"
    },
    {
      "anonymous": false,
      "inputs": [
        {
          "indexed": true,
          "internalType": "bytes32",
          "name": "role",
          "type": "bytes32"
        },
        {
          "indexed": true,
          "internalType": "address",
          "name": "account",
          "type": "address"
        },
        {
          "indexed": true,
          "internalType": "address",
          "name": "sender",
          "type": "address"
        }
      ],
      "name": "RoleRevoked",
      "type": "event"
    },
    {
      "anonymous": false,
      "inputs": [
        {
          "indexed": true,
          "internalType": "address",
          "name": "from",
          "type": "address"
        },
        {
          "indexed": true,
          "internalType": "address",
          "name": "to",
          "type": "address"
        },
        {
          "indexed": true,
          "internalType": "uint256",
          "name": "tokenId",
          "type": "uint256"
        }
      ],
      "name": "Transfer",
      "type": "event"
    },
    {
      "inputs": [],
      "name": "DEFAULT_ADMIN_ROLE",
      "outputs": [
        {
          "internalType": "bytes32",
          "name": "",
          "type": "bytes32"
        }
      ],
      "stateMutability": "view",
      "type": "function"
    },
    {
      "inputs": [],
      "name": "MINTER_ROLE",
      "outputs": [
        {
          "internalType": "bytes32",
          "name": "",
          "type": "bytes32"
        }
      ],
      "stateMutability": "view",
      "type": "function"
    },
    {
      "inputs": [
        {
          "internalType": "address",
          "name": "to",
          "type": "address"
        },
        {
          "internalType": "uint256",
          "name": "tokenId",
          "type": "uint256"
        }
      ],
      "name": "approve",
      "outputs": [],
      "stateMutability": "nonpayable",
      "type": "function"
    },
    {
      "inputs": [
        {
          "internalType": "address",
          "name": "owner",
          "type": "address"
        }
      ],
      "name": "balanceOf",
      "outputs": [
        {
          "internalType": "uint256",
          "name": "",
          "type": "uint256"
        }
      ],
      "stateMutability": "view",
      "type": "function"
    },
    {
      "inputs": [
        {
          "internalType": "uint256",
          "name": "tokenId",
          "type": "uint256"
        }
      ],
      "name": "getApproved",
      "outputs": [
        {
          "internalType": "address",
          "name": "",
          "type": "address"
        }
      ],
      "stateMutability": "view",
      "type": "function"
    },
    {
      "inputs": [
        {
          "internalType": "bytes32",
          "name": "role",
          "type": "bytes32"
        }
      ],
      "name": "getRoleAdmin",
      "outputs": [
        {
          "internalType": "bytes32",
          "name": "",
          "type": "bytes32"
        }
      ],
      "stateMutability": "view",
      "type": "function"
    },
    {
      "inputs": [
        {
          "internalType": "bytes32",
          "name": "role",
          "type": "bytes32"
        },
        {
          "internalType": "address",
          "name": "account",
          "type": "address"
        }
      ],
      "name": "grantRole",
      "outputs": [],
      "stateMutability": "nonpayable",
      "type": "function"
    },
    {
      "inputs": [
        {
          "internalType": "bytes32",
          "name": "role",
          "type": "bytes32"
        },
        {
          "internalType": "address",
          "name": "account",
          "type": "address"
        }
      ],
      "name": "hasRole",
      "outputs": [
        {
          "internalType": "bool",
          "name": "",
          "type": "bool"
        }
      ],
      "stateMutability": "view",
      "type": "function"
    },
    {
      "inputs": [],
      "name": "initialize",
      "outputs": [],
      "stateMutability": "nonpayable",
      "type": "function"
    },
    {
      "inputs": [
        {
          "internalType": "address",
          "name": "owner",
          "type": "address"
        },
        {
          "internalType": "address",
          "name": "operator",
          "type": "address"
        }
      ],
      "name": "isApprovedForAll",
      "outputs": [
        {
          "internalType": "bool",
          "name": "",
          "type": "bool"
        }
      ],
      "stateMutability": "view",
      "type": "function"
    },
    {
      "inputs": [],
      "name": "name",
      "outputs": [
        {
          "internalType": "string",
          "name": "",
          "type": "string"
        }
      ],
      "stateMutability": "view",
      "type": "function"
    },
    {
      "inputs": [
        {
          "internalType": "uint256",
          "name": "tokenId",
          "type": "uint256"
        }
      ],
      "name": "ownerOf",
      "outputs": [
        {
          "internalType": "address",
          "name": "",
          "type": "address"
        }
      ],
      "stateMutability": "view",
      "type": "function"
    },
    {
      "inputs": [
        {
          "internalType": "bytes32",
          "name": "role",
          "type": "bytes32"
        },
        {
          "internalType": "address",
          "name": "account",
          "type": "address"
        }
      ],
      "name": "renounceRole",
      "outputs": [],
      "stateMutability": "nonpayable",
      "type": "function"
    },
    {
      "inputs": [
        {
          "internalType": "bytes32",
          "name": "role",
          "type": "bytes32"
        },
        {
          "internalType": "address",
          "name": "account",
          "type": "address"
        }
      ],
      "name": "revokeRole",
      "outputs": [],
      "stateMutability": "nonpayable",
      "type": "function"
    },
    {
      "inputs": [
        {
          "internalType": "address",
          "name": "to",
          "type": "address"
        },
        {
          "internalType": "string",
          "name": "_tokenURI",
          "type": "string"
        }
      ],
      "name": "safeMint",
      "outputs": [
        {
          "internalType": "uint256",
          "name": "tokenId",
          "type": "uint256"
        }
      ],
      "stateMutability": "nonpayable",
      "type": "function"
    },
    {
      "inputs": [
        {
          "internalType": "address",
          "name": "from",
          "type": "address"
        },
        {
          "internalType": "address",
          "name": "to",
          "type": "address"
        },
        {
          "internalType": "uint256",
          "name": "tokenId",
          "type": "uint256"
        }
      ],
      "name": "safeTransferFrom",
      "outputs": [],
      "stateMutability": "nonpayable",
      "type": "function"
    },
    {
      "inputs": [
        {
          "internalType": "address",
          "name": "from",
          "type": "address"
        },
        {
          "internalType": "address",
          "name": "to",
          "type": "address"
        },
        {
          "internalType": "uint256",
          "name": "tokenId",
          "type": "uint256"
        },
        {
          "internalType": "bytes",
          "name": "_data",
          "type": "bytes"
        }
      ],
      "name": "safeTransferFrom",
      "outputs": [],
      "stateMutability": "nonpayable",
      "type": "function"
    },
    {
      "inputs": [
        {
          "internalType": "address",
          "name": "operator",
          "type": "address"
        },
        {
          "internalType": "bool",
          "name": "approved",
          "type": "bool"
        }
      ],
      "name": "setApprovalForAll",
      "outputs": [],
      "stateMutability": "nonpayable",
      "type": "function"
    },
    {
      "inputs": [
        {
          "internalType": "address",
          "name": "minter",
          "type": "address"
        }
      ],
      "name": "setMinter",
      "outputs": [],
      "stateMutability": "nonpayable",
      "type": "function"
    },
    {
      "inputs": [
        {
          "internalType": "bytes4",
          "name": "interfaceId",
          "type": "bytes4"
        }
      ],
      "name": "supportsInterface",
      "outputs": [
        {
          "internalType": "bool",
          "name": "",
          "type": "bool"
        }
      ],
      "stateMutability": "view",
      "type": "function"
    },
    {
      "inputs": [],
      "name": "symbol",
      "outputs": [
        {
          "internalType": "string",
          "name": "",
          "type": "string"
        }
      ],
      "stateMutability": "view",
      "type": "function"
    },
    {
      "inputs": [
        {
          "internalType": "uint256",
          "name": "tokenId",
          "type": "uint256"
        }
      ],
      "name": "tokenURI",
      "outputs": [
        {
          "internalType": "string",
          "name": "",
          "type": "string"
        }
      ],
      "stateMutability": "view",
      "type": "function"
    },
    {
      "inputs": [
        {
          "internalType": "address",
          "name": "from",
          "type": "address"
        },
        {
          "internalType": "address",
          "name": "to",
          "type": "address"
        },
        {
          "internalType": "uint256",
          "name": "tokenId",
          "type": "uint256"
        }
      ],
      "name": "transferFrom",
      "outputs": [],
      "stateMutability": "nonpayable",
      "type": "function"
    }
  ],
  "bytecode": "0x608060405234801561001057600080fd5b50613eae806100206000396000f3fe608060405234801561001057600080fd5b506004361061014d5760003560e01c80638129fc1c116100c3578063c87b56dd1161007c578063c87b56dd1461039a578063d204c45e146103ca578063d5391393146103fa578063d547741f14610418578063e985e9c514610434578063fca3b5aa146104645761014d565b80638129fc1c146102ec57806391d14854146102f657806395d89b4114610326578063a217fddf14610344578063a22cb46514610362578063b88d4fde1461037e5761014d565b8063248a9ca311610115578063248a9ca3146102085780632f2ff15d1461023857806336568abe1461025457806342842e0e146102705780636352211e1461028c57806370a08231146102bc5761014d565b806301ffc9a71461015257806306fdde0314610182578063081812fc146101a0578063095ea7b3146101d057806323b872dd146101ec575b600080fd5b61016c60048036038101906101679190612bdb565b610480565b60405161017991906130e5565b60405180910390f35b61018a610492565b604051610197919061311b565b60405180910390f35b6101ba60048036038101906101b59190612c35565b610524565b6040516101c7919061307e565b60405180910390f35b6101ea60048036038101906101e59190612b2e565b6105a9565b005b610206600480360381019061020191906129bc565b6106c1565b005b610222600480360381019061021d9190612b6e565b610721565b60405161022f9190613100565b60405180910390f35b610252600480360381019061024d9190612b9b565b610741565b005b61026e60048036038101906102699190612b9b565b61076a565b005b61028a600480360381019061028591906129bc565b6107ed565b005b6102a660048036038101906102a19190612c35565b61080d565b6040516102b3919061307e565b60405180910390f35b6102d660048036038101906102d1919061294f565b6108bf565b6040516102e3919061339d565b60405180910390f35b6102f4610977565b005b610310600480360381019061030b9190612b9b565b610a74565b60405161031d91906130e5565b60405180910390f35b61032e610adf565b60405161033b919061311b565b60405180910390f35b61034c610b71565b6040516103599190613100565b60405180910390f35b61037c60048036038101906103779190612a92565b610b78565b005b61039860048036038101906103939190612a0f565b610cf9565b005b6103b460048036038101906103af9190612c35565b610d5b565b6040516103c1919061311b565b60405180910390f35b6103e460048036038101906103df9190612ad2565b610ead565b6040516103f1919061339d565b60405180910390f35b610402610f22565b60405161040f9190613100565b60405180910390f35b610432600480360381019061042d9190612b9b565b610f46565b005b61044e6004803603810190610449919061297c565b610f6f565b60405161045b91906130e5565b60405180910390f35b61047e6004803603810190610479919061294f565b611003565b005b600061048b82611046565b9050919050565b6060609780546104a190613681565b80601f01602080910402602001604051908101604052809291908181526020018280546104cd90613681565b801561051a5780601f106104ef5761010080835404028352916020019161051a565b820191906000526020600020905b8154815290600101906020018083116104fd57829003601f168201915b5050505050905090565b600061052f82611128565b61056e576040517f08c379a0000000000000000000000000000000000000000000000000000000008152600401610565906132dd565b60405180910390fd5b609b600083815260200190815260200160002060009054906101000a900473ffffffffffffffffffffffffffffffffffffffff169050919050565b60006105b48261080d565b90508073ffffffffffffffffffffffffffffffffffffffff168373ffffffffffffffffffffffffffffffffffffffff161415610625576040517f08c379a000000000000000000000000000000000000000000000000000000000815260040161061c9061333d565b60405180910390fd5b8073ffffffffffffffffffffffffffffffffffffffff16610644611194565b73ffffffffffffffffffffffffffffffffffffffff16148061067357506106728161066d611194565b610f6f565b5b6106b2576040517f08c379a00000000000000000000000000000000000000000000000000000000081526004016106a9906131fd565b60405180910390fd5b6106bc838361119c565b505050565b6106d26106cc611194565b82611255565b610711576040517f08c379a00000000000000000000000000000000000000000000000000000000081526004016107089061335d565b60405180910390fd5b61071c838383611333565b505050565b600060656000838152602001908152602001600020600101549050919050565b61074a82610721565b61075b81610756611194565b61158f565b610765838361162c565b505050565b610772611194565b73ffffffffffffffffffffffffffffffffffffffff168173ffffffffffffffffffffffffffffffffffffffff16146107df576040517f08c379a00000000000000000000000000000000000000000000000000000000081526004016107d69061337d565b60405180910390fd5b6107e9828261170d565b5050565b61080883838360405180602001604052806000815250610cf9565b505050565b6000806099600084815260200190815260200160002060009054906101000a900473ffffffffffffffffffffffffffffffffffffffff169050600073ffffffffffffffffffffffffffffffffffffffff168173ffffffffffffffffffffffffffffffffffffffff1614156108b6576040517f08c379a00000000000000000000000000000000000000000000000000000000081526004016108ad9061323d565b60405180910390fd5b80915050919050565b60008073ffffffffffffffffffffffffffffffffffffffff168273ffffffffffffffffffffffffffffffffffffffff161415610930576040517f08c379a00000000000000000000000000000000000000000000000000000000081526004016109279061321d565b60405180910390fd5b609a60008373ffffffffffffffffffffffffffffffffffffffff1673ffffffffffffffffffffffffffffffffffffffff168152602001908152602001600020549050919050565b600060019054906101000a900460ff168061099d575060008054906101000a900460ff16155b6109dc576040517f08c379a00000000000000000000000000000000000000000000000000000000081526004016109d39061327d565b60405180910390fd5b60008060019054906101000a900460ff161590508015610a2c576001600060016101000a81548160ff02191690831515021790555060016000806101000a81548160ff0219169083151502179055505b610a346117ef565b610a3c6118e0565b610a506000801b610a4b611194565b6119d1565b8015610a715760008060016101000a81548160ff0219169083151502179055505b50565b60006065600084815260200190815260200160002060000160008373ffffffffffffffffffffffffffffffffffffffff1673ffffffffffffffffffffffffffffffffffffffff16815260200190815260200160002060009054906101000a900460ff16905092915050565b606060988054610aee90613681565b80601f0160208091040260200160405190810160405280929190818152602001828054610b1a90613681565b8015610b675780601f10610b3c57610100808354040283529160200191610b67565b820191906000526020600020905b815481529060010190602001808311610b4a57829003601f168201915b5050505050905090565b6000801b81565b610b80611194565b73ffffffffffffffffffffffffffffffffffffffff168273ffffffffffffffffffffffffffffffffffffffff161415610bee576040517f08c379a0000000000000000000000000000000000000000000000000000000008152600401610be5906131bd565b60405180910390fd5b80609c6000610bfb611194565b73ffffffffffffffffffffffffffffffffffffffff1673ffffffffffffffffffffffffffffffffffffffff16815260200190815260200160002060008473ffffffffffffffffffffffffffffffffffffffff1673ffffffffffffffffffffffffffffffffffffffff16815260200190815260200160002060006101000a81548160ff0219169083151502179055508173ffffffffffffffffffffffffffffffffffffffff16610ca8611194565b73ffffffffffffffffffffffffffffffffffffffff167f17307eab39ab6107e8899845ad3d59bd9653f200f220920489ca2b5937696c3183604051610ced91906130e5565b60405180910390a35050565b610d0a610d04611194565b83611255565b610d49576040517f08c379a0000000000000000000000000000000000000000000000000000000008152600401610d409061335d565b60405180910390fd5b610d55848484846119df565b50505050565b6060610d6682611128565b610da5576040517f08c379a0000000000000000000000000000000000000000000000000000000008152600401610d9c906132bd565b60405180910390fd5b600060c960008481526020019081526020016000208054610dc590613681565b80601f0160208091040260200160405190810160405280929190818152602001828054610df190613681565b8015610e3e5780601f10610e1357610100808354040283529160200191610e3e565b820191906000526020600020905b815481529060010190602001808311610e2157829003601f168201915b505050505090506000610e4f611a3b565b9050600081511415610e65578192505050610ea8565b600082511115610e9a578082604051602001610e82929190613020565b60405160208183030381529060405292505050610ea8565b610ea384611a52565b925050505b919050565b60007f9f2df0fed2c77648de5860a4cc508cd0818c85b8b8a1ab4ceeef8d981c8956a6610ee181610edc611194565b61158f565b610eeb60fb611af9565b9150610f07848360405180602001604052806000815250611b07565b610f118284611b62565b610f1b60fb611bd6565b5092915050565b7f9f2df0fed2c77648de5860a4cc508cd0818c85b8b8a1ab4ceeef8d981c8956a681565b610f4f82610721565b610f6081610f5b611194565b61158f565b610f6a838361170d565b505050565b6000609c60008473ffffffffffffffffffffffffffffffffffffffff1673ffffffffffffffffffffffffffffffffffffffff16815260200190815260200160002060008373ffffffffffffffffffffffffffffffffffffffff1673ffffffffffffffffffffffffffffffffffffffff16815260200190815260200160002060009054906101000a900460ff16905092915050565b6000801b61101881611013611194565b61158f565b6110427f9f2df0fed2c77648de5860a4cc508cd0818c85b8b8a1ab4ceeef8d981c8956a6836119d1565b5050565b60007f80ac58cd000000000000000000000000000000000000000000000000000000007bffffffffffffffffffffffffffffffffffffffffffffffffffffffff1916827bffffffffffffffffffffffffffffffffffffffffffffffffffffffff1916148061111157507f5b5e139f000000000000000000000000000000000000000000000000000000007bffffffffffffffffffffffffffffffffffffffffffffffffffffffff1916827bffffffffffffffffffffffffffffffffffffffffffffffffffffffff1916145b80611121575061112082611bec565b5b9050919050565b60008073ffffffffffffffffffffffffffffffffffffffff166099600084815260200190815260200160002060009054906101000a900473ffffffffffffffffffffffffffffffffffffffff1673ffffffffffffffffffffffffffffffffffffffff1614159050919050565b600033905090565b81609b600083815260200190815260200160002060006101000a81548173ffffffffffffffffffffffffffffffffffffffff021916908373ffffffffffffffffffffffffffffffffffffffff160217905550808273ffffffffffffffffffffffffffffffffffffffff1661120f8361080d565b73ffffffffffffffffffffffffffffffffffffffff167f8c5be1e5ebec7d5bd14f71427d1e84f3dd0314c0f7b2291e5b200ac8c7c3b92560405160405180910390a45050565b600061126082611128565b61129f576040517f08c379a0000000000000000000000000000000000000000000000000000000008152600401611296906131dd565b60405180910390fd5b60006112aa8361080d565b90508073ffffffffffffffffffffffffffffffffffffffff168473ffffffffffffffffffffffffffffffffffffffff16148061131957508373ffffffffffffffffffffffffffffffffffffffff1661130184610524565b73ffffffffffffffffffffffffffffffffffffffff16145b8061132a57506113298185610f6f565b5b91505092915050565b8273ffffffffffffffffffffffffffffffffffffffff166113538261080d565b73ffffffffffffffffffffffffffffffffffffffff16146113a9576040517f08c379a00000000000000000000000000000000000000000000000000000000081526004016113a0906132fd565b60405180910390fd5b600073ffffffffffffffffffffffffffffffffffffffff168273ffffffffffffffffffffffffffffffffffffffff161415611419576040517f08c379a00000000000000000000000000000000000000000000000000000000081526004016114109061319d565b60405180910390fd5b611424838383611c66565b61142f60008261119c565b6001609a60008573ffffffffffffffffffffffffffffffffffffffff1673ffffffffffffffffffffffffffffffffffffffff168152602001908152602001600020600082825461147f9190613563565b925050819055506001609a60008473ffffffffffffffffffffffffffffffffffffffff1673ffffffffffffffffffffffffffffffffffffffff16815260200190815260200160002060008282546114d69190613482565b92505081905550816099600083815260200190815260200160002060006101000a81548173ffffffffffffffffffffffffffffffffffffffff021916908373ffffffffffffffffffffffffffffffffffffffff160217905550808273ffffffffffffffffffffffffffffffffffffffff168473ffffffffffffffffffffffffffffffffffffffff167fddf252ad1be2c89b69c2b068fc378daa952ba7f163c4a11628f55a4df523b3ef60405160405180910390a4505050565b6115998282610a74565b611628576115be8173ffffffffffffffffffffffffffffffffffffffff166014611c6b565b6115cc8360001c6020611c6b565b6040516020016115dd929190613044565b6040516020818303038152906040526040517f08c379a000000000000000000000000000000000000000000000000000000000815260040161161f919061311b565b60405180910390fd5b5050565b6116368282610a74565b6117095760016065600084815260200190815260200160002060000160008373ffffffffffffffffffffffffffffffffffffffff1673ffffffffffffffffffffffffffffffffffffffff16815260200190815260200160002060006101000a81548160ff0219169083151502179055506116ae611194565b73ffffffffffffffffffffffffffffffffffffffff168173ffffffffffffffffffffffffffffffffffffffff16837f2f8788117e7eff1d82e926ec794901d17c78024a50270940304540a733656f0d60405160405180910390a45b5050565b6117178282610a74565b156117eb5760006065600084815260200190815260200160002060000160008373ffffffffffffffffffffffffffffffffffffffff1673ffffffffffffffffffffffffffffffffffffffff16815260200190815260200160002060006101000a81548160ff021916908315150217905550611790611194565b73ffffffffffffffffffffffffffffffffffffffff168173ffffffffffffffffffffffffffffffffffffffff16837ff6391f5c32d9c69d2a47ea670b442974b53935d1edc7fd64eb21e047a839171b60405160405180910390a45b5050565b600060019054906101000a900460ff1680611815575060008054906101000a900460ff16155b611854576040517f08c379a000000000000000000000000000000000000000000000000000000000815260040161184b9061327d565b60405180910390fd5b60008060019054906101000a900460ff1615905080156118a4576001600060016101000a81548160ff02191690831515021790555060016000806101000a81548160ff0219169083151502179055505b6118ac611ea7565b6118b4611f80565b6118bc612059565b80156118dd5760008060016101000a81548160ff0219169083151502179055505b50565b600060019054906101000a900460ff1680611906575060008054906101000a900460ff16155b611945576040517f08c379a000000000000000000000000000000000000000000000000000000000815260040161193c9061327d565b60405180910390fd5b60008060019054906101000a900460ff161590508015611995576001600060016101000a81548160ff02191690831515021790555060016000806101000a81548160ff0219169083151502179055505b61199d611ea7565b6119a5611f80565b6119ad612132565b80156119ce5760008060016101000a81548160ff0219169083151502179055505b50565b6119db828261162c565b5050565b6119ea848484611333565b6119f68484848461220b565b611a35576040517f08c379a0000000000000000000000000000000000000000000000000000000008152600401611a2c9061315d565b60405180910390fd5b50505050565b606060405180602001604052806000815250905090565b6060611a5d82611128565b611a9c576040517f08c379a0000000000000000000000000000000000000000000000000000000008152600401611a939061331d565b60405180910390fd5b6000611aa6611a3b565b90506000815111611ac65760405180602001604052806000815250611af1565b80611ad0846123a2565b604051602001611ae1929190613020565b6040516020818303038152906040525b915050919050565b600081600001549050919050565b611b118383612503565b611b1e600084848461220b565b611b5d576040517f08c379a0000000000000000000000000000000000000000000000000000000008152600401611b549061315d565b60405180910390fd5b505050565b611b6b82611128565b611baa576040517f08c379a0000000000000000000000000000000000000000000000000000000008152600401611ba19061325d565b60405180910390fd5b8060c960008481526020019081526020016000209080519060200190611bd192919061274e565b505050565b6001816000016000828254019250508190555050565b60007f7965db0b000000000000000000000000000000000000000000000000000000007bffffffffffffffffffffffffffffffffffffffffffffffffffffffff1916827bffffffffffffffffffffffffffffffffffffffffffffffffffffffff19161480611c5f5750611c5e826126d1565b5b9050919050565b505050565b606060006002836002611c7e9190613509565b611c889190613482565b67ffffffffffffffff811115611ca157611ca061381a565b5b6040519080825280601f01601f191660200182016040528015611cd35781602001600182028036833780820191505090505b5090507f300000000000000000000000000000000000000000000000000000000000000081600081518110611d0b57611d0a6137eb565b5b60200101907effffffffffffffffffffffffffffffffffffffffffffffffffffffffffffff1916908160001a9053507f780000000000000000000000000000000000000000000000000000000000000081600181518110611d6f57611d6e6137eb565b5b60200101907effffffffffffffffffffffffffffffffffffffffffffffffffffffffffffff1916908160001a90535060006001846002611daf9190613509565b611db99190613482565b90505b6001811115611e59577f3031323334353637383961626364656600000000000000000000000000000000600f861660108110611dfb57611dfa6137eb565b5b1a60f81b828281518110611e1257611e116137eb565b5b60200101907effffffffffffffffffffffffffffffffffffffffffffffffffffffffffffff1916908160001a905350600485901c945080611e5290613657565b9050611dbc565b5060008414611e9d576040517f08c379a0000000000000000000000000000000000000000000000000000000008152600401611e949061313d565b60405180910390fd5b8091505092915050565b600060019054906101000a900460ff1680611ecd575060008054906101000a900460ff16155b611f0c576040517f08c379a0000000000000000000000000000000000000000000000000000000008152600401611f039061327d565b60405180910390fd5b60008060019054906101000a900460ff161590508015611f5c576001600060016101000a81548160ff02191690831515021790555060016000806101000a81548160ff0219169083151502179055505b8015611f7d5760008060016101000a81548160ff0219169083151502179055505b50565b600060019054906101000a900460ff1680611fa6575060008054906101000a900460ff16155b611fe5576040517f08c379a0000000000000000000000000000000000000000000000000000000008152600401611fdc9061327d565b60405180910390fd5b60008060019054906101000a900460ff161590508015612035576001600060016101000a81548160ff02191690831515021790555060016000806101000a81548160ff0219169083151502179055505b80156120565760008060016101000a81548160ff0219169083151502179055505b50565b600060019054906101000a900460ff168061207f575060008054906101000a900460ff16155b6120be576040517f08c379a00000000000000000000000000000000000000000000000000000000081526004016120b59061327d565b60405180910390fd5b60008060019054906101000a900460ff16159050801561210e576001600060016101000a81548160ff02191690831515021790555060016000806101000a81548160ff0219169083151502179055505b801561212f5760008060016101000a81548160ff0219169083151502179055505b50565b600060019054906101000a900460ff1680612158575060008054906101000a900460ff16155b612197576040517f08c379a000000000000000000000000000000000000000000000000000000000815260040161218e9061327d565b60405180910390fd5b60008060019054906101000a900460ff1615905080156121e7576001600060016101000a81548160ff02191690831515021790555060016000806101000a81548160ff0219169083151502179055505b80156122085760008060016101000a81548160ff0219169083151502179055505b50565b600061222c8473ffffffffffffffffffffffffffffffffffffffff1661273b565b15612395578373ffffffffffffffffffffffffffffffffffffffff1663150b7a02612255611194565b8786866040518563ffffffff1660e01b81526004016122779493929190613099565b602060405180830381600087803b15801561229157600080fd5b505af19250505080156122c257506040513d601f19601f820116820180604052508101906122bf9190612c08565b60015b612345573d80600081146122f2576040519150601f19603f3d011682016040523d82523d6000602084013e6122f7565b606091505b5060008151141561233d576040517f08c379a00000000000000000000000000000000000000000000000000000000081526004016123349061315d565b60405180910390fd5b805181602001fd5b63150b7a0260e01b7bffffffffffffffffffffffffffffffffffffffffffffffffffffffff1916817bffffffffffffffffffffffffffffffffffffffffffffffffffffffff19161491505061239a565b600190505b949350505050565b606060008214156123ea576040518060400160405280600181526020017f300000000000000000000000000000000000000000000000000000000000000081525090506124fe565b600082905060005b6000821461241c578080612405906136e4565b915050600a8261241591906134d8565b91506123f2565b60008167ffffffffffffffff8111156124385761243761381a565b5b6040519080825280601f01601f19166020018201604052801561246a5781602001600182028036833780820191505090505b5090505b600085146124f7576001826124839190613563565b9150600a85612492919061372d565b603061249e9190613482565b60f81b8183815181106124b4576124b36137eb565b5b60200101907effffffffffffffffffffffffffffffffffffffffffffffffffffffffffffff1916908160001a905350600a856124f091906134d8565b945061246e565b8093505050505b919050565b600073ffffffffffffffffffffffffffffffffffffffff168273ffffffffffffffffffffffffffffffffffffffff161415612573576040517f08c379a000000000000000000000000000000000000000000000000000000000815260040161256a9061329d565b60405180910390fd5b61257c81611128565b156125bc576040517f08c379a00000000000000000000000000000000000000000000000000000000081526004016125b39061317d565b60405180910390fd5b6125c860008383611c66565b6001609a60008473ffffffffffffffffffffffffffffffffffffffff1673ffffffffffffffffffffffffffffffffffffffff16815260200190815260200160002060008282546126189190613482565b92505081905550816099600083815260200190815260200160002060006101000a81548173ffffffffffffffffffffffffffffffffffffffff021916908373ffffffffffffffffffffffffffffffffffffffff160217905550808273ffffffffffffffffffffffffffffffffffffffff16600073ffffffffffffffffffffffffffffffffffffffff167fddf252ad1be2c89b69c2b068fc378daa952ba7f163c4a11628f55a4df523b3ef60405160405180910390a45050565b60007f01ffc9a7000000000000000000000000000000000000000000000000000000007bffffffffffffffffffffffffffffffffffffffffffffffffffffffff1916827bffffffffffffffffffffffffffffffffffffffffffffffffffffffff1916149050919050565b600080823b905060008111915050919050565b82805461275a90613681565b90600052602060002090601f01602090048101928261277c57600085556127c3565b82601f1061279557805160ff19168380011785556127c3565b828001600101855582156127c3579182015b828111156127c25782518255916020019190600101906127a7565b5b5090506127d091906127d4565b5090565b5b808211156127ed5760008160009055506001016127d5565b5090565b60006128046127ff846133dd565b6133b8565b9050828152602081018484840111156128205761281f61384e565b5b61282b848285613615565b509392505050565b60006128466128418461340e565b6133b8565b9050828152602081018484840111156128625761286161384e565b5b61286d848285613615565b509392505050565b60008135905061288481613e05565b92915050565b60008135905061289981613e1c565b92915050565b6000813590506128ae81613e33565b92915050565b6000813590506128c381613e4a565b92915050565b6000815190506128d881613e4a565b92915050565b600082601f8301126128f3576128f2613849565b5b81356129038482602086016127f1565b91505092915050565b600082601f83011261292157612920613849565b5b8135612931848260208601612833565b91505092915050565b60008135905061294981613e61565b92915050565b60006020828403121561296557612964613858565b5b600061297384828501612875565b91505092915050565b6000806040838503121561299357612992613858565b5b60006129a185828601612875565b92505060206129b285828601612875565b9150509250929050565b6000806000606084860312156129d5576129d4613858565b5b60006129e386828701612875565b93505060206129f486828701612875565b9250506040612a058682870161293a565b9150509250925092565b60008060008060808587031215612a2957612a28613858565b5b6000612a3787828801612875565b9450506020612a4887828801612875565b9350506040612a598782880161293a565b925050606085013567ffffffffffffffff811115612a7a57612a79613853565b5b612a86878288016128de565b91505092959194509250565b60008060408385031215612aa957612aa8613858565b5b6000612ab785828601612875565b9250506020612ac88582860161288a565b9150509250929050565b60008060408385031215612ae957612ae8613858565b5b6000612af785828601612875565b925050602083013567ffffffffffffffff811115612b1857612b17613853565b5b612b248582860161290c565b9150509250929050565b60008060408385031215612b4557612b44613858565b5b6000612b5385828601612875565b9250506020612b648582860161293a565b9150509250929050565b600060208284031215612b8457612b83613858565b5b6000612b928482850161289f565b91505092915050565b60008060408385031215612bb257612bb1613858565b5b6000612bc08582860161289f565b9250506020612bd185828601612875565b9150509250929050565b600060208284031215612bf157612bf0613858565b5b6000612bff848285016128b4565b91505092915050565b600060208284031215612c1e57612c1d613858565b5b6000612c2c848285016128c9565b91505092915050565b600060208284031215612c4b57612c4a613858565b5b6000612c598482850161293a565b91505092915050565b612c6b81613597565b82525050565b612c7a816135a9565b82525050565b612c89816135b5565b82525050565b6000612c9a8261343f565b612ca48185613455565b9350612cb4818560208601613624565b612cbd8161385d565b840191505092915050565b6000612cd38261344a565b612cdd8185613466565b9350612ced818560208601613624565b612cf68161385d565b840191505092915050565b6000612d0c8261344a565b612d168185613477565b9350612d26818560208601613624565b80840191505092915050565b6000612d3f602083613466565b9150612d4a8261386e565b602082019050919050565b6000612d62603283613466565b9150612d6d82613897565b604082019050919050565b6000612d85601c83613466565b9150612d90826138e6565b602082019050919050565b6000612da8602483613466565b9150612db38261390f565b604082019050919050565b6000612dcb601983613466565b9150612dd68261395e565b602082019050919050565b6000612dee602c83613466565b9150612df982613987565b604082019050919050565b6000612e11603883613466565b9150612e1c826139d6565b604082019050919050565b6000612e34602a83613466565b9150612e3f82613a25565b604082019050919050565b6000612e57602983613466565b9150612e6282613a74565b604082019050919050565b6000612e7a602e83613466565b9150612e8582613ac3565b604082019050919050565b6000612e9d602e83613466565b9150612ea882613b12565b604082019050919050565b6000612ec0602083613466565b9150612ecb82613b61565b602082019050919050565b6000612ee3603183613466565b9150612eee82613b8a565b604082019050919050565b6000612f06602c83613466565b9150612f1182613bd9565b604082019050919050565b6000612f29602983613466565b9150612f3482613c28565b604082019050919050565b6000612f4c602f83613466565b9150612f5782613c77565b604082019050919050565b6000612f6f602183613466565b9150612f7a82613cc6565b604082019050919050565b6000612f92603183613466565b9150612f9d82613d15565b604082019050919050565b6000612fb5601783613477565b9150612fc082613d64565b601782019050919050565b6000612fd8601183613477565b9150612fe382613d8d565b601182019050919050565b6000612ffb602f83613466565b915061300682613db6565b604082019050919050565b61301a8161360b565b82525050565b600061302c8285612d01565b91506130388284612d01565b91508190509392505050565b600061304f82612fa8565b915061305b8285612d01565b915061306682612fcb565b91506130728284612d01565b91508190509392505050565b60006020820190506130936000830184612c62565b92915050565b60006080820190506130ae6000830187612c62565b6130bb6020830186612c62565b6130c86040830185613011565b81810360608301526130da8184612c8f565b905095945050505050565b60006020820190506130fa6000830184612c71565b92915050565b60006020820190506131156000830184612c80565b92915050565b600060208201905081810360008301526131358184612cc8565b905092915050565b6000602082019050818103600083015261315681612d32565b9050919050565b6000602082019050818103600083015261317681612d55565b9050919050565b6000602082019050818103600083015261319681612d78565b9050919050565b600060208201905081810360008301526131b681612d9b565b9050919050565b600060208201905081810360008301526131d681612dbe565b9050919050565b600060208201905081810360008301526131f681612de1565b9050919050565b6000602082019050818103600083015261321681612e04565b9050919050565b6000602082019050818103600083015261323681612e27565b9050919050565b6000602082019050818103600083015261325681612e4a565b9050919050565b6000602082019050818103600083015261327681612e6d565b9050919050565b6000602082019050818103600083015261329681612e90565b9050919050565b600060208201905081810360008301526132b681612eb3565b9050919050565b600060208201905081810360008301526132d681612ed6565b9050919050565b600060208201905081810360008301526132f681612ef9565b9050919050565b6000602082019050818103600083015261331681612f1c565b9050919050565b6000602082019050818103600083015261333681612f3f565b9050919050565b6000602082019050818103600083015261335681612f62565b9050919050565b6000602082019050818103600083015261337681612f85565b9050919050565b6000602082019050818103600083015261339681612fee565b9050919050565b60006020820190506133b26000830184613011565b92915050565b60006133c26133d3565b90506133ce82826136b3565b919050565b6000604051905090565b600067ffffffffffffffff8211156133f8576133f761381a565b5b6134018261385d565b9050602081019050919050565b600067ffffffffffffffff8211156134295761342861381a565b5b6134328261385d565b9050602081019050919050565b600081519050919050565b600081519050919050565b600082825260208201905092915050565b600082825260208201905092915050565b600081905092915050565b600061348d8261360b565b91506134988361360b565b9250827fffffffffffffffffffffffffffffffffffffffffffffffffffffffffffffffff038211156134cd576134cc61375e565b5b828201905092915050565b60006134e38261360b565b91506134ee8361360b565b9250826134fe576134fd61378d565b5b828204905092915050565b60006135148261360b565b915061351f8361360b565b9250817fffffffffffffffffffffffffffffffffffffffffffffffffffffffffffffffff04831182151516156135585761355761375e565b5b828202905092915050565b600061356e8261360b565b91506135798361360b565b92508282101561358c5761358b61375e565b5b828203905092915050565b60006135a2826135eb565b9050919050565b60008115159050919050565b6000819050919050565b60007fffffffff0000000000000000000000000000000000000000000000000000000082169050919050565b600073ffffffffffffffffffffffffffffffffffffffff82169050919050565b6000819050919050565b82818337600083830152505050565b60005b83811015613642578082015181840152602081019050613627565b83811115613651576000848401525b50505050565b60006136628261360b565b915060008214156136765761367561375e565b5b600182039050919050565b6000600282049050600182168061369957607f821691505b602082108114156136ad576136ac6137bc565b5b50919050565b6136bc8261385d565b810181811067ffffffffffffffff821117156136db576136da61381a565b5b80604052505050565b60006136ef8261360b565b91507fffffffffffffffffffffffffffffffffffffffffffffffffffffffffffffffff8214156137225761372161375e565b5b600182019050919050565b60006137388261360b565b91506137438361360b565b9250826137535761375261378d565b5b828206905092915050565b7f4e487b7100000000000000000000000000000000000000000000000000000000600052601160045260246000fd5b7f4e487b7100000000000000000000000000000000000000000000000000000000600052601260045260246000fd5b7f4e487b7100000000000000000000000000000000000000000000000000000000600052602260045260246000fd5b7f4e487b7100000000000000000000000000000000000000000000000000000000600052603260045260246000fd5b7f4e487b7100000000000000000000000000000000000000000000000000000000600052604160045260246000fd5b600080fd5b600080fd5b600080fd5b600080fd5b6000601f19601f8301169050919050565b7f537472696e67733a20686578206c656e67746820696e73756666696369656e74600082015250565b7f4552433732313a207472616e7366657220746f206e6f6e20455243373231526560008201527f63656976657220696d706c656d656e7465720000000000000000000000000000602082015250565b7f4552433732313a20746f6b656e20616c7265616479206d696e74656400000000600082015250565b7f4552433732313a207472616e7366657220746f20746865207a65726f2061646460008201527f7265737300000000000000000000000000000000000000000000000000000000602082015250565b7f4552433732313a20617070726f766520746f2063616c6c657200000000000000600082015250565b7f4552433732313a206f70657261746f7220717565727920666f72206e6f6e657860008201527f697374656e7420746f6b656e0000000000000000000000000000000000000000602082015250565b7f4552433732313a20617070726f76652063616c6c6572206973206e6f74206f7760008201527f6e6572206e6f7220617070726f76656420666f7220616c6c0000000000000000602082015250565b7f4552433732313a2062616c616e636520717565727920666f7220746865207a6560008201527f726f206164647265737300000000000000000000000000000000000000000000602082015250565b7f4552433732313a206f776e657220717565727920666f72206e6f6e657869737460008201527f656e7420746f6b656e0000000000000000000000000000000000000000000000602082015250565b7f45524337323155524953746f726167653a2055524920736574206f66206e6f6e60008201527f6578697374656e7420746f6b656e000000000000000000000000000000000000602082015250565b7f496e697469616c697a61626c653a20636f6e747261637420697320616c72656160008201527f647920696e697469616c697a6564000000000000000000000000000000000000602082015250565b7f4552433732313a206d696e7420746f20746865207a65726f2061646472657373600082015250565b7f45524337323155524953746f726167653a2055524920717565727920666f722060008201527f6e6f6e6578697374656e7420746f6b656e000000000000000000000000000000602082015250565b7f4552433732313a20617070726f76656420717565727920666f72206e6f6e657860008201527f697374656e7420746f6b656e0000000000000000000000000000000000000000602082015250565b7f4552433732313a207472616e73666572206f6620746f6b656e2074686174206960008201527f73206e6f74206f776e0000000000000000000000000000000000000000000000602082015250565b7f4552433732314d657461646174613a2055524920717565727920666f72206e6f60008201527f6e6578697374656e7420746f6b656e0000000000000000000000000000000000602082015250565b7f4552433732313a20617070726f76616c20746f2063757272656e74206f776e6560008201527f7200000000000000000000000000000000000000000000000000000000000000602082015250565b7f4552433732313a207472616e736665722063616c6c6572206973206e6f74206f60008201527f776e6572206e6f7220617070726f766564000000000000000000000000000000602082015250565b7f416363657373436f6e74726f6c3a206163636f756e7420000000000000000000600082015250565b7f206973206d697373696e6720726f6c6520000000000000000000000000000000600082015250565b7f416363657373436f6e74726f6c3a2063616e206f6e6c792072656e6f756e636560008201527f20726f6c657320666f722073656c660000000000000000000000000000000000602082015250565b613e0e81613597565b8114613e1957600080fd5b50565b613e25816135a9565b8114613e3057600080fd5b50565b613e3c816135b5565b8114613e4757600080fd5b50565b613e53816135bf565b8114613e5e57600080fd5b50565b613e6a8161360b565b8114613e7557600080fd5b5056fea2646970667358221220a0ca55b4c0d80818e45e1adf802525f984434a800033b723eb2afc78a202c03264736f6c63430008060033",
  "linkReferences": {},
  "deployedLinkReferences": {}
}