{
  "_format": "hh-sol-artifact-1",
  "contractName": "MosaiqueERC721V1",
  "sourceName": "contracts/MosaiqueERC721V1.sol",
  "abi": [
    {
      "anonymous": false,
      "inputs": [
        {
          "indexed": true,
          "internalType": "address",
          "name": "owner",
          "type": "address"
        },
        {
          "indexed": true,
          "internalType": "address",
          "name": "approved",
          "type": "address"
        },
        {
          "indexed": true,
          "internalType": "uint256",
          "name": "tokenId",
          "type": "uint256"
        }
      ],
      "name": "Approval",
      "type": "event"
    },
    {
      "anonymous": false,
      "inputs": [
        {
          "indexed": true,
          "internalType": "address",
          "name": "owner",
          "type": "address"
        },
        {
          "indexed": true,
          "internalType": "address",
          "name": "operator",
          "type": "address"
        },
        {
          "indexed": false,
          "internalType": "bool",
          "name": "approved",
          "type": "bool"
        }
      ],
      "name": "ApprovalForAll",
      "type": "event"
    },
    {
      "anonymous": false,
      "inputs": [
        {
          "indexed": true,
          "internalType": "bytes32",
          "name": "role",
          "type": "bytes32"
        },
        {
          "indexed": true,
          "internalType": "bytes32",
          "name": "previousAdminRole",
          "type": "bytes32"
        },
        {
          "indexed": true,
          "internalType": "bytes32",
          "name": "newAdminRole",
          "type": "bytes32"
        }
      ],
      "name": "RoleAdminChanged",
      "type": "event"
    },
    {
      "anonymous": false,
      "inputs": [
        {
          "indexed": true,
          "internalType": "bytes32",
          "name": "role",
          "type": "bytes32"
        },
        {
          "indexed": true,
          "internalType": "address",
          "name": "account",
          "type": "address"
        },
        {
          "indexed": true,
          "internalType": "address",
          "name": "sender",
          "type": "address"
        }
      ],
      "name": "RoleGranted",
      "type": "event"
    },
    {
      "anonymous": false,
      "inputs": [
        {
          "indexed": true,
          "internalType": "bytes32",
          "name": "role",
          "type": "bytes32"
        },
        {
          "indexed": true,
          "internalType": "address",
          "name": "account",
          "type": "address"
        },
        {
          "indexed": true,
          "internalType": "address",
          "name": "sender",
          "type": "address"
        }
      ],
      "name": "RoleRevoked",
      "type": "event"
    },
    {
      "anonymous": false,
      "inputs": [
        {
          "indexed": true,
          "internalType": "address",
          "name": "from",
          "type": "address"
        },
        {
          "indexed": true,
          "internalType": "address",
          "name": "to",
          "type": "address"
        },
        {
          "indexed": true,
          "internalType": "uint256",
          "name": "tokenId",
          "type": "uint256"
        }
      ],
      "name": "Transfer",
      "type": "event"
    },
    {
      "inputs": [],
      "name": "DEFAULT_ADMIN_ROLE",
      "outputs": [
        {
          "internalType": "bytes32",
          "name": "",
          "type": "bytes32"
        }
      ],
      "stateMutability": "view",
      "type": "function"
    },
    {
      "inputs": [],
      "name": "MINTER_ROLE",
      "outputs": [
        {
          "internalType": "bytes32",
          "name": "",
          "type": "bytes32"
        }
      ],
      "stateMutability": "view",
      "type": "function"
    },
    {
      "inputs": [
        {
          "internalType": "address",
          "name": "to",
          "type": "address"
        },
        {
          "internalType": "uint256",
          "name": "tokenId",
          "type": "uint256"
        }
      ],
      "name": "approve",
      "outputs": [],
      "stateMutability": "nonpayable",
      "type": "function"
    },
    {
      "inputs": [
        {
          "internalType": "address",
          "name": "owner",
          "type": "address"
        }
      ],
      "name": "balanceOf",
      "outputs": [
        {
          "internalType": "uint256",
          "name": "",
          "type": "uint256"
        }
      ],
      "stateMutability": "view",
      "type": "function"
    },
    {
      "inputs": [
        {
          "internalType": "uint256",
          "name": "tokenId",
          "type": "uint256"
        }
      ],
      "name": "getApproved",
      "outputs": [
        {
          "internalType": "address",
          "name": "",
          "type": "address"
        }
      ],
      "stateMutability": "view",
      "type": "function"
    },
    {
      "inputs": [
        {
          "internalType": "bytes32",
          "name": "role",
          "type": "bytes32"
        }
      ],
      "name": "getRoleAdmin",
      "outputs": [
        {
          "internalType": "bytes32",
          "name": "",
          "type": "bytes32"
        }
      ],
      "stateMutability": "view",
      "type": "function"
    },
    {
      "inputs": [
        {
          "internalType": "bytes32",
          "name": "role",
          "type": "bytes32"
        },
        {
          "internalType": "address",
          "name": "account",
          "type": "address"
        }
      ],
      "name": "grantRole",
      "outputs": [],
      "stateMutability": "nonpayable",
      "type": "function"
    },
    {
      "inputs": [
        {
          "internalType": "bytes32",
          "name": "role",
          "type": "bytes32"
        },
        {
          "internalType": "address",
          "name": "account",
          "type": "address"
        }
      ],
      "name": "hasRole",
      "outputs": [
        {
          "internalType": "bool",
          "name": "",
          "type": "bool"
        }
      ],
      "stateMutability": "view",
      "type": "function"
    },
    {
      "inputs": [],
      "name": "initialize",
      "outputs": [],
      "stateMutability": "nonpayable",
      "type": "function"
    },
    {
      "inputs": [
        {
          "internalType": "address",
          "name": "owner",
          "type": "address"
        },
        {
          "internalType": "address",
          "name": "operator",
          "type": "address"
        }
      ],
      "name": "isApprovedForAll",
      "outputs": [
        {
          "internalType": "bool",
          "name": "",
          "type": "bool"
        }
      ],
      "stateMutability": "view",
      "type": "function"
    },
    {
      "inputs": [],
      "name": "name",
      "outputs": [
        {
          "internalType": "string",
          "name": "",
          "type": "string"
        }
      ],
      "stateMutability": "view",
      "type": "function"
    },
    {
      "inputs": [
        {
          "internalType": "uint256",
          "name": "tokenId",
          "type": "uint256"
        }
      ],
      "name": "ownerOf",
      "outputs": [
        {
          "internalType": "address",
          "name": "",
          "type": "address"
        }
      ],
      "stateMutability": "view",
      "type": "function"
    },
    {
      "inputs": [
        {
          "internalType": "bytes32",
          "name": "role",
          "type": "bytes32"
        },
        {
          "internalType": "address",
          "name": "account",
          "type": "address"
        }
      ],
      "name": "renounceRole",
      "outputs": [],
      "stateMutability": "nonpayable",
      "type": "function"
    },
    {
      "inputs": [
        {
          "internalType": "bytes32",
          "name": "role",
          "type": "bytes32"
        },
        {
          "internalType": "address",
          "name": "account",
          "type": "address"
        }
      ],
      "name": "revokeRole",
      "outputs": [],
      "stateMutability": "nonpayable",
      "type": "function"
    },
    {
      "inputs": [
        {
          "internalType": "address",
          "name": "to",
          "type": "address"
        },
        {
          "internalType": "string",
          "name": "_tokenURI",
          "type": "string"
        }
      ],
      "name": "safeMint",
      "outputs": [
        {
          "internalType": "uint256",
          "name": "tokenId",
          "type": "uint256"
        }
      ],
      "stateMutability": "nonpayable",
      "type": "function"
    },
    {
      "inputs": [
        {
          "internalType": "address",
          "name": "from",
          "type": "address"
        },
        {
          "internalType": "address",
          "name": "to",
          "type": "address"
        },
        {
          "internalType": "uint256",
          "name": "tokenId",
          "type": "uint256"
        }
      ],
      "name": "safeTransferFrom",
      "outputs": [],
      "stateMutability": "nonpayable",
      "type": "function"
    },
    {
      "inputs": [
        {
          "internalType": "address",
          "name": "from",
          "type": "address"
        },
        {
          "internalType": "address",
          "name": "to",
          "type": "address"
        },
        {
          "internalType": "uint256",
          "name": "tokenId",
          "type": "uint256"
        },
        {
          "internalType": "bytes",
          "name": "_data",
          "type": "bytes"
        }
      ],
      "name": "safeTransferFrom",
      "outputs": [],
      "stateMutability": "nonpayable",
      "type": "function"
    },
    {
      "inputs": [
        {
          "internalType": "address",
          "name": "operator",
          "type": "address"
        },
        {
          "internalType": "bool",
          "name": "approved",
          "type": "bool"
        }
      ],
      "name": "setApprovalForAll",
      "outputs": [],
      "stateMutability": "nonpayable",
      "type": "function"
    },
    {
      "inputs": [
        {
          "internalType": "address",
          "name": "minter",
          "type": "address"
        }
      ],
      "name": "setMinter",
      "outputs": [],
      "stateMutability": "nonpayable",
      "type": "function"
    },
    {
      "inputs": [
        {
          "internalType": "bytes4",
          "name": "interfaceId",
          "type": "bytes4"
        }
      ],
      "name": "supportsInterface",
      "outputs": [
        {
          "internalType": "bool",
          "name": "",
          "type": "bool"
        }
      ],
      "stateMutability": "view",
      "type": "function"
    },
    {
      "inputs": [],
      "name": "symbol",
      "outputs": [
        {
          "internalType": "string",
          "name": "",
          "type": "string"
        }
      ],
      "stateMutability": "view",
      "type": "function"
    },
    {
      "inputs": [
        {
          "internalType": "uint256",
          "name": "index",
          "type": "uint256"
        }
      ],
      "name": "tokenByIndex",
      "outputs": [
        {
          "internalType": "uint256",
          "name": "",
          "type": "uint256"
        }
      ],
      "stateMutability": "view",
      "type": "function"
    },
    {
      "inputs": [
        {
          "internalType": "address",
          "name": "owner",
          "type": "address"
        },
        {
          "internalType": "uint256",
          "name": "index",
          "type": "uint256"
        }
      ],
      "name": "tokenOfOwnerByIndex",
      "outputs": [
        {
          "internalType": "uint256",
          "name": "",
          "type": "uint256"
        }
      ],
      "stateMutability": "view",
      "type": "function"
    },
    {
      "inputs": [
        {
          "internalType": "uint256",
          "name": "tokenId",
          "type": "uint256"
        }
      ],
      "name": "tokenURI",
      "outputs": [
        {
          "internalType": "string",
          "name": "",
          "type": "string"
        }
      ],
      "stateMutability": "view",
      "type": "function"
    },
    {
      "inputs": [],
      "name": "totalSupply",
      "outputs": [
        {
          "internalType": "uint256",
          "name": "",
          "type": "uint256"
        }
      ],
      "stateMutability": "view",
      "type": "function"
    },
    {
      "inputs": [
        {
          "internalType": "address",
          "name": "from",
          "type": "address"
        },
        {
          "internalType": "address",
          "name": "to",
          "type": "address"
        },
        {
          "internalType": "uint256",
          "name": "tokenId",
          "type": "uint256"
        }
      ],
      "name": "transferFrom",
      "outputs": [],
      "stateMutability": "nonpayable",
      "type": "function"
    }
  ],
  "bytecode": "0x608060405234801561001057600080fd5b50614818806100206000396000f3fe608060405234801561001057600080fd5b506004361061018e5760003560e01c806370a08231116100de578063b88d4fde11610097578063d539139311610071578063d5391393146104b9578063d547741f146104d7578063e985e9c5146104f3578063fca3b5aa146105235761018e565b8063b88d4fde1461043d578063c87b56dd14610459578063d204c45e146104895761018e565b806370a082311461037b5780638129fc1c146103ab57806391d14854146103b557806395d89b41146103e5578063a217fddf14610403578063a22cb465146104215761018e565b8063248a9ca31161014b57806336568abe1161012557806336568abe146102e357806342842e0e146102ff5780634f6ccce71461031b5780636352211e1461034b5761018e565b8063248a9ca3146102675780632f2ff15d146102975780632f745c59146102b35761018e565b806301ffc9a71461019357806306fdde03146101c3578063081812fc146101e1578063095ea7b31461021157806318160ddd1461022d57806323b872dd1461024b575b600080fd5b6101ad60048036038101906101a891906133f2565b61053f565b6040516101ba9190613942565b60405180910390f35b6101cb610551565b6040516101d89190613978565b60405180910390f35b6101fb60048036038101906101f6919061344c565b6105e3565b60405161020891906138db565b60405180910390f35b61022b60048036038101906102269190613345565b610668565b005b610235610780565b6040516102429190613c3a565b60405180910390f35b610265600480360381019061026091906131d3565b61078d565b005b610281600480360381019061027c9190613385565b6107ed565b60405161028e919061395d565b60405180910390f35b6102b160048036038101906102ac91906133b2565b61080d565b005b6102cd60048036038101906102c89190613345565b610836565b6040516102da9190613c3a565b60405180910390f35b6102fd60048036038101906102f891906133b2565b6108db565b005b610319600480360381019061031491906131d3565b61095e565b005b6103356004803603810190610330919061344c565b61097e565b6040516103429190613c3a565b60405180910390f35b6103656004803603810190610360919061344c565b6109ef565b60405161037291906138db565b60405180910390f35b61039560048036038101906103909190613166565b610aa1565b6040516103a29190613c3a565b60405180910390f35b6103b3610b59565b005b6103cf60048036038101906103ca91906133b2565b610cca565b6040516103dc9190613942565b60405180910390f35b6103ed610d35565b6040516103fa9190613978565b60405180910390f35b61040b610dc7565b604051610418919061395d565b60405180910390f35b61043b600480360381019061043691906132a9565b610dce565b005b61045760048036038101906104529190613226565b610f4f565b005b610473600480360381019061046e919061344c565b610fb1565b6040516104809190613978565b60405180910390f35b6104a3600480360381019061049e91906132e9565b610fc3565b6040516104b09190613c3a565b60405180910390f35b6104c161103a565b6040516104ce919061395d565b60405180910390f35b6104f160048036038101906104ec91906133b2565b61105e565b005b61050d60048036038101906105089190613193565b611087565b60405161051a9190613942565b60405180910390f35b61053d60048036038101906105389190613166565b61111b565b005b600061054a8261115e565b9050919050565b60606097805461056090613f1e565b80601f016020809104026020016040519081016040528092919081815260200182805461058c90613f1e565b80156105d95780601f106105ae576101008083540402835291602001916105d9565b820191906000526020600020905b8154815290600101906020018083116105bc57829003601f168201915b5050505050905090565b60006105ee826111d8565b61062d576040517f08c379a000000000000000000000000000000000000000000000000000000000815260040161062490613b5a565b60405180910390fd5b609b600083815260200190815260200160002060009054906101000a900473ffffffffffffffffffffffffffffffffffffffff169050919050565b6000610673826109ef565b90508073ffffffffffffffffffffffffffffffffffffffff168373ffffffffffffffffffffffffffffffffffffffff1614156106e4576040517f08c379a00000000000000000000000000000000000000000000000000000000081526004016106db90613bba565b60405180910390fd5b8073ffffffffffffffffffffffffffffffffffffffff16610703611244565b73ffffffffffffffffffffffffffffffffffffffff16148061073257506107318161072c611244565b611087565b5b610771576040517f08c379a000000000000000000000000000000000000000000000000000000000815260040161076890613a7a565b60405180910390fd5b61077b838361124c565b505050565b600060fd80549050905090565b61079e610798611244565b82611305565b6107dd576040517f08c379a00000000000000000000000000000000000000000000000000000000081526004016107d490613bda565b60405180910390fd5b6107e88383836113e3565b505050565b600060656000838152602001908152602001600020600101549050919050565b610816826107ed565b61082781610822611244565b61163f565b61083183836116dc565b505050565b600061084183610aa1565b8210610882576040517f08c379a0000000000000000000000000000000000000000000000000000000008152600401610879906139ba565b60405180910390fd5b60fb60008473ffffffffffffffffffffffffffffffffffffffff1673ffffffffffffffffffffffffffffffffffffffff168152602001908152602001600020600083815260200190815260200160002054905092915050565b6108e3611244565b73ffffffffffffffffffffffffffffffffffffffff168173ffffffffffffffffffffffffffffffffffffffff1614610950576040517f08c379a000000000000000000000000000000000000000000000000000000000815260040161094790613c1a565b60405180910390fd5b61095a82826117bd565b5050565b61097983838360405180602001604052806000815250610f4f565b505050565b6000610988610780565b82106109c9576040517f08c379a00000000000000000000000000000000000000000000000000000000081526004016109c090613bfa565b60405180910390fd5b60fd82815481106109dd576109dc6140b7565b5b90600052602060002001549050919050565b6000806099600084815260200190815260200160002060009054906101000a900473ffffffffffffffffffffffffffffffffffffffff169050600073ffffffffffffffffffffffffffffffffffffffff168173ffffffffffffffffffffffffffffffffffffffff161415610a98576040517f08c379a0000000000000000000000000000000000000000000000000000000008152600401610a8f90613aba565b60405180910390fd5b80915050919050565b60008073ffffffffffffffffffffffffffffffffffffffff168273ffffffffffffffffffffffffffffffffffffffff161415610b12576040517f08c379a0000000000000000000000000000000000000000000000000000000008152600401610b0990613a9a565b60405180910390fd5b609a60008373ffffffffffffffffffffffffffffffffffffffff1673ffffffffffffffffffffffffffffffffffffffff168152602001908152602001600020549050919050565b600060019054906101000a900460ff1680610b7f575060008054906101000a900460ff16155b610bbe576040517f08c379a0000000000000000000000000000000000000000000000000000000008152600401610bb590613afa565b60405180910390fd5b60008060019054906101000a900460ff161590508015610c0e576001600060016101000a81548160ff02191690831515021790555060016000806101000a81548160ff0219169083151502179055505b610c1661189f565b610c1e611990565b610c326000801b610c2d611244565b611a81565b610ca66040518060400160405280600681526020017f4d6f7365696e00000000000000000000000000000000000000000000000000008152506040518060400160405280600681526020017f4d6f7365696e0000000000000000000000000000000000000000000000000000815250611a8f565b8015610cc75760008060016101000a81548160ff0219169083151502179055505b50565b60006065600084815260200190815260200160002060000160008373ffffffffffffffffffffffffffffffffffffffff1673ffffffffffffffffffffffffffffffffffffffff16815260200190815260200160002060009054906101000a900460ff16905092915050565b606060988054610d4490613f1e565b80601f0160208091040260200160405190810160405280929190818152602001828054610d7090613f1e565b8015610dbd5780601f10610d9257610100808354040283529160200191610dbd565b820191906000526020600020905b815481529060010190602001808311610da057829003601f168201915b5050505050905090565b6000801b81565b610dd6611244565b73ffffffffffffffffffffffffffffffffffffffff168273ffffffffffffffffffffffffffffffffffffffff161415610e44576040517f08c379a0000000000000000000000000000000000000000000000000000000008152600401610e3b90613a3a565b60405180910390fd5b80609c6000610e51611244565b73ffffffffffffffffffffffffffffffffffffffff1673ffffffffffffffffffffffffffffffffffffffff16815260200190815260200160002060008473ffffffffffffffffffffffffffffffffffffffff1673ffffffffffffffffffffffffffffffffffffffff16815260200190815260200160002060006101000a81548160ff0219169083151502179055508173ffffffffffffffffffffffffffffffffffffffff16610efe611244565b73ffffffffffffffffffffffffffffffffffffffff167f17307eab39ab6107e8899845ad3d59bd9653f200f220920489ca2b5937696c3183604051610f439190613942565b60405180910390a35050565b610f60610f5a611244565b83611305565b610f9f576040517f08c379a0000000000000000000000000000000000000000000000000000000008152600401610f9690613bda565b60405180910390fd5b610fab84848484611b98565b50505050565b6060610fbc82611bf4565b9050919050565b60007f9f2df0fed2c77648de5860a4cc508cd0818c85b8b8a1ab4ceeef8d981c8956a6610ff781610ff2611244565b61163f565b61100261012d611d46565b915061101e848360405180602001604052806000815250611d54565b6110288284611daf565b61103361012d611e23565b5092915050565b7f9f2df0fed2c77648de5860a4cc508cd0818c85b8b8a1ab4ceeef8d981c8956a681565b611067826107ed565b61107881611073611244565b61163f565b61108283836117bd565b505050565b6000609c60008473ffffffffffffffffffffffffffffffffffffffff1673ffffffffffffffffffffffffffffffffffffffff16815260200190815260200160002060008373ffffffffffffffffffffffffffffffffffffffff1673ffffffffffffffffffffffffffffffffffffffff16815260200190815260200160002060009054906101000a900460ff16905092915050565b6000801b6111308161112b611244565b61163f565b61115a7f9f2df0fed2c77648de5860a4cc508cd0818c85b8b8a1ab4ceeef8d981c8956a683611a81565b5050565b60007f780e9d63000000000000000000000000000000000000000000000000000000007bffffffffffffffffffffffffffffffffffffffffffffffffffffffff1916827bffffffffffffffffffffffffffffffffffffffffffffffffffffffff191614806111d157506111d082611e39565b5b9050919050565b60008073ffffffffffffffffffffffffffffffffffffffff166099600084815260200190815260200160002060009054906101000a900473ffffffffffffffffffffffffffffffffffffffff1673ffffffffffffffffffffffffffffffffffffffff1614159050919050565b600033905090565b81609b600083815260200190815260200160002060006101000a81548173ffffffffffffffffffffffffffffffffffffffff021916908373ffffffffffffffffffffffffffffffffffffffff160217905550808273ffffffffffffffffffffffffffffffffffffffff166112bf836109ef565b73ffffffffffffffffffffffffffffffffffffffff167f8c5be1e5ebec7d5bd14f71427d1e84f3dd0314c0f7b2291e5b200ac8c7c3b92560405160405180910390a45050565b6000611310826111d8565b61134f576040517f08c379a000000000000000000000000000000000000000000000000000000000815260040161134690613a5a565b60405180910390fd5b600061135a836109ef565b90508073ffffffffffffffffffffffffffffffffffffffff168473ffffffffffffffffffffffffffffffffffffffff1614806113c957508373ffffffffffffffffffffffffffffffffffffffff166113b1846105e3565b73ffffffffffffffffffffffffffffffffffffffff16145b806113da57506113d98185611087565b5b91505092915050565b8273ffffffffffffffffffffffffffffffffffffffff16611403826109ef565b73ffffffffffffffffffffffffffffffffffffffff1614611459576040517f08c379a000000000000000000000000000000000000000000000000000000000815260040161145090613b7a565b60405180910390fd5b600073ffffffffffffffffffffffffffffffffffffffff168273ffffffffffffffffffffffffffffffffffffffff1614156114c9576040517f08c379a00000000000000000000000000000000000000000000000000000000081526004016114c090613a1a565b60405180910390fd5b6114d4838383611f1b565b6114df60008261124c565b6001609a60008573ffffffffffffffffffffffffffffffffffffffff1673ffffffffffffffffffffffffffffffffffffffff168152602001908152602001600020600082825461152f9190613e00565b925050819055506001609a60008473ffffffffffffffffffffffffffffffffffffffff1673ffffffffffffffffffffffffffffffffffffffff16815260200190815260200160002060008282546115869190613d1f565b92505081905550816099600083815260200190815260200160002060006101000a81548173ffffffffffffffffffffffffffffffffffffffff021916908373ffffffffffffffffffffffffffffffffffffffff160217905550808273ffffffffffffffffffffffffffffffffffffffff168473ffffffffffffffffffffffffffffffffffffffff167fddf252ad1be2c89b69c2b068fc378daa952ba7f163c4a11628f55a4df523b3ef60405160405180910390a4505050565b6116498282610cca565b6116d85761166e8173ffffffffffffffffffffffffffffffffffffffff166014611f2b565b61167c8360001c6020611f2b565b60405160200161168d9291906138a1565b6040516020818303038152906040526040517f08c379a00000000000000000000000000000000000000000000000000000000081526004016116cf9190613978565b60405180910390fd5b5050565b6116e68282610cca565b6117b95760016065600084815260200190815260200160002060000160008373ffffffffffffffffffffffffffffffffffffffff1673ffffffffffffffffffffffffffffffffffffffff16815260200190815260200160002060006101000a81548160ff02191690831515021790555061175e611244565b73ffffffffffffffffffffffffffffffffffffffff168173ffffffffffffffffffffffffffffffffffffffff16837f2f8788117e7eff1d82e926ec794901d17c78024a50270940304540a733656f0d60405160405180910390a45b5050565b6117c78282610cca565b1561189b5760006065600084815260200190815260200160002060000160008373ffffffffffffffffffffffffffffffffffffffff1673ffffffffffffffffffffffffffffffffffffffff16815260200190815260200160002060006101000a81548160ff021916908315150217905550611840611244565b73ffffffffffffffffffffffffffffffffffffffff168173ffffffffffffffffffffffffffffffffffffffff16837ff6391f5c32d9c69d2a47ea670b442974b53935d1edc7fd64eb21e047a839171b60405160405180910390a45b5050565b600060019054906101000a900460ff16806118c5575060008054906101000a900460ff16155b611904576040517f08c379a00000000000000000000000000000000000000000000000000000000081526004016118fb90613afa565b60405180910390fd5b60008060019054906101000a900460ff161590508015611954576001600060016101000a81548160ff02191690831515021790555060016000806101000a81548160ff0219169083151502179055505b61195c612167565b611964612240565b61196c612319565b801561198d5760008060016101000a81548160ff0219169083151502179055505b50565b600060019054906101000a900460ff16806119b6575060008054906101000a900460ff16155b6119f5576040517f08c379a00000000000000000000000000000000000000000000000000000000081526004016119ec90613afa565b60405180910390fd5b60008060019054906101000a900460ff161590508015611a45576001600060016101000a81548160ff02191690831515021790555060016000806101000a81548160ff0219169083151502179055505b611a4d612167565b611a55612240565b611a5d6123f2565b8015611a7e5760008060016101000a81548160ff0219169083151502179055505b50565b611a8b82826116dc565b5050565b600060019054906101000a900460ff1680611ab5575060008054906101000a900460ff16155b611af4576040517f08c379a0000000000000000000000000000000000000000000000000000000008152600401611aeb90613afa565b60405180910390fd5b60008060019054906101000a900460ff161590508015611b44576001600060016101000a81548160ff02191690831515021790555060016000806101000a81548160ff0219169083151502179055505b8260979080519060200190611b5a929190612f65565b508160989080519060200190611b71929190612f65565b508015611b935760008060016101000a81548160ff0219169083151502179055505b505050565b611ba38484846113e3565b611baf848484846124cb565b611bee576040517f08c379a0000000000000000000000000000000000000000000000000000000008152600401611be5906139da565b60405180910390fd5b50505050565b6060611bff826111d8565b611c3e576040517f08c379a0000000000000000000000000000000000000000000000000000000008152600401611c3590613b3a565b60405180910390fd5b600060c960008481526020019081526020016000208054611c5e90613f1e565b80601f0160208091040260200160405190810160405280929190818152602001828054611c8a90613f1e565b8015611cd75780601f10611cac57610100808354040283529160200191611cd7565b820191906000526020600020905b815481529060010190602001808311611cba57829003601f168201915b505050505090506000611ce8612662565b9050600081511415611cfe578192505050611d41565b600082511115611d33578082604051602001611d1b92919061387d565b60405160208183030381529060405292505050611d41565b611d3c84612679565b925050505b919050565b600081600001549050919050565b611d5e8383612720565b611d6b60008484846124cb565b611daa576040517f08c379a0000000000000000000000000000000000000000000000000000000008152600401611da1906139da565b60405180910390fd5b505050565b611db8826111d8565b611df7576040517f08c379a0000000000000000000000000000000000000000000000000000000008152600401611dee90613ada565b60405180910390fd5b8060c960008481526020019081526020016000209080519060200190611e1e929190612f65565b505050565b6001816000016000828254019250508190555050565b60007f80ac58cd000000000000000000000000000000000000000000000000000000007bffffffffffffffffffffffffffffffffffffffffffffffffffffffff1916827bffffffffffffffffffffffffffffffffffffffffffffffffffffffff19161480611f0457507f5b5e139f000000000000000000000000000000000000000000000000000000007bffffffffffffffffffffffffffffffffffffffffffffffffffffffff1916827bffffffffffffffffffffffffffffffffffffffffffffffffffffffff1916145b80611f145750611f13826128ee565b5b9050919050565b611f26838383612968565b505050565b606060006002836002611f3e9190613da6565b611f489190613d1f565b67ffffffffffffffff811115611f6157611f606140e6565b5b6040519080825280601f01601f191660200182016040528015611f935781602001600182028036833780820191505090505b5090507f300000000000000000000000000000000000000000000000000000000000000081600081518110611fcb57611fca6140b7565b5b60200101907effffffffffffffffffffffffffffffffffffffffffffffffffffffffffffff1916908160001a9053507f78000000000000000000000000000000000000000000000000000000000000008160018151811061202f5761202e6140b7565b5b60200101907effffffffffffffffffffffffffffffffffffffffffffffffffffffffffffff1916908160001a9053506000600184600261206f9190613da6565b6120799190613d1f565b90505b6001811115612119577f3031323334353637383961626364656600000000000000000000000000000000600f8616601081106120bb576120ba6140b7565b5b1a60f81b8282815181106120d2576120d16140b7565b5b60200101907effffffffffffffffffffffffffffffffffffffffffffffffffffffffffffff1916908160001a905350600485901c94508061211290613ef4565b905061207c565b506000841461215d576040517f08c379a00000000000000000000000000000000000000000000000000000000081526004016121549061399a565b60405180910390fd5b8091505092915050565b600060019054906101000a900460ff168061218d575060008054906101000a900460ff16155b6121cc576040517f08c379a00000000000000000000000000000000000000000000000000000000081526004016121c390613afa565b60405180910390fd5b60008060019054906101000a900460ff16159050801561221c576001600060016101000a81548160ff02191690831515021790555060016000806101000a81548160ff0219169083151502179055505b801561223d5760008060016101000a81548160ff0219169083151502179055505b50565b600060019054906101000a900460ff1680612266575060008054906101000a900460ff16155b6122a5576040517f08c379a000000000000000000000000000000000000000000000000000000000815260040161229c90613afa565b60405180910390fd5b60008060019054906101000a900460ff1615905080156122f5576001600060016101000a81548160ff02191690831515021790555060016000806101000a81548160ff0219169083151502179055505b80156123165760008060016101000a81548160ff0219169083151502179055505b50565b600060019054906101000a900460ff168061233f575060008054906101000a900460ff16155b61237e576040517f08c379a000000000000000000000000000000000000000000000000000000000815260040161237590613afa565b60405180910390fd5b60008060019054906101000a900460ff1615905080156123ce576001600060016101000a81548160ff02191690831515021790555060016000806101000a81548160ff0219169083151502179055505b80156123ef5760008060016101000a81548160ff0219169083151502179055505b50565b600060019054906101000a900460ff1680612418575060008054906101000a900460ff16155b612457576040517f08c379a000000000000000000000000000000000000000000000000000000000815260040161244e90613afa565b60405180910390fd5b60008060019054906101000a900460ff1615905080156124a7576001600060016101000a81548160ff02191690831515021790555060016000806101000a81548160ff0219169083151502179055505b80156124c85760008060016101000a81548160ff0219169083151502179055505b50565b60006124ec8473ffffffffffffffffffffffffffffffffffffffff16612a7c565b15612655578373ffffffffffffffffffffffffffffffffffffffff1663150b7a02612515611244565b8786866040518563ffffffff1660e01b815260040161253794939291906138f6565b602060405180830381600087803b15801561255157600080fd5b505af192505050801561258257506040513d601f19601f8201168201806040525081019061257f919061341f565b60015b612605573d80600081146125b2576040519150601f19603f3d011682016040523d82523d6000602084013e6125b7565b606091505b506000815114156125fd576040517f08c379a00000000000000000000000000000000000000000000000000000000081526004016125f4906139da565b60405180910390fd5b805181602001fd5b63150b7a0260e01b7bffffffffffffffffffffffffffffffffffffffffffffffffffffffff1916817bffffffffffffffffffffffffffffffffffffffffffffffffffffffff19161491505061265a565b600190505b949350505050565b606060405180602001604052806000815250905090565b6060612684826111d8565b6126c3576040517f08c379a00000000000000000000000000000000000000000000000000000000081526004016126ba90613b9a565b60405180910390fd5b60006126cd612662565b905060008151116126ed5760405180602001604052806000815250612718565b806126f784612a8f565b60405160200161270892919061387d565b6040516020818303038152906040525b915050919050565b600073ffffffffffffffffffffffffffffffffffffffff168273ffffffffffffffffffffffffffffffffffffffff161415612790576040517f08c379a000000000000000000000000000000000000000000000000000000000815260040161278790613b1a565b60405180910390fd5b612799816111d8565b156127d9576040517f08c379a00000000000000000000000000000000000000000000000000000000081526004016127d0906139fa565b60405180910390fd5b6127e560008383611f1b565b6001609a60008473ffffffffffffffffffffffffffffffffffffffff1673ffffffffffffffffffffffffffffffffffffffff16815260200190815260200160002060008282546128359190613d1f565b92505081905550816099600083815260200190815260200160002060006101000a81548173ffffffffffffffffffffffffffffffffffffffff021916908373ffffffffffffffffffffffffffffffffffffffff160217905550808273ffffffffffffffffffffffffffffffffffffffff16600073ffffffffffffffffffffffffffffffffffffffff167fddf252ad1be2c89b69c2b068fc378daa952ba7f163c4a11628f55a4df523b3ef60405160405180910390a45050565b60007f7965db0b000000000000000000000000000000000000000000000000000000007bffffffffffffffffffffffffffffffffffffffffffffffffffffffff1916827bffffffffffffffffffffffffffffffffffffffffffffffffffffffff19161480612961575061296082612bf0565b5b9050919050565b612973838383612c5a565b600073ffffffffffffffffffffffffffffffffffffffff168373ffffffffffffffffffffffffffffffffffffffff1614156129b6576129b181612c5f565b6129f5565b8173ffffffffffffffffffffffffffffffffffffffff168373ffffffffffffffffffffffffffffffffffffffff16146129f4576129f38382612ca8565b5b5b600073ffffffffffffffffffffffffffffffffffffffff168273ffffffffffffffffffffffffffffffffffffffff161415612a3857612a3381612e15565b612a77565b8273ffffffffffffffffffffffffffffffffffffffff168273ffffffffffffffffffffffffffffffffffffffff1614612a7657612a758282612ee6565b5b5b505050565b600080823b905060008111915050919050565b60606000821415612ad7576040518060400160405280600181526020017f30000000000000000000000000000000000000000000000000000000000000008152509050612beb565b600082905060005b60008214612b09578080612af290613f81565b915050600a82612b029190613d75565b9150612adf565b60008167ffffffffffffffff811115612b2557612b246140e6565b5b6040519080825280601f01601f191660200182016040528015612b575781602001600182028036833780820191505090505b5090505b60008514612be457600182612b709190613e00565b9150600a85612b7f9190613fca565b6030612b8b9190613d1f565b60f81b818381518110612ba157612ba06140b7565b5b60200101907effffffffffffffffffffffffffffffffffffffffffffffffffffffffffffff1916908160001a905350600a85612bdd9190613d75565b9450612b5b565b8093505050505b919050565b60007f01ffc9a7000000000000000000000000000000000000000000000000000000007bffffffffffffffffffffffffffffffffffffffffffffffffffffffff1916827bffffffffffffffffffffffffffffffffffffffffffffffffffffffff1916149050919050565b505050565b60fd8054905060fe60008381526020019081526020016000208190555060fd81908060018154018082558091505060019003906000526020600020016000909190919091505550565b60006001612cb584610aa1565b612cbf9190613e00565b9050600060fc6000848152602001908152602001600020549050818114612da457600060fb60008673ffffffffffffffffffffffffffffffffffffffff1673ffffffffffffffffffffffffffffffffffffffff16815260200190815260200160002060008481526020019081526020016000205490508060fb60008773ffffffffffffffffffffffffffffffffffffffff1673ffffffffffffffffffffffffffffffffffffffff1681526020019081526020016000206000848152602001908152602001600020819055508160fc600083815260200190815260200160002081905550505b60fc60008481526020019081526020016000206000905560fb60008573ffffffffffffffffffffffffffffffffffffffff1673ffffffffffffffffffffffffffffffffffffffff16815260200190815260200160002060008381526020019081526020016000206000905550505050565b6000600160fd80549050612e299190613e00565b9050600060fe6000848152602001908152602001600020549050600060fd8381548110612e5957612e586140b7565b5b906000526020600020015490508060fd8381548110612e7b57612e7a6140b7565b5b90600052602060002001819055508160fe60008381526020019081526020016000208190555060fe60008581526020019081526020016000206000905560fd805480612eca57612ec9614088565b5b6001900381819060005260206000200160009055905550505050565b6000612ef183610aa1565b90508160fb60008573ffffffffffffffffffffffffffffffffffffffff1673ffffffffffffffffffffffffffffffffffffffff1681526020019081526020016000206000838152602001908152602001600020819055508060fc600084815260200190815260200160002081905550505050565b828054612f7190613f1e565b90600052602060002090601f016020900481019282612f935760008555612fda565b82601f10612fac57805160ff1916838001178555612fda565b82800160010185558215612fda579182015b82811115612fd9578251825591602001919060010190612fbe565b5b509050612fe79190612feb565b5090565b5b80821115613004576000816000905550600101612fec565b5090565b600061301b61301684613c7a565b613c55565b9050828152602081018484840111156130375761303661411a565b5b613042848285613eb2565b509392505050565b600061305d61305884613cab565b613c55565b9050828152602081018484840111156130795761307861411a565b5b613084848285613eb2565b509392505050565b60008135905061309b8161476f565b92915050565b6000813590506130b081614786565b92915050565b6000813590506130c58161479d565b92915050565b6000813590506130da816147b4565b92915050565b6000815190506130ef816147b4565b92915050565b600082601f83011261310a57613109614115565b5b813561311a848260208601613008565b91505092915050565b600082601f83011261313857613137614115565b5b813561314884826020860161304a565b91505092915050565b600081359050613160816147cb565b92915050565b60006020828403121561317c5761317b614124565b5b600061318a8482850161308c565b91505092915050565b600080604083850312156131aa576131a9614124565b5b60006131b88582860161308c565b92505060206131c98582860161308c565b9150509250929050565b6000806000606084860312156131ec576131eb614124565b5b60006131fa8682870161308c565b935050602061320b8682870161308c565b925050604061321c86828701613151565b9150509250925092565b600080600080608085870312156132405761323f614124565b5b600061324e8782880161308c565b945050602061325f8782880161308c565b935050604061327087828801613151565b925050606085013567ffffffffffffffff8111156132915761329061411f565b5b61329d878288016130f5565b91505092959194509250565b600080604083850312156132c0576132bf614124565b5b60006132ce8582860161308c565b92505060206132df858286016130a1565b9150509250929050565b60008060408385031215613300576132ff614124565b5b600061330e8582860161308c565b925050602083013567ffffffffffffffff81111561332f5761332e61411f565b5b61333b85828601613123565b9150509250929050565b6000806040838503121561335c5761335b614124565b5b600061336a8582860161308c565b925050602061337b85828601613151565b9150509250929050565b60006020828403121561339b5761339a614124565b5b60006133a9848285016130b6565b91505092915050565b600080604083850312156133c9576133c8614124565b5b60006133d7858286016130b6565b92505060206133e88582860161308c565b9150509250929050565b60006020828403121561340857613407614124565b5b6000613416848285016130cb565b91505092915050565b60006020828403121561343557613434614124565b5b6000613443848285016130e0565b91505092915050565b60006020828403121561346257613461614124565b5b600061347084828501613151565b91505092915050565b61348281613e34565b82525050565b61349181613e46565b82525050565b6134a081613e52565b82525050565b60006134b182613cdc565b6134bb8185613cf2565b93506134cb818560208601613ec1565b6134d481614129565b840191505092915050565b60006134ea82613ce7565b6134f48185613d03565b9350613504818560208601613ec1565b61350d81614129565b840191505092915050565b600061352382613ce7565b61352d8185613d14565b935061353d818560208601613ec1565b80840191505092915050565b6000613556602083613d03565b91506135618261413a565b602082019050919050565b6000613579602b83613d03565b915061358482614163565b604082019050919050565b600061359c603283613d03565b91506135a7826141b2565b604082019050919050565b60006135bf601c83613d03565b91506135ca82614201565b602082019050919050565b60006135e2602483613d03565b91506135ed8261422a565b604082019050919050565b6000613605601983613d03565b915061361082614279565b602082019050919050565b6000613628602c83613d03565b9150613633826142a2565b604082019050919050565b600061364b603883613d03565b9150613656826142f1565b604082019050919050565b600061366e602a83613d03565b915061367982614340565b604082019050919050565b6000613691602983613d03565b915061369c8261438f565b604082019050919050565b60006136b4602e83613d03565b91506136bf826143de565b604082019050919050565b60006136d7602e83613d03565b91506136e28261442d565b604082019050919050565b60006136fa602083613d03565b91506137058261447c565b602082019050919050565b600061371d603183613d03565b9150613728826144a5565b604082019050919050565b6000613740602c83613d03565b915061374b826144f4565b604082019050919050565b6000613763602983613d03565b915061376e82614543565b604082019050919050565b6000613786602f83613d03565b915061379182614592565b604082019050919050565b60006137a9602183613d03565b91506137b4826145e1565b604082019050919050565b60006137cc603183613d03565b91506137d782614630565b604082019050919050565b60006137ef602c83613d03565b91506137fa8261467f565b604082019050919050565b6000613812601783613d14565b915061381d826146ce565b601782019050919050565b6000613835601183613d14565b9150613840826146f7565b601182019050919050565b6000613858602f83613d03565b915061386382614720565b604082019050919050565b61387781613ea8565b82525050565b60006138898285613518565b91506138958284613518565b91508190509392505050565b60006138ac82613805565b91506138b88285613518565b91506138c382613828565b91506138cf8284613518565b91508190509392505050565b60006020820190506138f06000830184613479565b92915050565b600060808201905061390b6000830187613479565b6139186020830186613479565b613925604083018561386e565b818103606083015261393781846134a6565b905095945050505050565b60006020820190506139576000830184613488565b92915050565b60006020820190506139726000830184613497565b92915050565b6000602082019050818103600083015261399281846134df565b905092915050565b600060208201905081810360008301526139b381613549565b9050919050565b600060208201905081810360008301526139d38161356c565b9050919050565b600060208201905081810360008301526139f38161358f565b9050919050565b60006020820190508181036000830152613a13816135b2565b9050919050565b60006020820190508181036000830152613a33816135d5565b9050919050565b60006020820190508181036000830152613a53816135f8565b9050919050565b60006020820190508181036000830152613a738161361b565b9050919050565b60006020820190508181036000830152613a938161363e565b9050919050565b60006020820190508181036000830152613ab381613661565b9050919050565b60006020820190508181036000830152613ad381613684565b9050919050565b60006020820190508181036000830152613af3816136a7565b9050919050565b60006020820190508181036000830152613b13816136ca565b9050919050565b60006020820190508181036000830152613b33816136ed565b9050919050565b60006020820190508181036000830152613b5381613710565b9050919050565b60006020820190508181036000830152613b7381613733565b9050919050565b60006020820190508181036000830152613b9381613756565b9050919050565b60006020820190508181036000830152613bb381613779565b9050919050565b60006020820190508181036000830152613bd38161379c565b9050919050565b60006020820190508181036000830152613bf3816137bf565b9050919050565b60006020820190508181036000830152613c13816137e2565b9050919050565b60006020820190508181036000830152613c338161384b565b9050919050565b6000602082019050613c4f600083018461386e565b92915050565b6000613c5f613c70565b9050613c6b8282613f50565b919050565b6000604051905090565b600067ffffffffffffffff821115613c9557613c946140e6565b5b613c9e82614129565b9050602081019050919050565b600067ffffffffffffffff821115613cc657613cc56140e6565b5b613ccf82614129565b9050602081019050919050565b600081519050919050565b600081519050919050565b600082825260208201905092915050565b600082825260208201905092915050565b600081905092915050565b6000613d2a82613ea8565b9150613d3583613ea8565b9250827fffffffffffffffffffffffffffffffffffffffffffffffffffffffffffffffff03821115613d6a57613d69613ffb565b5b828201905092915050565b6000613d8082613ea8565b9150613d8b83613ea8565b925082613d9b57613d9a61402a565b5b828204905092915050565b6000613db182613ea8565b9150613dbc83613ea8565b9250817fffffffffffffffffffffffffffffffffffffffffffffffffffffffffffffffff0483118215151615613df557613df4613ffb565b5b828202905092915050565b6000613e0b82613ea8565b9150613e1683613ea8565b925082821015613e2957613e28613ffb565b5b828203905092915050565b6000613e3f82613e88565b9050919050565b60008115159050919050565b6000819050919050565b60007fffffffff0000000000000000000000000000000000000000000000000000000082169050919050565b600073ffffffffffffffffffffffffffffffffffffffff82169050919050565b6000819050919050565b82818337600083830152505050565b60005b83811015613edf578082015181840152602081019050613ec4565b83811115613eee576000848401525b50505050565b6000613eff82613ea8565b91506000821415613f1357613f12613ffb565b5b600182039050919050565b60006002820490506001821680613f3657607f821691505b60208210811415613f4a57613f49614059565b5b50919050565b613f5982614129565b810181811067ffffffffffffffff82111715613f7857613f776140e6565b5b80604052505050565b6000613f8c82613ea8565b91507fffffffffffffffffffffffffffffffffffffffffffffffffffffffffffffffff821415613fbf57613fbe613ffb565b5b600182019050919050565b6000613fd582613ea8565b9150613fe083613ea8565b925082613ff057613fef61402a565b5b828206905092915050565b7f4e487b7100000000000000000000000000000000000000000000000000000000600052601160045260246000fd5b7f4e487b7100000000000000000000000000000000000000000000000000000000600052601260045260246000fd5b7f4e487b7100000000000000000000000000000000000000000000000000000000600052602260045260246000fd5b7f4e487b7100000000000000000000000000000000000000000000000000000000600052603160045260246000fd5b7f4e487b7100000000000000000000000000000000000000000000000000000000600052603260045260246000fd5b7f4e487b7100000000000000000000000000000000000000000000000000000000600052604160045260246000fd5b600080fd5b600080fd5b600080fd5b600080fd5b6000601f19601f8301169050919050565b7f537472696e67733a20686578206c656e67746820696e73756666696369656e74600082015250565b7f455243373231456e756d657261626c653a206f776e657220696e646578206f7560008201527f74206f6620626f756e6473000000000000000000000000000000000000000000602082015250565b7f4552433732313a207472616e7366657220746f206e6f6e20455243373231526560008201527f63656976657220696d706c656d656e7465720000000000000000000000000000602082015250565b7f4552433732313a20746f6b656e20616c7265616479206d696e74656400000000600082015250565b7f4552433732313a207472616e7366657220746f20746865207a65726f2061646460008201527f7265737300000000000000000000000000000000000000000000000000000000602082015250565b7f4552433732313a20617070726f766520746f2063616c6c657200000000000000600082015250565b7f4552433732313a206f70657261746f7220717565727920666f72206e6f6e657860008201527f697374656e7420746f6b656e0000000000000000000000000000000000000000602082015250565b7f4552433732313a20617070726f76652063616c6c6572206973206e6f74206f7760008201527f6e6572206e6f7220617070726f76656420666f7220616c6c0000000000000000602082015250565b7f4552433732313a2062616c616e636520717565727920666f7220746865207a6560008201527f726f206164647265737300000000000000000000000000000000000000000000602082015250565b7f4552433732313a206f776e657220717565727920666f72206e6f6e657869737460008201527f656e7420746f6b656e0000000000000000000000000000000000000000000000602082015250565b7f45524337323155524953746f726167653a2055524920736574206f66206e6f6e60008201527f6578697374656e7420746f6b656e000000000000000000000000000000000000602082015250565b7f496e697469616c697a61626c653a20636f6e747261637420697320616c72656160008201527f647920696e697469616c697a6564000000000000000000000000000000000000602082015250565b7f4552433732313a206d696e7420746f20746865207a65726f2061646472657373600082015250565b7f45524337323155524953746f726167653a2055524920717565727920666f722060008201527f6e6f6e6578697374656e7420746f6b656e000000000000000000000000000000602082015250565b7f4552433732313a20617070726f76656420717565727920666f72206e6f6e657860008201527f697374656e7420746f6b656e0000000000000000000000000000000000000000602082015250565b7f4552433732313a207472616e73666572206f6620746f6b656e2074686174206960008201527f73206e6f74206f776e0000000000000000000000000000000000000000000000602082015250565b7f4552433732314d657461646174613a2055524920717565727920666f72206e6f60008201527f6e6578697374656e7420746f6b656e0000000000000000000000000000000000602082015250565b7f4552433732313a20617070726f76616c20746f2063757272656e74206f776e6560008201527f7200000000000000000000000000000000000000000000000000000000000000602082015250565b7f4552433732313a207472616e736665722063616c6c6572206973206e6f74206f60008201527f776e6572206e6f7220617070726f766564000000000000000000000000000000602082015250565b7f455243373231456e756d657261626c653a20676c6f62616c20696e646578206f60008201527f7574206f6620626f756e64730000000000000000000000000000000000000000602082015250565b7f416363657373436f6e74726f6c3a206163636f756e7420000000000000000000600082015250565b7f206973206d697373696e6720726f6c6520000000000000000000000000000000600082015250565b7f416363657373436f6e74726f6c3a2063616e206f6e6c792072656e6f756e636560008201527f20726f6c657320666f722073656c660000000000000000000000000000000000602082015250565b61477881613e34565b811461478357600080fd5b50565b61478f81613e46565b811461479a57600080fd5b50565b6147a681613e52565b81146147b157600080fd5b50565b6147bd81613e5c565b81146147c857600080fd5b50565b6147d481613ea8565b81146147df57600080fd5b5056fea2646970667358221220aeb991318cfdd726a2e486671bd5fa693bf4e852103c28a1f19167c8c3cfb74364736f6c63430008060033",
  "linkReferences": {},
  "deployedLinkReferences": {}
}