{
  "_format": "hh-sol-artifact-1",
  "contractName": "MosaiqueERC721V1",
  "sourceName": "contracts/MosaiqueERC721V1.sol",
  "abi": [
    {
      "anonymous": false,
      "inputs": [
        {
          "indexed": true,
          "internalType": "address",
          "name": "owner",
          "type": "address"
        },
        {
          "indexed": true,
          "internalType": "address",
          "name": "approved",
          "type": "address"
        },
        {
          "indexed": true,
          "internalType": "uint256",
          "name": "tokenId",
          "type": "uint256"
        }
      ],
      "name": "Approval",
      "type": "event"
    },
    {
      "anonymous": false,
      "inputs": [
        {
          "indexed": true,
          "internalType": "address",
          "name": "owner",
          "type": "address"
        },
        {
          "indexed": true,
          "internalType": "address",
          "name": "operator",
          "type": "address"
        },
        {
          "indexed": false,
          "internalType": "bool",
          "name": "approved",
          "type": "bool"
        }
      ],
      "name": "ApprovalForAll",
      "type": "event"
    },
    {
      "anonymous": false,
      "inputs": [
        {
          "indexed": true,
          "internalType": "bytes32",
          "name": "role",
          "type": "bytes32"
        },
        {
          "indexed": true,
          "internalType": "bytes32",
          "name": "previousAdminRole",
          "type": "bytes32"
        },
        {
          "indexed": true,
          "internalType": "bytes32",
          "name": "newAdminRole",
          "type": "bytes32"
        }
      ],
      "name": "RoleAdminChanged",
      "type": "event"
    },
    {
      "anonymous": false,
      "inputs": [
        {
          "indexed": true,
          "internalType": "bytes32",
          "name": "role",
          "type": "bytes32"
        },
        {
          "indexed": true,
          "internalType": "address",
          "name": "account",
          "type": "address"
        },
        {
          "indexed": true,
          "internalType": "address",
          "name": "sender",
          "type": "address"
        }
      ],
      "name": "RoleGranted",
      "type": "event"
    },
    {
      "anonymous": false,
      "inputs": [
        {
          "indexed": true,
          "internalType": "bytes32",
          "name": "role",
          "type": "bytes32"
        },
        {
          "indexed": true,
          "internalType": "address",
          "name": "account",
          "type": "address"
        },
        {
          "indexed": true,
          "internalType": "address",
          "name": "sender",
          "type": "address"
        }
      ],
      "name": "RoleRevoked",
      "type": "event"
    },
    {
      "anonymous": false,
      "inputs": [
        {
          "indexed": true,
          "internalType": "address",
          "name": "from",
          "type": "address"
        },
        {
          "indexed": true,
          "internalType": "address",
          "name": "to",
          "type": "address"
        },
        {
          "indexed": true,
          "internalType": "uint256",
          "name": "tokenId",
          "type": "uint256"
        }
      ],
      "name": "Transfer",
      "type": "event"
    },
    {
      "inputs": [],
      "name": "DEFAULT_ADMIN_ROLE",
      "outputs": [
        {
          "internalType": "bytes32",
          "name": "",
          "type": "bytes32"
        }
      ],
      "stateMutability": "view",
      "type": "function"
    },
    {
      "inputs": [],
      "name": "MINTER_ROLE",
      "outputs": [
        {
          "internalType": "bytes32",
          "name": "",
          "type": "bytes32"
        }
      ],
      "stateMutability": "view",
      "type": "function"
    },
    {
      "inputs": [
        {
          "internalType": "address",
          "name": "to",
          "type": "address"
        },
        {
          "internalType": "uint256",
          "name": "tokenId",
          "type": "uint256"
        }
      ],
      "name": "approve",
      "outputs": [],
      "stateMutability": "nonpayable",
      "type": "function"
    },
    {
      "inputs": [
        {
          "internalType": "address",
          "name": "owner",
          "type": "address"
        }
      ],
      "name": "balanceOf",
      "outputs": [
        {
          "internalType": "uint256",
          "name": "",
          "type": "uint256"
        }
      ],
      "stateMutability": "view",
      "type": "function"
    },
    {
      "inputs": [
        {
          "internalType": "uint256",
          "name": "tokenId",
          "type": "uint256"
        }
      ],
      "name": "getApproved",
      "outputs": [
        {
          "internalType": "address",
          "name": "",
          "type": "address"
        }
      ],
      "stateMutability": "view",
      "type": "function"
    },
    {
      "inputs": [
        {
          "internalType": "bytes32",
          "name": "role",
          "type": "bytes32"
        }
      ],
      "name": "getRoleAdmin",
      "outputs": [
        {
          "internalType": "bytes32",
          "name": "",
          "type": "bytes32"
        }
      ],
      "stateMutability": "view",
      "type": "function"
    },
    {
      "inputs": [
        {
          "internalType": "bytes32",
          "name": "role",
          "type": "bytes32"
        },
        {
          "internalType": "address",
          "name": "account",
          "type": "address"
        }
      ],
      "name": "grantRole",
      "outputs": [],
      "stateMutability": "nonpayable",
      "type": "function"
    },
    {
      "inputs": [
        {
          "internalType": "bytes32",
          "name": "role",
          "type": "bytes32"
        },
        {
          "internalType": "address",
          "name": "account",
          "type": "address"
        }
      ],
      "name": "hasRole",
      "outputs": [
        {
          "internalType": "bool",
          "name": "",
          "type": "bool"
        }
      ],
      "stateMutability": "view",
      "type": "function"
    },
    {
      "inputs": [],
      "name": "initialize",
      "outputs": [],
      "stateMutability": "nonpayable",
      "type": "function"
    },
    {
      "inputs": [
        {
          "internalType": "address",
          "name": "owner",
          "type": "address"
        },
        {
          "internalType": "address",
          "name": "operator",
          "type": "address"
        }
      ],
      "name": "isApprovedForAll",
      "outputs": [
        {
          "internalType": "bool",
          "name": "",
          "type": "bool"
        }
      ],
      "stateMutability": "view",
      "type": "function"
    },
    {
      "inputs": [],
      "name": "name",
      "outputs": [
        {
          "internalType": "string",
          "name": "",
          "type": "string"
        }
      ],
      "stateMutability": "view",
      "type": "function"
    },
    {
      "inputs": [
        {
          "internalType": "uint256",
          "name": "tokenId",
          "type": "uint256"
        }
      ],
      "name": "ownerOf",
      "outputs": [
        {
          "internalType": "address",
          "name": "",
          "type": "address"
        }
      ],
      "stateMutability": "view",
      "type": "function"
    },
    {
      "inputs": [
        {
          "internalType": "bytes32",
          "name": "role",
          "type": "bytes32"
        },
        {
          "internalType": "address",
          "name": "account",
          "type": "address"
        }
      ],
      "name": "renounceRole",
      "outputs": [],
      "stateMutability": "nonpayable",
      "type": "function"
    },
    {
      "inputs": [
        {
          "internalType": "bytes32",
          "name": "role",
          "type": "bytes32"
        },
        {
          "internalType": "address",
          "name": "account",
          "type": "address"
        }
      ],
      "name": "revokeRole",
      "outputs": [],
      "stateMutability": "nonpayable",
      "type": "function"
    },
    {
      "inputs": [
        {
          "internalType": "address",
          "name": "to",
          "type": "address"
        },
        {
          "internalType": "string",
          "name": "_tokenURI",
          "type": "string"
        }
      ],
      "name": "safeMint",
      "outputs": [
        {
          "internalType": "uint256",
          "name": "tokenId",
          "type": "uint256"
        }
      ],
      "stateMutability": "nonpayable",
      "type": "function"
    },
    {
      "inputs": [
        {
          "internalType": "address",
          "name": "from",
          "type": "address"
        },
        {
          "internalType": "address",
          "name": "to",
          "type": "address"
        },
        {
          "internalType": "uint256",
          "name": "tokenId",
          "type": "uint256"
        }
      ],
      "name": "safeTransferFrom",
      "outputs": [],
      "stateMutability": "nonpayable",
      "type": "function"
    },
    {
      "inputs": [
        {
          "internalType": "address",
          "name": "from",
          "type": "address"
        },
        {
          "internalType": "address",
          "name": "to",
          "type": "address"
        },
        {
          "internalType": "uint256",
          "name": "tokenId",
          "type": "uint256"
        },
        {
          "internalType": "bytes",
          "name": "_data",
          "type": "bytes"
        }
      ],
      "name": "safeTransferFrom",
      "outputs": [],
      "stateMutability": "nonpayable",
      "type": "function"
    },
    {
      "inputs": [
        {
          "internalType": "address",
          "name": "operator",
          "type": "address"
        },
        {
          "internalType": "bool",
          "name": "approved",
          "type": "bool"
        }
      ],
      "name": "setApprovalForAll",
      "outputs": [],
      "stateMutability": "nonpayable",
      "type": "function"
    },
    {
      "inputs": [
        {
          "internalType": "address",
          "name": "minter",
          "type": "address"
        }
      ],
      "name": "setMinter",
      "outputs": [],
      "stateMutability": "nonpayable",
      "type": "function"
    },
    {
      "inputs": [
        {
          "internalType": "bytes4",
          "name": "interfaceId",
          "type": "bytes4"
        }
      ],
      "name": "supportsInterface",
      "outputs": [
        {
          "internalType": "bool",
          "name": "",
          "type": "bool"
        }
      ],
      "stateMutability": "view",
      "type": "function"
    },
    {
      "inputs": [],
      "name": "symbol",
      "outputs": [
        {
          "internalType": "string",
          "name": "",
          "type": "string"
        }
      ],
      "stateMutability": "view",
      "type": "function"
    },
    {
      "inputs": [
        {
          "internalType": "uint256",
          "name": "tokenId",
          "type": "uint256"
        }
      ],
      "name": "tokenURI",
      "outputs": [
        {
          "internalType": "string",
          "name": "",
          "type": "string"
        }
      ],
      "stateMutability": "view",
      "type": "function"
    },
    {
      "inputs": [
        {
          "internalType": "address",
          "name": "from",
          "type": "address"
        },
        {
          "internalType": "address",
          "name": "to",
          "type": "address"
        },
        {
          "internalType": "uint256",
          "name": "tokenId",
          "type": "uint256"
        }
      ],
      "name": "transferFrom",
      "outputs": [],
      "stateMutability": "nonpayable",
      "type": "function"
    }
  ],
  "bytecode": "0x608060405234801561001057600080fd5b50613e0a806100206000396000f3fe608060405234801561001057600080fd5b506004361061014d5760003560e01c80638129fc1c116100c3578063c87b56dd1161007c578063c87b56dd1461039a578063d204c45e146103ca578063d5391393146103fa578063d547741f14610418578063e985e9c514610434578063fca3b5aa146104645761014d565b80638129fc1c146102ec57806391d14854146102f657806395d89b4114610326578063a217fddf14610344578063a22cb46514610362578063b88d4fde1461037e5761014d565b8063248a9ca311610115578063248a9ca3146102085780632f2ff15d1461023857806336568abe1461025457806342842e0e146102705780636352211e1461028c57806370a08231146102bc5761014d565b806301ffc9a71461015257806306fdde0314610182578063081812fc146101a0578063095ea7b3146101d057806323b872dd146101ec575b600080fd5b61016c60048036038101906101679190612ca9565b610480565b6040516101799190613642565b60405180910390f35b61018a610492565b6040516101979190613678565b60405180910390f35b6101ba60048036038101906101b59190612cfb565b610524565b6040516101c791906135db565b60405180910390f35b6101ea60048036038101906101e59190612c08565b6105a9565b005b61020660048036038101906102019190612aae565b6106c1565b005b610222600480360381019061021d9190612c44565b610721565b60405161022f919061365d565b60405180910390f35b610252600480360381019061024d9190612c6d565b610741565b005b61026e60048036038101906102699190612c6d565b61076a565b005b61028a60048036038101906102859190612aae565b6107ed565b005b6102a660048036038101906102a19190612cfb565b61080d565b6040516102b391906135db565b60405180910390f35b6102d660048036038101906102d19190612a49565b6108bf565b6040516102e391906138fa565b60405180910390f35b6102f4610977565b005b610310600480360381019061030b9190612c6d565b610a74565b60405161031d9190613642565b60405180910390f35b61032e610adf565b60405161033b9190613678565b60405180910390f35b61034c610b71565b604051610359919061365d565b60405180910390f35b61037c60048036038101906103779190612b78565b610b78565b005b61039860048036038101906103939190612afd565b610cf9565b005b6103b460048036038101906103af9190612cfb565b610d5b565b6040516103c19190613678565b60405180910390f35b6103e460048036038101906103df9190612bb4565b610ead565b6040516103f191906138fa565b60405180910390f35b610402610f22565b60405161040f919061365d565b60405180910390f35b610432600480360381019061042d9190612c6d565b610f46565b005b61044e60048036038101906104499190612a72565b610f6f565b60405161045b9190613642565b60405180910390f35b61047e60048036038101906104799190612a49565b611003565b005b600061048b82611046565b9050919050565b6060609780546104a190613be8565b80601f01602080910402602001604051908101604052809291908181526020018280546104cd90613be8565b801561051a5780601f106104ef5761010080835404028352916020019161051a565b820191906000526020600020905b8154815290600101906020018083116104fd57829003601f168201915b5050505050905090565b600061052f82611128565b61056e576040517f08c379a00000000000000000000000000000000000000000000000000000000081526004016105659061383a565b60405180910390fd5b609b600083815260200190815260200160002060009054906101000a900473ffffffffffffffffffffffffffffffffffffffff169050919050565b60006105b48261080d565b90508073ffffffffffffffffffffffffffffffffffffffff168373ffffffffffffffffffffffffffffffffffffffff161415610625576040517f08c379a000000000000000000000000000000000000000000000000000000000815260040161061c9061389a565b60405180910390fd5b8073ffffffffffffffffffffffffffffffffffffffff16610644611194565b73ffffffffffffffffffffffffffffffffffffffff16148061067357506106728161066d611194565b610f6f565b5b6106b2576040517f08c379a00000000000000000000000000000000000000000000000000000000081526004016106a99061375a565b60405180910390fd5b6106bc838361119c565b505050565b6106d26106cc611194565b82611255565b610711576040517f08c379a0000000000000000000000000000000000000000000000000000000008152600401610708906138ba565b60405180910390fd5b61071c838383611333565b505050565b600060656000838152602001908152602001600020600101549050919050565b61074a82610721565b61075b81610756611194565b61158f565b610765838361162c565b505050565b610772611194565b73ffffffffffffffffffffffffffffffffffffffff168173ffffffffffffffffffffffffffffffffffffffff16146107df576040517f08c379a00000000000000000000000000000000000000000000000000000000081526004016107d6906138da565b60405180910390fd5b6107e9828261170d565b5050565b61080883838360405180602001604052806000815250610cf9565b505050565b6000806099600084815260200190815260200160002060009054906101000a900473ffffffffffffffffffffffffffffffffffffffff169050600073ffffffffffffffffffffffffffffffffffffffff168173ffffffffffffffffffffffffffffffffffffffff1614156108b6576040517f08c379a00000000000000000000000000000000000000000000000000000000081526004016108ad9061379a565b60405180910390fd5b80915050919050565b60008073ffffffffffffffffffffffffffffffffffffffff168273ffffffffffffffffffffffffffffffffffffffff161415610930576040517f08c379a00000000000000000000000000000000000000000000000000000000081526004016109279061377a565b60405180910390fd5b609a60008373ffffffffffffffffffffffffffffffffffffffff1673ffffffffffffffffffffffffffffffffffffffff168152602001908152602001600020549050919050565b600060019054906101000a900460ff168061099d575060008054906101000a900460ff16155b6109dc576040517f08c379a00000000000000000000000000000000000000000000000000000000081526004016109d3906137da565b60405180910390fd5b60008060019054906101000a900460ff161590508015610a2c576001600060016101000a81548160ff02191690831515021790555060016000806101000a81548160ff0219169083151502179055505b610a346117ef565b610a3c6118e0565b610a506000801b610a4b611194565b6119d1565b8015610a715760008060016101000a81548160ff0219169083151502179055505b50565b60006065600084815260200190815260200160002060000160008373ffffffffffffffffffffffffffffffffffffffff1673ffffffffffffffffffffffffffffffffffffffff16815260200190815260200160002060009054906101000a900460ff16905092915050565b606060988054610aee90613be8565b80601f0160208091040260200160405190810160405280929190818152602001828054610b1a90613be8565b8015610b675780601f10610b3c57610100808354040283529160200191610b67565b820191906000526020600020905b815481529060010190602001808311610b4a57829003601f168201915b5050505050905090565b6000801b81565b610b80611194565b73ffffffffffffffffffffffffffffffffffffffff168273ffffffffffffffffffffffffffffffffffffffff161415610bee576040517f08c379a0000000000000000000000000000000000000000000000000000000008152600401610be59061371a565b60405180910390fd5b80609c6000610bfb611194565b73ffffffffffffffffffffffffffffffffffffffff1673ffffffffffffffffffffffffffffffffffffffff16815260200190815260200160002060008473ffffffffffffffffffffffffffffffffffffffff1673ffffffffffffffffffffffffffffffffffffffff16815260200190815260200160002060006101000a81548160ff0219169083151502179055508173ffffffffffffffffffffffffffffffffffffffff16610ca8611194565b73ffffffffffffffffffffffffffffffffffffffff167f17307eab39ab6107e8899845ad3d59bd9653f200f220920489ca2b5937696c3183604051610ced9190613642565b60405180910390a35050565b610d0a610d04611194565b83611255565b610d49576040517f08c379a0000000000000000000000000000000000000000000000000000000008152600401610d40906138ba565b60405180910390fd5b610d55848484846119df565b50505050565b6060610d6682611128565b610da5576040517f08c379a0000000000000000000000000000000000000000000000000000000008152600401610d9c9061381a565b60405180910390fd5b600060c960008481526020019081526020016000208054610dc590613be8565b80601f0160208091040260200160405190810160405280929190818152602001828054610df190613be8565b8015610e3e5780601f10610e1357610100808354040283529160200191610e3e565b820191906000526020600020905b815481529060010190602001808311610e2157829003601f168201915b505050505090506000610e4f611a3b565b9050600081511415610e65578192505050610ea8565b600082511115610e9a578082604051602001610e8292919061357d565b60405160208183030381529060405292505050610ea8565b610ea384611a52565b925050505b919050565b60007f9f2df0fed2c77648de5860a4cc508cd0818c85b8b8a1ab4ceeef8d981c8956a6610ee181610edc611194565b61158f565b610eeb60fb611af9565b9150610f07848360405180602001604052806000815250611b07565b610f118284611b62565b610f1b60fb611bd6565b5092915050565b7f9f2df0fed2c77648de5860a4cc508cd0818c85b8b8a1ab4ceeef8d981c8956a681565b610f4f82610721565b610f6081610f5b611194565b61158f565b610f6a838361170d565b505050565b6000609c60008473ffffffffffffffffffffffffffffffffffffffff1673ffffffffffffffffffffffffffffffffffffffff16815260200190815260200160002060008373ffffffffffffffffffffffffffffffffffffffff1673ffffffffffffffffffffffffffffffffffffffff16815260200190815260200160002060009054906101000a900460ff16905092915050565b6000801b61101881611013611194565b61158f565b6110427f9f2df0fed2c77648de5860a4cc508cd0818c85b8b8a1ab4ceeef8d981c8956a6836119d1565b5050565b60007f80ac58cd000000000000000000000000000000000000000000000000000000007bffffffffffffffffffffffffffffffffffffffffffffffffffffffff1916827bffffffffffffffffffffffffffffffffffffffffffffffffffffffff1916148061111157507f5b5e139f000000000000000000000000000000000000000000000000000000007bffffffffffffffffffffffffffffffffffffffffffffffffffffffff1916827bffffffffffffffffffffffffffffffffffffffffffffffffffffffff1916145b80611121575061112082611bec565b5b9050919050565b60008073ffffffffffffffffffffffffffffffffffffffff166099600084815260200190815260200160002060009054906101000a900473ffffffffffffffffffffffffffffffffffffffff1673ffffffffffffffffffffffffffffffffffffffff1614159050919050565b600033905090565b81609b600083815260200190815260200160002060006101000a81548173ffffffffffffffffffffffffffffffffffffffff021916908373ffffffffffffffffffffffffffffffffffffffff160217905550808273ffffffffffffffffffffffffffffffffffffffff1661120f8361080d565b73ffffffffffffffffffffffffffffffffffffffff167f8c5be1e5ebec7d5bd14f71427d1e84f3dd0314c0f7b2291e5b200ac8c7c3b92560405160405180910390a45050565b600061126082611128565b61129f576040517f08c379a00000000000000000000000000000000000000000000000000000000081526004016112969061373a565b60405180910390fd5b60006112aa8361080d565b90508073ffffffffffffffffffffffffffffffffffffffff168473ffffffffffffffffffffffffffffffffffffffff16148061131957508373ffffffffffffffffffffffffffffffffffffffff1661130184610524565b73ffffffffffffffffffffffffffffffffffffffff16145b8061132a57506113298185610f6f565b5b91505092915050565b8273ffffffffffffffffffffffffffffffffffffffff166113538261080d565b73ffffffffffffffffffffffffffffffffffffffff16146113a9576040517f08c379a00000000000000000000000000000000000000000000000000000000081526004016113a09061385a565b60405180910390fd5b600073ffffffffffffffffffffffffffffffffffffffff168273ffffffffffffffffffffffffffffffffffffffff161415611419576040517f08c379a0000000000000000000000000000000000000000000000000000000008152600401611410906136fa565b60405180910390fd5b611424838383611c66565b61142f60008261119c565b6001609a60008573ffffffffffffffffffffffffffffffffffffffff1673ffffffffffffffffffffffffffffffffffffffff168152602001908152602001600020600082825461147f9190613aca565b925050819055506001609a60008473ffffffffffffffffffffffffffffffffffffffff1673ffffffffffffffffffffffffffffffffffffffff16815260200190815260200160002060008282546114d691906139e9565b92505081905550816099600083815260200190815260200160002060006101000a81548173ffffffffffffffffffffffffffffffffffffffff021916908373ffffffffffffffffffffffffffffffffffffffff160217905550808273ffffffffffffffffffffffffffffffffffffffff168473ffffffffffffffffffffffffffffffffffffffff167fddf252ad1be2c89b69c2b068fc378daa952ba7f163c4a11628f55a4df523b3ef60405160405180910390a4505050565b6115998282610a74565b611628576115be8173ffffffffffffffffffffffffffffffffffffffff166014611c6b565b6115cc8360001c6020611c6b565b6040516020016115dd9291906135a1565b6040516020818303038152906040526040517f08c379a000000000000000000000000000000000000000000000000000000000815260040161161f9190613678565b60405180910390fd5b5050565b6116368282610a74565b6117095760016065600084815260200190815260200160002060000160008373ffffffffffffffffffffffffffffffffffffffff1673ffffffffffffffffffffffffffffffffffffffff16815260200190815260200160002060006101000a81548160ff0219169083151502179055506116ae611194565b73ffffffffffffffffffffffffffffffffffffffff168173ffffffffffffffffffffffffffffffffffffffff16837f2f8788117e7eff1d82e926ec794901d17c78024a50270940304540a733656f0d60405160405180910390a45b5050565b6117178282610a74565b156117eb5760006065600084815260200190815260200160002060000160008373ffffffffffffffffffffffffffffffffffffffff1673ffffffffffffffffffffffffffffffffffffffff16815260200190815260200160002060006101000a81548160ff021916908315150217905550611790611194565b73ffffffffffffffffffffffffffffffffffffffff168173ffffffffffffffffffffffffffffffffffffffff16837ff6391f5c32d9c69d2a47ea670b442974b53935d1edc7fd64eb21e047a839171b60405160405180910390a45b5050565b600060019054906101000a900460ff1680611815575060008054906101000a900460ff16155b611854576040517f08c379a000000000000000000000000000000000000000000000000000000000815260040161184b906137da565b60405180910390fd5b60008060019054906101000a900460ff1615905080156118a4576001600060016101000a81548160ff02191690831515021790555060016000806101000a81548160ff0219169083151502179055505b6118ac611f65565b6118b461203e565b6118bc612117565b80156118dd5760008060016101000a81548160ff0219169083151502179055505b50565b600060019054906101000a900460ff1680611906575060008054906101000a900460ff16155b611945576040517f08c379a000000000000000000000000000000000000000000000000000000000815260040161193c906137da565b60405180910390fd5b60008060019054906101000a900460ff161590508015611995576001600060016101000a81548160ff02191690831515021790555060016000806101000a81548160ff0219169083151502179055505b61199d611f65565b6119a561203e565b6119ad6121f0565b80156119ce5760008060016101000a81548160ff0219169083151502179055505b50565b6119db828261162c565b5050565b6119ea848484611333565b6119f6848484846122c9565b611a35576040517f08c379a0000000000000000000000000000000000000000000000000000000008152600401611a2c906136ba565b60405180910390fd5b50505050565b606060405180602001604052806000815250905090565b6060611a5d82611128565b611a9c576040517f08c379a0000000000000000000000000000000000000000000000000000000008152600401611a939061387a565b60405180910390fd5b6000611aa6611a3b565b90506000815111611ac65760405180602001604052806000815250611af1565b80611ad084612460565b604051602001611ae192919061357d565b6040516020818303038152906040525b915050919050565b600081600001549050919050565b611b11838361260d565b611b1e60008484846122c9565b611b5d576040517f08c379a0000000000000000000000000000000000000000000000000000000008152600401611b54906136ba565b60405180910390fd5b505050565b611b6b82611128565b611baa576040517f08c379a0000000000000000000000000000000000000000000000000000000008152600401611ba1906137ba565b60405180910390fd5b8060c960008481526020019081526020016000209080519060200190611bd1929190612858565b505050565b6001816000016000828254019250508190555050565b60007f7965db0b000000000000000000000000000000000000000000000000000000007bffffffffffffffffffffffffffffffffffffffffffffffffffffffff1916827bffffffffffffffffffffffffffffffffffffffffffffffffffffffff19161480611c5f5750611c5e826127db565b5b9050919050565b505050565b606060006002836002611c7e9190613a70565b611c8891906139e9565b67ffffffffffffffff811115611cc7577f4e487b7100000000000000000000000000000000000000000000000000000000600052604160045260246000fd5b6040519080825280601f01601f191660200182016040528015611cf95781602001600182028036833780820191505090505b5090507f300000000000000000000000000000000000000000000000000000000000000081600081518110611d57577f4e487b7100000000000000000000000000000000000000000000000000000000600052603260045260246000fd5b60200101907effffffffffffffffffffffffffffffffffffffffffffffffffffffffffffff1916908160001a9053507f780000000000000000000000000000000000000000000000000000000000000081600181518110611de1577f4e487b7100000000000000000000000000000000000000000000000000000000600052603260045260246000fd5b60200101907effffffffffffffffffffffffffffffffffffffffffffffffffffffffffffff1916908160001a90535060006001846002611e219190613a70565b611e2b91906139e9565b90505b6001811115611f17577f3031323334353637383961626364656600000000000000000000000000000000600f861660108110611e93577f4e487b7100000000000000000000000000000000000000000000000000000000600052603260045260246000fd5b1a60f81b828281518110611ed0577f4e487b7100000000000000000000000000000000000000000000000000000000600052603260045260246000fd5b60200101907effffffffffffffffffffffffffffffffffffffffffffffffffffffffffffff1916908160001a905350600485901c945080611f1090613bbe565b9050611e2e565b5060008414611f5b576040517f08c379a0000000000000000000000000000000000000000000000000000000008152600401611f529061369a565b60405180910390fd5b8091505092915050565b600060019054906101000a900460ff1680611f8b575060008054906101000a900460ff16155b611fca576040517f08c379a0000000000000000000000000000000000000000000000000000000008152600401611fc1906137da565b60405180910390fd5b60008060019054906101000a900460ff16159050801561201a576001600060016101000a81548160ff02191690831515021790555060016000806101000a81548160ff0219169083151502179055505b801561203b5760008060016101000a81548160ff0219169083151502179055505b50565b600060019054906101000a900460ff1680612064575060008054906101000a900460ff16155b6120a3576040517f08c379a000000000000000000000000000000000000000000000000000000000815260040161209a906137da565b60405180910390fd5b60008060019054906101000a900460ff1615905080156120f3576001600060016101000a81548160ff02191690831515021790555060016000806101000a81548160ff0219169083151502179055505b80156121145760008060016101000a81548160ff0219169083151502179055505b50565b600060019054906101000a900460ff168061213d575060008054906101000a900460ff16155b61217c576040517f08c379a0000000000000000000000000000000000000000000000000000000008152600401612173906137da565b60405180910390fd5b60008060019054906101000a900460ff1615905080156121cc576001600060016101000a81548160ff02191690831515021790555060016000806101000a81548160ff0219169083151502179055505b80156121ed5760008060016101000a81548160ff0219169083151502179055505b50565b600060019054906101000a900460ff1680612216575060008054906101000a900460ff16155b612255576040517f08c379a000000000000000000000000000000000000000000000000000000000815260040161224c906137da565b60405180910390fd5b60008060019054906101000a900460ff1615905080156122a5576001600060016101000a81548160ff02191690831515021790555060016000806101000a81548160ff0219169083151502179055505b80156122c65760008060016101000a81548160ff0219169083151502179055505b50565b60006122ea8473ffffffffffffffffffffffffffffffffffffffff16612845565b15612453578373ffffffffffffffffffffffffffffffffffffffff1663150b7a02612313611194565b8786866040518563ffffffff1660e01b815260040161233594939291906135f6565b602060405180830381600087803b15801561234f57600080fd5b505af192505050801561238057506040513d601f19601f8201168201806040525081019061237d9190612cd2565b60015b612403573d80600081146123b0576040519150601f19603f3d011682016040523d82523d6000602084013e6123b5565b606091505b506000815114156123fb576040517f08c379a00000000000000000000000000000000000000000000000000000000081526004016123f2906136ba565b60405180910390fd5b805181602001fd5b63150b7a0260e01b7bffffffffffffffffffffffffffffffffffffffffffffffffffffffff1916817bffffffffffffffffffffffffffffffffffffffffffffffffffffffff191614915050612458565b600190505b949350505050565b606060008214156124a8576040518060400160405280600181526020017f30000000000000000000000000000000000000000000000000000000000000008152509050612608565b600082905060005b600082146124da5780806124c390613c1a565b915050600a826124d39190613a3f565b91506124b0565b60008167ffffffffffffffff81111561251c577f4e487b7100000000000000000000000000000000000000000000000000000000600052604160045260246000fd5b6040519080825280601f01601f19166020018201604052801561254e5781602001600182028036833780820191505090505b5090505b60008514612601576001826125679190613aca565b9150600a856125769190613c63565b603061258291906139e9565b60f81b8183815181106125be577f4e487b7100000000000000000000000000000000000000000000000000000000600052603260045260246000fd5b60200101907effffffffffffffffffffffffffffffffffffffffffffffffffffffffffffff1916908160001a905350600a856125fa9190613a3f565b9450612552565b8093505050505b919050565b600073ffffffffffffffffffffffffffffffffffffffff168273ffffffffffffffffffffffffffffffffffffffff16141561267d576040517f08c379a0000000000000000000000000000000000000000000000000000000008152600401612674906137fa565b60405180910390fd5b61268681611128565b156126c6576040517f08c379a00000000000000000000000000000000000000000000000000000000081526004016126bd906136da565b60405180910390fd5b6126d260008383611c66565b6001609a60008473ffffffffffffffffffffffffffffffffffffffff1673ffffffffffffffffffffffffffffffffffffffff168152602001908152602001600020600082825461272291906139e9565b92505081905550816099600083815260200190815260200160002060006101000a81548173ffffffffffffffffffffffffffffffffffffffff021916908373ffffffffffffffffffffffffffffffffffffffff160217905550808273ffffffffffffffffffffffffffffffffffffffff16600073ffffffffffffffffffffffffffffffffffffffff167fddf252ad1be2c89b69c2b068fc378daa952ba7f163c4a11628f55a4df523b3ef60405160405180910390a45050565b60007f01ffc9a7000000000000000000000000000000000000000000000000000000007bffffffffffffffffffffffffffffffffffffffffffffffffffffffff1916827bffffffffffffffffffffffffffffffffffffffffffffffffffffffff1916149050919050565b600080823b905060008111915050919050565b82805461286490613be8565b90600052602060002090601f01602090048101928261288657600085556128cd565b82601f1061289f57805160ff19168380011785556128cd565b828001600101855582156128cd579182015b828111156128cc5782518255916020019190600101906128b1565b5b5090506128da91906128de565b5090565b5b808211156128f75760008160009055506001016128df565b5090565b600061290e61290984613946565b613915565b90508281526020810184848401111561292657600080fd5b612931848285613b7c565b509392505050565b600061294c61294784613976565b613915565b90508281526020810184848401111561296457600080fd5b61296f848285613b7c565b509392505050565b60008135905061298681613d61565b92915050565b60008135905061299b81613d78565b92915050565b6000813590506129b081613d8f565b92915050565b6000813590506129c581613da6565b92915050565b6000815190506129da81613da6565b92915050565b600082601f8301126129f157600080fd5b8135612a018482602086016128fb565b91505092915050565b600082601f830112612a1b57600080fd5b8135612a2b848260208601612939565b91505092915050565b600081359050612a4381613dbd565b92915050565b600060208284031215612a5b57600080fd5b6000612a6984828501612977565b91505092915050565b60008060408385031215612a8557600080fd5b6000612a9385828601612977565b9250506020612aa485828601612977565b9150509250929050565b600080600060608486031215612ac357600080fd5b6000612ad186828701612977565b9350506020612ae286828701612977565b9250506040612af386828701612a34565b9150509250925092565b60008060008060808587031215612b1357600080fd5b6000612b2187828801612977565b9450506020612b3287828801612977565b9350506040612b4387828801612a34565b925050606085013567ffffffffffffffff811115612b6057600080fd5b612b6c878288016129e0565b91505092959194509250565b60008060408385031215612b8b57600080fd5b6000612b9985828601612977565b9250506020612baa8582860161298c565b9150509250929050565b60008060408385031215612bc757600080fd5b6000612bd585828601612977565b925050602083013567ffffffffffffffff811115612bf257600080fd5b612bfe85828601612a0a565b9150509250929050565b60008060408385031215612c1b57600080fd5b6000612c2985828601612977565b9250506020612c3a85828601612a34565b9150509250929050565b600060208284031215612c5657600080fd5b6000612c64848285016129a1565b91505092915050565b60008060408385031215612c8057600080fd5b6000612c8e858286016129a1565b9250506020612c9f85828601612977565b9150509250929050565b600060208284031215612cbb57600080fd5b6000612cc9848285016129b6565b91505092915050565b600060208284031215612ce457600080fd5b6000612cf2848285016129cb565b91505092915050565b600060208284031215612d0d57600080fd5b6000612d1b84828501612a34565b91505092915050565b612d2d81613afe565b82525050565b612d3c81613b10565b82525050565b612d4b81613b1c565b82525050565b6000612d5c826139a6565b612d6681856139bc565b9350612d76818560208601613b8b565b612d7f81613d50565b840191505092915050565b6000612d95826139b1565b612d9f81856139cd565b9350612daf818560208601613b8b565b612db881613d50565b840191505092915050565b6000612dce826139b1565b612dd881856139de565b9350612de8818560208601613b8b565b80840191505092915050565b6000612e016020836139cd565b91507f537472696e67733a20686578206c656e67746820696e73756666696369656e746000830152602082019050919050565b6000612e416032836139cd565b91507f4552433732313a207472616e7366657220746f206e6f6e20455243373231526560008301527f63656976657220696d706c656d656e74657200000000000000000000000000006020830152604082019050919050565b6000612ea7601c836139cd565b91507f4552433732313a20746f6b656e20616c7265616479206d696e746564000000006000830152602082019050919050565b6000612ee76024836139cd565b91507f4552433732313a207472616e7366657220746f20746865207a65726f2061646460008301527f72657373000000000000000000000000000000000000000000000000000000006020830152604082019050919050565b6000612f4d6019836139cd565b91507f4552433732313a20617070726f766520746f2063616c6c6572000000000000006000830152602082019050919050565b6000612f8d602c836139cd565b91507f4552433732313a206f70657261746f7220717565727920666f72206e6f6e657860008301527f697374656e7420746f6b656e00000000000000000000000000000000000000006020830152604082019050919050565b6000612ff36038836139cd565b91507f4552433732313a20617070726f76652063616c6c6572206973206e6f74206f7760008301527f6e6572206e6f7220617070726f76656420666f7220616c6c00000000000000006020830152604082019050919050565b6000613059602a836139cd565b91507f4552433732313a2062616c616e636520717565727920666f7220746865207a6560008301527f726f2061646472657373000000000000000000000000000000000000000000006020830152604082019050919050565b60006130bf6029836139cd565b91507f4552433732313a206f776e657220717565727920666f72206e6f6e657869737460008301527f656e7420746f6b656e00000000000000000000000000000000000000000000006020830152604082019050919050565b6000613125602e836139cd565b91507f45524337323155524953746f726167653a2055524920736574206f66206e6f6e60008301527f6578697374656e7420746f6b656e0000000000000000000000000000000000006020830152604082019050919050565b600061318b602e836139cd565b91507f496e697469616c697a61626c653a20636f6e747261637420697320616c72656160008301527f647920696e697469616c697a65640000000000000000000000000000000000006020830152604082019050919050565b60006131f16020836139cd565b91507f4552433732313a206d696e7420746f20746865207a65726f20616464726573736000830152602082019050919050565b60006132316031836139cd565b91507f45524337323155524953746f726167653a2055524920717565727920666f722060008301527f6e6f6e6578697374656e7420746f6b656e0000000000000000000000000000006020830152604082019050919050565b6000613297602c836139cd565b91507f4552433732313a20617070726f76656420717565727920666f72206e6f6e657860008301527f697374656e7420746f6b656e00000000000000000000000000000000000000006020830152604082019050919050565b60006132fd6029836139cd565b91507f4552433732313a207472616e73666572206f6620746f6b656e2074686174206960008301527f73206e6f74206f776e00000000000000000000000000000000000000000000006020830152604082019050919050565b6000613363602f836139cd565b91507f4552433732314d657461646174613a2055524920717565727920666f72206e6f60008301527f6e6578697374656e7420746f6b656e00000000000000000000000000000000006020830152604082019050919050565b60006133c96021836139cd565b91507f4552433732313a20617070726f76616c20746f2063757272656e74206f776e6560008301527f72000000000000000000000000000000000000000000000000000000000000006020830152604082019050919050565b600061342f6031836139cd565b91507f4552433732313a207472616e736665722063616c6c6572206973206e6f74206f60008301527f776e6572206e6f7220617070726f7665640000000000000000000000000000006020830152604082019050919050565b60006134956017836139de565b91507f416363657373436f6e74726f6c3a206163636f756e74200000000000000000006000830152601782019050919050565b60006134d56011836139de565b91507f206973206d697373696e6720726f6c65200000000000000000000000000000006000830152601182019050919050565b6000613515602f836139cd565b91507f416363657373436f6e74726f6c3a2063616e206f6e6c792072656e6f756e636560008301527f20726f6c657320666f722073656c6600000000000000000000000000000000006020830152604082019050919050565b61357781613b72565b82525050565b60006135898285612dc3565b91506135958284612dc3565b91508190509392505050565b60006135ac82613488565b91506135b88285612dc3565b91506135c3826134c8565b91506135cf8284612dc3565b91508190509392505050565b60006020820190506135f06000830184612d24565b92915050565b600060808201905061360b6000830187612d24565b6136186020830186612d24565b613625604083018561356e565b81810360608301526136378184612d51565b905095945050505050565b60006020820190506136576000830184612d33565b92915050565b60006020820190506136726000830184612d42565b92915050565b600060208201905081810360008301526136928184612d8a565b905092915050565b600060208201905081810360008301526136b381612df4565b9050919050565b600060208201905081810360008301526136d381612e34565b9050919050565b600060208201905081810360008301526136f381612e9a565b9050919050565b6000602082019050818103600083015261371381612eda565b9050919050565b6000602082019050818103600083015261373381612f40565b9050919050565b6000602082019050818103600083015261375381612f80565b9050919050565b6000602082019050818103600083015261377381612fe6565b9050919050565b600060208201905081810360008301526137938161304c565b9050919050565b600060208201905081810360008301526137b3816130b2565b9050919050565b600060208201905081810360008301526137d381613118565b9050919050565b600060208201905081810360008301526137f38161317e565b9050919050565b60006020820190508181036000830152613813816131e4565b9050919050565b6000602082019050818103600083015261383381613224565b9050919050565b600060208201905081810360008301526138538161328a565b9050919050565b60006020820190508181036000830152613873816132f0565b9050919050565b6000602082019050818103600083015261389381613356565b9050919050565b600060208201905081810360008301526138b3816133bc565b9050919050565b600060208201905081810360008301526138d381613422565b9050919050565b600060208201905081810360008301526138f381613508565b9050919050565b600060208201905061390f600083018461356e565b92915050565b6000604051905081810181811067ffffffffffffffff8211171561393c5761393b613d21565b5b8060405250919050565b600067ffffffffffffffff82111561396157613960613d21565b5b601f19601f8301169050602081019050919050565b600067ffffffffffffffff82111561399157613990613d21565b5b601f19601f8301169050602081019050919050565b600081519050919050565b600081519050919050565b600082825260208201905092915050565b600082825260208201905092915050565b600081905092915050565b60006139f482613b72565b91506139ff83613b72565b9250827fffffffffffffffffffffffffffffffffffffffffffffffffffffffffffffffff03821115613a3457613a33613c94565b5b828201905092915050565b6000613a4a82613b72565b9150613a5583613b72565b925082613a6557613a64613cc3565b5b828204905092915050565b6000613a7b82613b72565b9150613a8683613b72565b9250817fffffffffffffffffffffffffffffffffffffffffffffffffffffffffffffffff0483118215151615613abf57613abe613c94565b5b828202905092915050565b6000613ad582613b72565b9150613ae083613b72565b925082821015613af357613af2613c94565b5b828203905092915050565b6000613b0982613b52565b9050919050565b60008115159050919050565b6000819050919050565b60007fffffffff0000000000000000000000000000000000000000000000000000000082169050919050565b600073ffffffffffffffffffffffffffffffffffffffff82169050919050565b6000819050919050565b82818337600083830152505050565b60005b83811015613ba9578082015181840152602081019050613b8e565b83811115613bb8576000848401525b50505050565b6000613bc982613b72565b91506000821415613bdd57613bdc613c94565b5b600182039050919050565b60006002820490506001821680613c0057607f821691505b60208210811415613c1457613c13613cf2565b5b50919050565b6000613c2582613b72565b91507fffffffffffffffffffffffffffffffffffffffffffffffffffffffffffffffff821415613c5857613c57613c94565b5b600182019050919050565b6000613c6e82613b72565b9150613c7983613b72565b925082613c8957613c88613cc3565b5b828206905092915050565b7f4e487b7100000000000000000000000000000000000000000000000000000000600052601160045260246000fd5b7f4e487b7100000000000000000000000000000000000000000000000000000000600052601260045260246000fd5b7f4e487b7100000000000000000000000000000000000000000000000000000000600052602260045260246000fd5b7f4e487b7100000000000000000000000000000000000000000000000000000000600052604160045260246000fd5b6000601f19601f8301169050919050565b613d6a81613afe565b8114613d7557600080fd5b50565b613d8181613b10565b8114613d8c57600080fd5b50565b613d9881613b1c565b8114613da357600080fd5b50565b613daf81613b26565b8114613dba57600080fd5b50565b613dc681613b72565b8114613dd157600080fd5b5056fea264697066735822122076451888bbf21c6129b62ba21020735b3c860c545d65c8637496a8eef621286f64736f6c63430008000033",
  "linkReferences": {},
  "deployedLinkReferences": {}
}