{
  "_format": "hh-sol-artifact-1",
  "contractName": "MosaiqueV1",
  "sourceName": "contracts/MosaiqueV1.sol",
  "abi": [
    {
      "anonymous": false,
      "inputs": [
        {
          "indexed": false,
          "internalType": "bytes32",
          "name": "inscriptionNftMID",
          "type": "bytes32"
        }
      ],
      "name": "LogConsumedInscriptionNFT",
      "type": "event"
    },
    {
      "anonymous": false,
      "inputs": [
        {
          "indexed": false,
          "internalType": "bytes32",
          "name": "masterNftMID",
          "type": "bytes32"
        }
      ],
      "name": "LogCreatedSnapshotSupply",
      "type": "event"
    },
    {
      "anonymous": false,
      "inputs": [
        {
          "indexed": false,
          "internalType": "bytes32",
          "name": "nftMID",
          "type": "bytes32"
        }
      ],
      "name": "LogExhaustedSnapshotSupply",
      "type": "event"
    },
    {
      "anonymous": false,
      "inputs": [
        {
          "indexed": false,
          "internalType": "bytes32",
          "name": "masterNftMID",
          "type": "bytes32"
        },
        {
          "indexed": false,
          "internalType": "bytes32",
          "name": "newNftMID",
          "type": "bytes32"
        }
      ],
      "name": "LogMintedBlazonNFT",
      "type": "event"
    },
    {
      "anonymous": false,
      "inputs": [
        {
          "indexed": false,
          "internalType": "bytes32",
          "name": "masterNftMID",
          "type": "bytes32"
        },
        {
          "indexed": false,
          "internalType": "bytes32",
          "name": "newNftMID",
          "type": "bytes32"
        }
      ],
      "name": "LogMintedInscribedNFT",
      "type": "event"
    },
    {
      "anonymous": false,
      "inputs": [
        {
          "indexed": false,
          "internalType": "bytes32",
          "name": "masterNftMID",
          "type": "bytes32"
        },
        {
          "indexed": false,
          "internalType": "bytes32",
          "name": "newNftMID",
          "type": "bytes32"
        },
        {
          "indexed": false,
          "internalType": "uint256",
          "name": "count",
          "type": "uint256"
        }
      ],
      "name": "LogMintedSnapshot",
      "type": "event"
    },
    {
      "anonymous": false,
      "inputs": [
        {
          "indexed": false,
          "internalType": "address",
          "name": "sourceNftContract",
          "type": "address"
        },
        {
          "indexed": false,
          "internalType": "uint256",
          "name": "sourceTokenId",
          "type": "uint256"
        },
        {
          "indexed": false,
          "internalType": "address",
          "name": "newNftContract",
          "type": "address"
        },
        {
          "indexed": false,
          "internalType": "uint256",
          "name": "newTokenId",
          "type": "uint256"
        }
      ],
      "name": "LogNFTCopied",
      "type": "event"
    },
    {
      "anonymous": false,
      "inputs": [
        {
          "indexed": false,
          "internalType": "address",
          "name": "nftContract",
          "type": "address"
        },
        {
          "indexed": false,
          "internalType": "uint256",
          "name": "tokenId",
          "type": "uint256"
        }
      ],
      "name": "LogNFTLocked",
      "type": "event"
    },
    {
      "anonymous": false,
      "inputs": [
        {
          "indexed": false,
          "internalType": "address",
          "name": "nftContract",
          "type": "address"
        },
        {
          "indexed": false,
          "internalType": "address",
          "name": "from",
          "type": "address"
        },
        {
          "indexed": false,
          "internalType": "uint256",
          "name": "tokenId",
          "type": "uint256"
        },
        {
          "indexed": false,
          "internalType": "bytes",
          "name": "data",
          "type": "bytes"
        }
      ],
      "name": "LogNFTReceived",
      "type": "event"
    },
    {
      "anonymous": false,
      "inputs": [
        {
          "indexed": false,
          "internalType": "address",
          "name": "nftContract",
          "type": "address"
        },
        {
          "indexed": false,
          "internalType": "address",
          "name": "from",
          "type": "address"
        },
        {
          "indexed": false,
          "internalType": "uint256",
          "name": "tokenId",
          "type": "uint256"
        }
      ],
      "name": "LogNFTUnlocked",
      "type": "event"
    },
    {
      "anonymous": false,
      "inputs": [
        {
          "indexed": false,
          "internalType": "address",
          "name": "account",
          "type": "address"
        }
      ],
      "name": "Paused",
      "type": "event"
    },
    {
      "anonymous": false,
      "inputs": [
        {
          "indexed": true,
          "internalType": "bytes32",
          "name": "role",
          "type": "bytes32"
        },
        {
          "indexed": true,
          "internalType": "bytes32",
          "name": "previousAdminRole",
          "type": "bytes32"
        },
        {
          "indexed": true,
          "internalType": "bytes32",
          "name": "newAdminRole",
          "type": "bytes32"
        }
      ],
      "name": "RoleAdminChanged",
      "type": "event"
    },
    {
      "anonymous": false,
      "inputs": [
        {
          "indexed": true,
          "internalType": "bytes32",
          "name": "role",
          "type": "bytes32"
        },
        {
          "indexed": true,
          "internalType": "address",
          "name": "account",
          "type": "address"
        },
        {
          "indexed": true,
          "internalType": "address",
          "name": "sender",
          "type": "address"
        }
      ],
      "name": "RoleGranted",
      "type": "event"
    },
    {
      "anonymous": false,
      "inputs": [
        {
          "indexed": true,
          "internalType": "bytes32",
          "name": "role",
          "type": "bytes32"
        },
        {
          "indexed": true,
          "internalType": "address",
          "name": "account",
          "type": "address"
        },
        {
          "indexed": true,
          "internalType": "address",
          "name": "sender",
          "type": "address"
        }
      ],
      "name": "RoleRevoked",
      "type": "event"
    },
    {
      "anonymous": false,
      "inputs": [
        {
          "indexed": false,
          "internalType": "address",
          "name": "account",
          "type": "address"
        }
      ],
      "name": "Unpaused",
      "type": "event"
    },
    {
      "inputs": [],
      "name": "DEFAULT_ADMIN_ROLE",
      "outputs": [
        {
          "internalType": "bytes32",
          "name": "",
          "type": "bytes32"
        }
      ],
      "stateMutability": "view",
      "type": "function"
    },
    {
      "inputs": [],
      "name": "OPERATOR_ROLE",
      "outputs": [
        {
          "internalType": "bytes32",
          "name": "",
          "type": "bytes32"
        }
      ],
      "stateMutability": "view",
      "type": "function"
    },
    {
      "inputs": [
        {
          "internalType": "address",
          "name": "operator",
          "type": "address"
        }
      ],
      "name": "addTrustedOperator",
      "outputs": [],
      "stateMutability": "nonpayable",
      "type": "function"
    },
    {
      "inputs": [
        {
          "internalType": "address",
          "name": "owner",
          "type": "address"
        },
        {
          "internalType": "bytes",
          "name": "signature",
          "type": "bytes"
        },
        {
          "internalType": "bytes32",
          "name": "masterNftMID",
          "type": "bytes32"
        },
        {
          "internalType": "bytes32",
          "name": "blazonNftMID",
          "type": "bytes32"
        },
        {
          "internalType": "string",
          "name": "newTokenURI",
          "type": "string"
        }
      ],
      "name": "blazon",
      "outputs": [
        {
          "internalType": "bytes32",
          "name": "newNftMID",
          "type": "bytes32"
        }
      ],
      "stateMutability": "nonpayable",
      "type": "function"
    },
    {
      "inputs": [
        {
          "internalType": "address",
          "name": "owner",
          "type": "address"
        },
        {
          "internalType": "address",
          "name": "nftContract",
          "type": "address"
        },
        {
          "internalType": "uint256",
          "name": "tokenId",
          "type": "uint256"
        }
      ],
      "name": "copyERC721",
      "outputs": [],
      "stateMutability": "nonpayable",
      "type": "function"
    },
    {
      "inputs": [
        {
          "internalType": "address",
          "name": "owner",
          "type": "address"
        },
        {
          "internalType": "bytes",
          "name": "signature",
          "type": "bytes"
        },
        {
          "internalType": "bytes32",
          "name": "masterNftMID",
          "type": "bytes32"
        },
        {
          "internalType": "uint256",
          "name": "initialPrice",
          "type": "uint256"
        },
        {
          "internalType": "uint256",
          "name": "totalSupply",
          "type": "uint256"
        },
        {
          "internalType": "bytes32",
          "name": "priceCurve",
          "type": "bytes32"
        },
        {
          "internalType": "uint256",
          "name": "birth",
          "type": "uint256"
        },
        {
          "internalType": "uint256",
          "name": "deadline",
          "type": "uint256"
        }
      ],
      "name": "createSnapshotSupply",
      "outputs": [],
      "stateMutability": "nonpayable",
      "type": "function"
    },
    {
      "inputs": [
        {
          "internalType": "bytes32",
          "name": "nftMID",
          "type": "bytes32"
        }
      ],
      "name": "getNftInfo",
      "outputs": [
        {
          "internalType": "address",
          "name": "nftContract",
          "type": "address"
        },
        {
          "internalType": "uint256",
          "name": "tokenId",
          "type": "uint256"
        },
        {
          "internalType": "address",
          "name": "owner",
          "type": "address"
        },
        {
          "internalType": "bool",
          "name": "burned",
          "type": "bool"
        },
        {
          "internalType": "bool",
          "name": "imprinted",
          "type": "bool"
        },
        {
          "internalType": "bool",
          "name": "unlocked",
          "type": "bool"
        },
        {
          "internalType": "bool",
          "name": "copy",
          "type": "bool"
        }
      ],
      "stateMutability": "view",
      "type": "function"
    },
    {
      "inputs": [
        {
          "internalType": "address",
          "name": "nftContract",
          "type": "address"
        },
        {
          "internalType": "uint256",
          "name": "tokenId",
          "type": "uint256"
        }
      ],
      "name": "getNftMID",
      "outputs": [
        {
          "internalType": "bytes32",
          "name": "nftMID",
          "type": "bytes32"
        }
      ],
      "stateMutability": "pure",
      "type": "function"
    },
    {
      "inputs": [
        {
          "internalType": "bytes32",
          "name": "role",
          "type": "bytes32"
        }
      ],
      "name": "getRoleAdmin",
      "outputs": [
        {
          "internalType": "bytes32",
          "name": "",
          "type": "bytes32"
        }
      ],
      "stateMutability": "view",
      "type": "function"
    },
    {
      "inputs": [
        {
          "internalType": "bytes32",
          "name": "role",
          "type": "bytes32"
        },
        {
          "internalType": "uint256",
          "name": "index",
          "type": "uint256"
        }
      ],
      "name": "getRoleMember",
      "outputs": [
        {
          "internalType": "address",
          "name": "",
          "type": "address"
        }
      ],
      "stateMutability": "view",
      "type": "function"
    },
    {
      "inputs": [
        {
          "internalType": "bytes32",
          "name": "role",
          "type": "bytes32"
        }
      ],
      "name": "getRoleMemberCount",
      "outputs": [
        {
          "internalType": "uint256",
          "name": "",
          "type": "uint256"
        }
      ],
      "stateMutability": "view",
      "type": "function"
    },
    {
      "inputs": [
        {
          "internalType": "bytes32",
          "name": "masterNftMID",
          "type": "bytes32"
        }
      ],
      "name": "getSnapshotStatus",
      "outputs": [
        {
          "internalType": "uint256",
          "name": "initialPrice",
          "type": "uint256"
        },
        {
          "internalType": "uint256",
          "name": "totalSupply",
          "type": "uint256"
        },
        {
          "internalType": "uint256",
          "name": "snapshotsMinted",
          "type": "uint256"
        },
        {
          "internalType": "bytes32",
          "name": "priceCurve",
          "type": "bytes32"
        },
        {
          "internalType": "uint256",
          "name": "birth",
          "type": "uint256"
        },
        {
          "internalType": "uint256",
          "name": "deadline",
          "type": "uint256"
        }
      ],
      "stateMutability": "view",
      "type": "function"
    },
    {
      "inputs": [
        {
          "internalType": "bytes32",
          "name": "role",
          "type": "bytes32"
        },
        {
          "internalType": "address",
          "name": "account",
          "type": "address"
        }
      ],
      "name": "grantRole",
      "outputs": [],
      "stateMutability": "nonpayable",
      "type": "function"
    },
    {
      "inputs": [
        {
          "internalType": "bytes32",
          "name": "role",
          "type": "bytes32"
        },
        {
          "internalType": "address",
          "name": "account",
          "type": "address"
        }
      ],
      "name": "hasRole",
      "outputs": [
        {
          "internalType": "bool",
          "name": "",
          "type": "bool"
        }
      ],
      "stateMutability": "view",
      "type": "function"
    },
    {
      "inputs": [],
      "name": "initialize",
      "outputs": [],
      "stateMutability": "nonpayable",
      "type": "function"
    },
    {
      "inputs": [
        {
          "internalType": "address",
          "name": "owner",
          "type": "address"
        },
        {
          "internalType": "bytes",
          "name": "signature",
          "type": "bytes"
        },
        {
          "internalType": "bytes32",
          "name": "masterNftMID",
          "type": "bytes32"
        },
        {
          "internalType": "string",
          "name": "newTokenURI",
          "type": "string"
        }
      ],
      "name": "inscribe",
      "outputs": [
        {
          "internalType": "bytes32",
          "name": "newNftMID",
          "type": "bytes32"
        }
      ],
      "stateMutability": "nonpayable",
      "type": "function"
    },
    {
      "inputs": [
        {
          "internalType": "address",
          "name": "owner",
          "type": "address"
        },
        {
          "internalType": "bytes",
          "name": "signature",
          "type": "bytes"
        },
        {
          "internalType": "bytes32",
          "name": "masterNftMID",
          "type": "bytes32"
        },
        {
          "internalType": "bytes32",
          "name": "inscriptionNftMID",
          "type": "bytes32"
        },
        {
          "internalType": "string",
          "name": "newTokenURI",
          "type": "string"
        }
      ],
      "name": "inscribe",
      "outputs": [
        {
          "internalType": "bytes32",
          "name": "newNftMID",
          "type": "bytes32"
        }
      ],
      "stateMutability": "nonpayable",
      "type": "function"
    },
    {
      "inputs": [
        {
          "internalType": "address",
          "name": "requester",
          "type": "address"
        },
        {
          "internalType": "bytes",
          "name": "signature",
          "type": "bytes"
        },
        {
          "internalType": "bytes32",
          "name": "masterNftMID",
          "type": "bytes32"
        },
        {
          "internalType": "string",
          "name": "newTokenURI",
          "type": "string"
        }
      ],
      "name": "mintSnapshot",
      "outputs": [
        {
          "internalType": "bytes32",
          "name": "newNftMID",
          "type": "bytes32"
        }
      ],
      "stateMutability": "nonpayable",
      "type": "function"
    },
    {
      "inputs": [],
      "name": "mosaiqueERC721Instance",
      "outputs": [
        {
          "internalType": "contract MosaiqueERC721V1",
          "name": "",
          "type": "address"
        }
      ],
      "stateMutability": "view",
      "type": "function"
    },
    {
      "inputs": [
        {
          "internalType": "bytes32",
          "name": "",
          "type": "bytes32"
        }
      ],
      "name": "nftMapping",
      "outputs": [
        {
          "internalType": "uint256",
          "name": "tokenId",
          "type": "uint256"
        },
        {
          "internalType": "address",
          "name": "nftContract",
          "type": "address"
        },
        {
          "internalType": "bool",
          "name": "burned",
          "type": "bool"
        },
        {
          "internalType": "bool",
          "name": "imprinted",
          "type": "bool"
        },
        {
          "internalType": "bool",
          "name": "unlocked",
          "type": "bool"
        },
        {
          "internalType": "bool",
          "name": "copy",
          "type": "bool"
        }
      ],
      "stateMutability": "view",
      "type": "function"
    },
    {
      "inputs": [
        {
          "internalType": "address",
          "name": "",
          "type": "address"
        }
      ],
      "name": "nftWhitelist",
      "outputs": [
        {
          "internalType": "bool",
          "name": "",
          "type": "bool"
        }
      ],
      "stateMutability": "view",
      "type": "function"
    },
    {
      "inputs": [
        {
          "internalType": "address",
          "name": "operator",
          "type": "address"
        },
        {
          "internalType": "address",
          "name": "from",
          "type": "address"
        },
        {
          "internalType": "uint256",
          "name": "tokenId",
          "type": "uint256"
        },
        {
          "internalType": "bytes",
          "name": "data",
          "type": "bytes"
        }
      ],
      "name": "onERC721Received",
      "outputs": [
        {
          "internalType": "bytes4",
          "name": "",
          "type": "bytes4"
        }
      ],
      "stateMutability": "nonpayable",
      "type": "function"
    },
    {
      "inputs": [],
      "name": "paused",
      "outputs": [
        {
          "internalType": "bool",
          "name": "",
          "type": "bool"
        }
      ],
      "stateMutability": "view",
      "type": "function"
    },
    {
      "inputs": [
        {
          "internalType": "bytes32",
          "name": "role",
          "type": "bytes32"
        },
        {
          "internalType": "address",
          "name": "account",
          "type": "address"
        }
      ],
      "name": "renounceRole",
      "outputs": [],
      "stateMutability": "nonpayable",
      "type": "function"
    },
    {
      "inputs": [
        {
          "internalType": "bytes32",
          "name": "role",
          "type": "bytes32"
        },
        {
          "internalType": "address",
          "name": "account",
          "type": "address"
        }
      ],
      "name": "revokeRole",
      "outputs": [],
      "stateMutability": "nonpayable",
      "type": "function"
    },
    {
      "inputs": [
        {
          "internalType": "address",
          "name": "operator",
          "type": "address"
        }
      ],
      "name": "revokeTrustedOperator",
      "outputs": [],
      "stateMutability": "nonpayable",
      "type": "function"
    },
    {
      "inputs": [
        {
          "internalType": "contract MosaiqueERC721V1",
          "name": "instance",
          "type": "address"
        }
      ],
      "name": "setMosaiqueERC721Instance",
      "outputs": [],
      "stateMutability": "nonpayable",
      "type": "function"
    },
    {
      "inputs": [
        {
          "internalType": "bytes32",
          "name": "",
          "type": "bytes32"
        }
      ],
      "name": "snapshotMapping",
      "outputs": [
        {
          "internalType": "bytes32",
          "name": "masterNftMID",
          "type": "bytes32"
        },
        {
          "internalType": "uint256",
          "name": "initialPrice",
          "type": "uint256"
        },
        {
          "internalType": "uint256",
          "name": "totalSupply",
          "type": "uint256"
        },
        {
          "internalType": "uint256",
          "name": "minted",
          "type": "uint256"
        },
        {
          "internalType": "bytes32",
          "name": "priceCurve",
          "type": "bytes32"
        },
        {
          "internalType": "uint256",
          "name": "birth",
          "type": "uint256"
        },
        {
          "internalType": "uint256",
          "name": "deadline",
          "type": "uint256"
        }
      ],
      "stateMutability": "view",
      "type": "function"
    },
    {
      "inputs": [
        {
          "internalType": "bytes",
          "name": "signature",
          "type": "bytes"
        }
      ],
      "name": "splitECSignature",
      "outputs": [
        {
          "internalType": "bytes32",
          "name": "r",
          "type": "bytes32"
        },
        {
          "internalType": "bytes32",
          "name": "s",
          "type": "bytes32"
        },
        {
          "internalType": "uint8",
          "name": "v",
          "type": "uint8"
        }
      ],
      "stateMutability": "pure",
      "type": "function"
    },
    {
      "inputs": [
        {
          "internalType": "bytes4",
          "name": "interfaceId",
          "type": "bytes4"
        }
      ],
      "name": "supportsInterface",
      "outputs": [
        {
          "internalType": "bool",
          "name": "",
          "type": "bool"
        }
      ],
      "stateMutability": "view",
      "type": "function"
    },
    {
      "inputs": [
        {
          "internalType": "address",
          "name": "signer",
          "type": "address"
        },
        {
          "internalType": "bytes32",
          "name": "hash",
          "type": "bytes32"
        },
        {
          "internalType": "bytes",
          "name": "signature",
          "type": "bytes"
        }
      ],
      "name": "verifyECSignatureSigner",
      "outputs": [
        {
          "internalType": "bool",
          "name": "",
          "type": "bool"
        }
      ],
      "stateMutability": "view",
      "type": "function"
    }
  ],
  "bytecode": "0x608060405234801561001057600080fd5b5061580680620000216000396000f3fe608060405234801561001057600080fd5b50600436106101e55760003560e01c8063659d0fe91161010f578063ab3bac4e116100a2578063cb64de6711610071578063cb64de6714610624578063d547741f14610654578063d9c6f3b514610670578063f5b541a6146106a6576101e5565b8063ab3bac4e14610573578063b332ae2c146105a3578063c05f0a1d146105d8578063ca15c873146105f4576101e5565b806394ab7661116100de57806394ab7661146104d4578063a0b977bd14610504578063a217fddf14610539578063a6639a1714610557576101e5565b8063659d0fe9146104345780638129fc1c1461046a5780639010d07c1461047457806391d14854146104a4576101e5565b80632f2ff15d116101875780634cbf08ec116101565780634cbf08ec146103985780635c975abb146103ca5780636081a5b2146103e857806361a8497314610418576101e5565b80632f2ff15d1461030057806332f6bb061461031c57806336568abe1461034c57806346b31b6e14610368576101e5565b8063184eee48116101c3578063184eee481461026657806321b5cc8414610296578063233fbec6146102b4578063248a9ca3146102d0576101e5565b806301ffc9a7146101ea5780630b5e2de71461021a578063150b7a0214610236575b600080fd5b61020460048036038101906101ff9190614369565b6106c4565b6040516102119190614eaa565b60405180910390f35b610234600480360381019061022f9190613ee6565b61073e565b005b610250600480360381019061024b9190613f87565b61076b565b60405161025d919061505b565b60405180910390f35b610280600480360381019061027b9190614007565b610989565b60405161028d9190614eaa565b60405180910390f35b61029e610a4c565b6040516102ab9190615076565b60405180910390f35b6102ce60048036038101906102c991906143fc565b610a72565b005b6102ea60048036038101906102e591906142c8565b610acc565b6040516102f79190614ec5565b60405180910390f35b61031a600480360381019061031591906142f1565b610aec565b005b61033660048036038101906103319190614073565b610b20565b6040516103439190614ec5565b60405180910390f35b610366600480360381019061036191906142f1565b610f9e565b005b610382600480360381019061037d9190613ee6565b610fd2565b60405161038f9190614eaa565b60405180910390f35b6103b260048036038101906103ad91906143bb565b610ff2565b6040516103c193929190614f40565b60405180910390f35b6103d2611016565b6040516103df9190614eaa565b60405180910390f35b61040260048036038101906103fd9190614123565b61102d565b60405161040f9190614ec5565b60405180910390f35b610432600480360381019061042d91906141be565b61136c565b005b61044e600480360381019061044991906142c8565b6114fb565b6040516104619796959493929190614fa7565b60405180910390f35b61047261153d565b005b61048e6004803603810190610489919061432d565b61166b565b60405161049b9190614ccb565b60405180910390f35b6104be60048036038101906104b991906142f1565b61169a565b6040516104cb9190614eaa565b60405180910390f35b6104ee60048036038101906104e99190614123565b611705565b6040516104fb9190614ec5565b60405180910390f35b61051e600480360381019061051991906142c8565b6119c0565b6040516105309695949392919061530f565b60405180910390f35b610541611a14565b60405161054e9190614ec5565b60405180910390f35b610571600480360381019061056c9190613f38565b611a1b565b005b61058d6004803603810190610588919061428c565b611cbc565b60405161059a9190614ec5565b60405180910390f35b6105bd60048036038101906105b891906142c8565b611cd0565b6040516105cf969594939291906152ae565b60405180910390f35b6105f260048036038101906105ed9190613ee6565b611d60565b005b61060e600480360381019061060991906142c8565b611d8d565b60405161061b9190615293565b60405180910390f35b61063e60048036038101906106399190614073565b611db1565b60405161064b9190614ec5565b60405180910390f35b61066e600480360381019061066991906142f1565b612283565b005b61068a600480360381019061068591906142c8565b6122b7565b60405161069d9796959493929190614df6565b60405180910390f35b6106ae6123f7565b6040516106bb9190614ec5565b60405180910390f35b60007f5a05180f000000000000000000000000000000000000000000000000000000007bffffffffffffffffffffffffffffffffffffffffffffffffffffffff1916827bffffffffffffffffffffffffffffffffffffffffffffffffffffffff1916148061073757506107368261241b565b5b9050919050565b6107687f97667070c54ef182b0f5858b034beac1b6f3089aa2d3188bb1e8929f4fa9b92982610aec565b50565b600060fd6000610779612495565b73ffffffffffffffffffffffffffffffffffffffff1673ffffffffffffffffffffffffffffffffffffffff16815260200190815260200160002060009054906101000a900460ff16610800576040517f08c379a00000000000000000000000000000000000000000000000000000000081526004016107f790615173565b60405180910390fd5b600060fc6000610810898861249d565b81526020019081526020016000209050600073ffffffffffffffffffffffffffffffffffffffff168160010160009054906101000a900473ffffffffffffffffffffffffffffffffffffffff1673ffffffffffffffffffffffffffffffffffffffff16146108ca578060010160169054906101000a900460ff166108c9576040517f08c379a00000000000000000000000000000000000000000000000000000000081526004016108c090615113565b60405180910390fd5b5b6108d2612495565b8160010160006101000a81548173ffffffffffffffffffffffffffffffffffffffff021916908373ffffffffffffffffffffffffffffffffffffffff16021790555084816000018190555061092f610928612495565b87876124d0565b7f4489bd1a7381508ab547e59609b1c0f6f4bc2c4463ee6178025fd14a23353f2d610958612495565b8787878760405161096d959493929190614d1d565b60405180910390a163150b7a0260e01b91505095945050505050565b6000806040518060400160405280601c81526020017f19457468657265756d205369676e6564204d6573736167653a0a3332000000008152509050600081866040516020016109d9929190614c69565b604051602081830303815290604052805190602001209050610a40878287878080601f016020809104026020016040519081016040528093929190818152602001838380828437600081840152601f19601f820116905080830192505050505050506125c1565b92505050949350505050565b60fb60009054906101000a900473ffffffffffffffffffffffffffffffffffffffff1681565b6000801b610a8781610a82612495565b6126f4565b8160fb60006101000a81548173ffffffffffffffffffffffffffffffffffffffff021916908373ffffffffffffffffffffffffffffffffffffffff1602179055505050565b600060656000838152602001908152602001600020600101549050919050565b610af68282612791565b610b1b81609760008581526020019081526020016000206127ba90919063ffffffff16565b505050565b60007f97667070c54ef182b0f5858b034beac1b6f3089aa2d3188bb1e8929f4fa9b929610b5481610b4f612495565b6126f4565b610b8c8987878787604051602001610b6f9493929190614b94565b604051602081830303815290604052805190602001208a8a610989565b610bcb576040517f08c379a0000000000000000000000000000000000000000000000000000000008152600401610bc290615253565b60405180910390fd5b600060fc60008881526020019081526020016000209050600060fc6000888152602001908152602001600020905060008260010160009054906101000a900473ffffffffffffffffffffffffffffffffffffffff16905060008260010160009054906101000a900473ffffffffffffffffffffffffffffffffffffffff1690508c73ffffffffffffffffffffffffffffffffffffffff168273ffffffffffffffffffffffffffffffffffffffff16636352211e86600001546040518263ffffffff1660e01b8152600401610c9f9190615293565b60206040518083038186803b158015610cb757600080fd5b505afa158015610ccb573d6000803e3d6000fd5b505050506040513d601f19601f82011682018060405250810190610cef9190613f0f565b73ffffffffffffffffffffffffffffffffffffffff1614610d45576040517f08c379a0000000000000000000000000000000000000000000000000000000008152600401610d3c906151f3565b60405180910390fd5b8c73ffffffffffffffffffffffffffffffffffffffff168173ffffffffffffffffffffffffffffffffffffffff16636352211e85600001546040518263ffffffff1660e01b8152600401610d999190615293565b60206040518083038186803b158015610db157600080fd5b505afa158015610dc5573d6000803e3d6000fd5b505050506040513d601f19601f82011682018060405250810190610de99190613f0f565b73ffffffffffffffffffffffffffffffffffffffff1614610e3f576040517f08c379a0000000000000000000000000000000000000000000000000000000008152600401610e3690615133565b60405180910390fd5b610e718460010160009054906101000a900473ffffffffffffffffffffffffffffffffffffffff1685600001546127ea565b600060fb60009054906101000a900473ffffffffffffffffffffffffffffffffffffffff1673ffffffffffffffffffffffffffffffffffffffff1663d204c45e8f8b8b6040518463ffffffff1660e01b8152600401610ed293929190614d6b565b602060405180830381600087803b158015610eec57600080fd5b505af1158015610f00573d6000803e3d6000fd5b505050506040513d601f19601f82011682018060405250810190610f249190614466565b9050610f5260fb60009054906101000a900473ffffffffffffffffffffffffffffffffffffffff168261249d565b96507fa694d3ad8a3db90ca93f4a15ccd156ae5761fecb94bad08ccff378a9d237362d8b88604051610f85929190614ee0565b60405180910390a1505050505050979650505050505050565b610fa88282612b1a565b610fcd8160976000858152602001908152602001600020612b9d90919063ffffffff16565b505050565b60fd6020528060005260406000206000915054906101000a900460ff1681565b60008060006020840151925060408401519150606084015160001a90509193909250565b600060c960009054906101000a900460ff16905090565b60007f97667070c54ef182b0f5858b034beac1b6f3089aa2d3188bb1e8929f4fa9b9296110618161105c612495565b6126f4565b6110978886868660405160200161107a93929190614bcf565b604051602081830303815290604052805190602001208989610989565b6110d6576040517f08c379a00000000000000000000000000000000000000000000000000000000081526004016110cd90615253565b60405180910390fd5b600060fc6000878152602001908152602001600020905060008160010160009054906101000a900473ffffffffffffffffffffffffffffffffffffffff1690508973ffffffffffffffffffffffffffffffffffffffff168173ffffffffffffffffffffffffffffffffffffffff16636352211e84600001546040518263ffffffff1660e01b815260040161116a9190615293565b60206040518083038186803b15801561118257600080fd5b505afa158015611196573d6000803e3d6000fd5b505050506040513d601f19601f820116820180604052508101906111ba9190613f0f565b73ffffffffffffffffffffffffffffffffffffffff1614611210576040517f08c379a0000000000000000000000000000000000000000000000000000000008152600401611207906151f3565b60405180910390fd5b6112428260010160009054906101000a900473ffffffffffffffffffffffffffffffffffffffff1683600001546127ea565b600060fb60009054906101000a900473ffffffffffffffffffffffffffffffffffffffff1673ffffffffffffffffffffffffffffffffffffffff1663d204c45e8c89896040518463ffffffff1660e01b81526004016112a393929190614d6b565b602060405180830381600087803b1580156112bd57600080fd5b505af11580156112d1573d6000803e3d6000fd5b505050506040513d601f19601f820116820180604052508101906112f59190614466565b905061132360fb60009054906101000a900473ffffffffffffffffffffffffffffffffffffffff168261249d565b94507f2677187c49a9c70a8d16306e97fdff08add2860a43c6260f78ba425fbef5f1e48886604051611356929190614ee0565b60405180910390a1505050509695505050505050565b7f97667070c54ef182b0f5858b034beac1b6f3089aa2d3188bb1e8929f4fa9b92961139e81611399612495565b6126f4565b6113da8a8888888888886040516020016113bd96959493929190614bf9565b604051602081830303815290604052805190602001208b8b610989565b611419576040517f08c379a000000000000000000000000000000000000000000000000000000000815260040161141090615253565b60405180910390fd5b600060fe600089815260200190815260200160002090506000816005015414611477576040517f08c379a000000000000000000000000000000000000000000000000000000000815260040161146e90615233565b60405180910390fd5b878160000181905550868160010181905550858160020181905550600081600301819055508481600401819055508381600501819055508281600601819055507f19c234519a7fd59b94ce0a2355cd4b39629409a4ce01daa170342f4e192a0569886040516114e69190614ec5565b60405180910390a15050505050505050505050565b60fe6020528060005260406000206000915090508060000154908060010154908060020154908060030154908060040154908060050154908060060154905087565b600060019054906101000a900460ff1680611563575060008054906101000a900460ff16155b6115a2576040517f08c379a0000000000000000000000000000000000000000000000000000000008152600401611599906151b3565b60405180910390fd5b60008060019054906101000a900460ff1615905080156115f2576001600060016101000a81548160ff02191690831515021790555060016000806101000a81548160ff0219169083151502179055505b6115fa612bcd565b611602612cc6565b6116166000801b611611612495565b612daf565b6116477f97667070c54ef182b0f5858b034beac1b6f3089aa2d3188bb1e8929f4fa9b929611642612495565b610aec565b80156116685760008060016101000a81548160ff0219169083151502179055505b50565b60006116928260976000868152602001908152602001600020612de390919063ffffffff16565b905092915050565b60006065600084815260200190815260200160002060000160008373ffffffffffffffffffffffffffffffffffffffff1673ffffffffffffffffffffffffffffffffffffffff16815260200190815260200160002060009054906101000a900460ff16905092915050565b60007f97667070c54ef182b0f5858b034beac1b6f3089aa2d3188bb1e8929f4fa9b92961173981611734612495565b6126f4565b61176f8886868660405160200161175293929190614bcf565b604051602081830303815290604052805190602001208989610989565b6117ae576040517f08c379a00000000000000000000000000000000000000000000000000000000081526004016117a590615253565b60405180910390fd5b600060fe60008781526020019081526020016000209050806003015481600201541161180f576040517f08c379a000000000000000000000000000000000000000000000000000000000815260040161180690615213565b60405180910390fd5b806003016000815461182090615660565b9190508190555080600301548160020154141561186f577f8ffbb239649899fbb68518f485a15add28ad696cbb29051c9f1108a1bbf12310866040516118669190614ec5565b60405180910390a15b600060fc6000888152602001908152602001600020905060008160010160009054906101000a900473ffffffffffffffffffffffffffffffffffffffff16905060008173ffffffffffffffffffffffffffffffffffffffff1663d204c45e8d8a8a6040518463ffffffff1660e01b81526004016118ee93929190614d6b565b602060405180830381600087803b15801561190857600080fd5b505af115801561191c573d6000803e3d6000fd5b505050506040513d601f19601f820116820180604052508101906119409190614466565b90506119708360010160009054906101000a900473ffffffffffffffffffffffffffffffffffffffff168261249d565b95507f050d23dbc1a889fbe97f6eb13935c8bc335da874c9a3bf2352428178b7a7db75898786600301546040516119a993929190614f09565b60405180910390a150505050509695505050505050565b600080600080600080600060fe600089815260200190815260200160002090508060010154816002015482600301548360040154846005015485600601549650965096509650965096505091939550919395565b6000801b81565b60008290508373ffffffffffffffffffffffffffffffffffffffff168173ffffffffffffffffffffffffffffffffffffffff16636352211e846040518263ffffffff1660e01b8152600401611a709190615293565b60206040518083038186803b158015611a8857600080fd5b505afa158015611a9c573d6000803e3d6000fd5b505050506040513d601f19601f82011682018060405250810190611ac09190613f0f565b73ffffffffffffffffffffffffffffffffffffffff1614611b16576040517f08c379a0000000000000000000000000000000000000000000000000000000008152600401611b0d90615193565b60405180910390fd5b600060fb60009054906101000a900473ffffffffffffffffffffffffffffffffffffffff1673ffffffffffffffffffffffffffffffffffffffff1663d204c45e868473ffffffffffffffffffffffffffffffffffffffff1663c87b56dd876040518263ffffffff1660e01b8152600401611b909190615293565b60006040518083038186803b158015611ba857600080fd5b505afa158015611bbc573d6000803e3d6000fd5b505050506040513d6000823e3d601f19601f82011682018060405250810190611be59190614425565b6040518363ffffffff1660e01b8152600401611c02929190614d9d565b602060405180830381600087803b158015611c1c57600080fd5b505af1158015611c30573d6000803e3d6000fd5b505050506040513d601f19601f82011682018060405250810190611c549190614466565b90507fd71005658632f3224e39e420768925efe73b53f2165893e6a5da922d4f8d9eee848460fb60009054906101000a900473ffffffffffffffffffffffffffffffffffffffff1684604051611cad9493929190614e65565b60405180910390a15050505050565b6000611cc8838361249d565b905092915050565b60fc6020528060005260406000206000915090508060000154908060010160009054906101000a900473ffffffffffffffffffffffffffffffffffffffff16908060010160149054906101000a900460ff16908060010160159054906101000a900460ff16908060010160169054906101000a900460ff16908060010160179054906101000a900460ff16905086565b611d8a7f97667070c54ef182b0f5858b034beac1b6f3089aa2d3188bb1e8929f4fa9b92982612283565b50565b6000611daa60976000848152602001908152602001600020612dfd565b9050919050565b60007f97667070c54ef182b0f5858b034beac1b6f3089aa2d3188bb1e8929f4fa9b929611de581611de0612495565b6126f4565b611e1d8987878787604051602001611e009493929190614b94565b604051602081830303815290604052805190602001208a8a610989565b611e5c576040517f08c379a0000000000000000000000000000000000000000000000000000000008152600401611e5390615253565b60405180910390fd5b600060fc60008881526020019081526020016000209050600060fc6000888152602001908152602001600020905060008260010160009054906101000a900473ffffffffffffffffffffffffffffffffffffffff16905060008260010160009054906101000a900473ffffffffffffffffffffffffffffffffffffffff1690508c73ffffffffffffffffffffffffffffffffffffffff168273ffffffffffffffffffffffffffffffffffffffff16636352211e86600001546040518263ffffffff1660e01b8152600401611f309190615293565b60206040518083038186803b158015611f4857600080fd5b505afa158015611f5c573d6000803e3d6000fd5b505050506040513d601f19601f82011682018060405250810190611f809190613f0f565b73ffffffffffffffffffffffffffffffffffffffff1614611fd6576040517f08c379a0000000000000000000000000000000000000000000000000000000008152600401611fcd906151f3565b60405180910390fd5b8c73ffffffffffffffffffffffffffffffffffffffff168173ffffffffffffffffffffffffffffffffffffffff16636352211e85600001546040518263ffffffff1660e01b815260040161202a9190615293565b60206040518083038186803b15801561204257600080fd5b505afa158015612056573d6000803e3d6000fd5b505050506040513d601f19601f8201168201806040525081019061207a9190613f0f565b73ffffffffffffffffffffffffffffffffffffffff16146120d0576040517f08c379a00000000000000000000000000000000000000000000000000000000081526004016120c790615133565b60405180910390fd5b6121028460010160009054906101000a900473ffffffffffffffffffffffffffffffffffffffff1685600001546127ea565b60018360010160146101000a81548160ff0219169083151502179055507f65f524cc2ee31b9de6f4e26e3c5a2d0f5ea115e7c3b642d3d9ce2454c73f1a878960405161214e9190614ec5565b60405180910390a1600060fb60009054906101000a900473ffffffffffffffffffffffffffffffffffffffff1673ffffffffffffffffffffffffffffffffffffffff1663d204c45e8f8b8b6040518463ffffffff1660e01b81526004016121b793929190614d6b565b602060405180830381600087803b1580156121d157600080fd5b505af11580156121e5573d6000803e3d6000fd5b505050506040513d601f19601f820116820180604052508101906122099190614466565b905061223760fb60009054906101000a900473ffffffffffffffffffffffffffffffffffffffff168261249d565b96507f2677187c49a9c70a8d16306e97fdff08add2860a43c6260f78ba425fbef5f1e48b8860405161226a929190614ee0565b60405180910390a1505050505050979650505050505050565b61228d8282612e12565b6122b28160976000858152602001908152602001600020612b9d90919063ffffffff16565b505050565b60008060008060008060008060fc60008a8152602001908152602001600020905060008890508160010160009054906101000a900473ffffffffffffffffffffffffffffffffffffffff1682600001548273ffffffffffffffffffffffffffffffffffffffff16636352211e85600001546040518263ffffffff1660e01b81526004016123449190615293565b60206040518083038186803b15801561235c57600080fd5b505afa158015612370573d6000803e3d6000fd5b505050506040513d601f19601f820116820180604052508101906123949190613f0f565b8460010160149054906101000a900460ff168560010160159054906101000a900460ff168660010160169054906101000a900460ff168760010160179054906101000a900460ff1698509850985098509850985098505050919395979092949650565b7f97667070c54ef182b0f5858b034beac1b6f3089aa2d3188bb1e8929f4fa9b92981565b60007f7965db0b000000000000000000000000000000000000000000000000000000007bffffffffffffffffffffffffffffffffffffffffffffffffffffffff1916827bffffffffffffffffffffffffffffffffffffffffffffffffffffffff1916148061248e575061248d82612e3b565b5b9050919050565b600033905090565b600082826040516020016124b2929190614b68565b60405160208183030381529060405280519060200120905092915050565b60008390508073ffffffffffffffffffffffffffffffffffffffff1663095ea7b384846040518363ffffffff1660e01b8152600401612510929190614dcd565b600060405180830381600087803b15801561252a57600080fd5b505af115801561253e573d6000803e3d6000fd5b50505050600060fc6000612552878661249d565b8152602001908152602001600020905060018160010160166101000a81548160ff0219169083151502179055507fe4a708f90636c7aab954d473381466d256c53106aa2874019c04c01bf736f7308585856040516125b293929190614ce6565b60405180910390a15050505050565b60006125cc84612ea5565b156126b2578373ffffffffffffffffffffffffffffffffffffffff16631626ba7e84846040518363ffffffff1660e01b815260040161260c929190614f77565b60206040518083038186803b15801561262457600080fd5b505afa92505050801561265557506040513d601f19601f820116820180604052508101906126529190614392565b60015b61266257600090506126ed565b631626ba7e60e01b7bffffffffffffffffffffffffffffffffffffffffffffffffffffffff1916817bffffffffffffffffffffffffffffffffffffffffffffffffffffffff1916149150506126ed565b8373ffffffffffffffffffffffffffffffffffffffff166126d38484612eb8565b73ffffffffffffffffffffffffffffffffffffffff161490505b9392505050565b6126fe828261169a565b61278d576127238173ffffffffffffffffffffffffffffffffffffffff166014612f67565b6127318360001c6020612f67565b604051602001612742929190614c91565b6040516020818303038152906040526040517f08c379a00000000000000000000000000000000000000000000000000000000081526004016127849190615091565b60405180910390fd5b5050565b61279a82610acc565b6127ab816127a6612495565b6126f4565b6127b58383613261565b505050565b60006127e2836000018373ffffffffffffffffffffffffffffffffffffffff1660001b613342565b905092915050565b60008290503073ffffffffffffffffffffffffffffffffffffffff168173ffffffffffffffffffffffffffffffffffffffff16636352211e846040518263ffffffff1660e01b815260040161283f9190615293565b60206040518083038186803b15801561285757600080fd5b505afa15801561286b573d6000803e3d6000fd5b505050506040513d601f19601f8201168201806040525081019061288f9190613f0f565b73ffffffffffffffffffffffffffffffffffffffff16148015612a2457503073ffffffffffffffffffffffffffffffffffffffff168173ffffffffffffffffffffffffffffffffffffffff1663081812fc846040518263ffffffff1660e01b81526004016128fd9190615293565b60206040518083038186803b15801561291557600080fd5b505afa158015612929573d6000803e3d6000fd5b505050506040513d601f19601f8201168201806040525081019061294d9190613f0f565b73ffffffffffffffffffffffffffffffffffffffff161480612a235750600073ffffffffffffffffffffffffffffffffffffffff168173ffffffffffffffffffffffffffffffffffffffff1663081812fc846040518263ffffffff1660e01b81526004016129bb9190615293565b60206040518083038186803b1580156129d357600080fd5b505afa1580156129e7573d6000803e3d6000fd5b505050506040513d601f19601f82011682018060405250810190612a0b9190613f0f565b73ffffffffffffffffffffffffffffffffffffffff16145b5b15612a2f5750612b16565b8073ffffffffffffffffffffffffffffffffffffffff1663095ea7b36000846040518363ffffffff1660e01b8152600401612a6b929190614dcd565b600060405180830381600087803b158015612a8557600080fd5b505af1158015612a99573d6000803e3d6000fd5b50505050600060fc6000612aad868661249d565b8152602001908152602001600020905060008160010160166101000a81548160ff0219169083151502179055507f5d2dfccf265e290ca53d59751054a0a1a4c82809a44400f4ba458886f4cdfd008484604051612b0b929190614dcd565b60405180910390a150505b5050565b612b22612495565b73ffffffffffffffffffffffffffffffffffffffff168173ffffffffffffffffffffffffffffffffffffffff1614612b8f576040517f08c379a0000000000000000000000000000000000000000000000000000000008152600401612b8690615273565b60405180910390fd5b612b9982826133b2565b5050565b6000612bc5836000018373ffffffffffffffffffffffffffffffffffffffff1660001b613494565b905092915050565b600060019054906101000a900460ff1680612bf3575060008054906101000a900460ff16155b612c32576040517f08c379a0000000000000000000000000000000000000000000000000000000008152600401612c29906151b3565b60405180910390fd5b60008060019054906101000a900460ff161590508015612c82576001600060016101000a81548160ff02191690831515021790555060016000806101000a81548160ff0219169083151502179055505b612c8a61361a565b612c926136f3565b612c9a6137cc565b612ca26138a5565b8015612cc35760008060016101000a81548160ff0219169083151502179055505b50565b600060019054906101000a900460ff1680612cec575060008054906101000a900460ff16155b612d2b576040517f08c379a0000000000000000000000000000000000000000000000000000000008152600401612d22906151b3565b60405180910390fd5b60008060019054906101000a900460ff161590508015612d7b576001600060016101000a81548160ff02191690831515021790555060016000806101000a81548160ff0219169083151502179055505b612d8361361a565b612d8b61397e565b8015612dac5760008060016101000a81548160ff0219169083151502179055505b50565b612db98282613a72565b612dde81609760008581526020019081526020016000206127ba90919063ffffffff16565b505050565b6000612df28360000183613a80565b60001c905092915050565b6000612e0b82600001613ad1565b9050919050565b612e1b82610acc565b612e2c81612e27612495565b6126f4565b612e3683836133b2565b505050565b60007f01ffc9a7000000000000000000000000000000000000000000000000000000007bffffffffffffffffffffffffffffffffffffffffffffffffffffffff1916827bffffffffffffffffffffffffffffffffffffffffffffffffffffffff1916149050919050565b600080823b905060008111915050919050565b6000604182511415612ef75760008060006020850151925060408501519150606085015160001a9050612eed86828585613ae2565b9350505050612f61565b604082511415612f26576000806020840151915060408401519050612f1d858383613c6d565b92505050612f61565b6040517f08c379a0000000000000000000000000000000000000000000000000000000008152600401612f58906150f3565b60405180910390fd5b92915050565b606060006002836002612f7a91906154a5565b612f84919061544f565b67ffffffffffffffff811115612fc3577f4e487b7100000000000000000000000000000000000000000000000000000000600052604160045260246000fd5b6040519080825280601f01601f191660200182016040528015612ff55781602001600182028036833780820191505090505b5090507f300000000000000000000000000000000000000000000000000000000000000081600081518110613053577f4e487b7100000000000000000000000000000000000000000000000000000000600052603260045260246000fd5b60200101907effffffffffffffffffffffffffffffffffffffffffffffffffffffffffffff1916908160001a9053507f7800000000000000000000000000000000000000000000000000000000000000816001815181106130dd577f4e487b7100000000000000000000000000000000000000000000000000000000600052603260045260246000fd5b60200101907effffffffffffffffffffffffffffffffffffffffffffffffffffffffffffff1916908160001a9053506000600184600261311d91906154a5565b613127919061544f565b90505b6001811115613213577f3031323334353637383961626364656600000000000000000000000000000000600f86166010811061318f577f4e487b7100000000000000000000000000000000000000000000000000000000600052603260045260246000fd5b1a60f81b8282815181106131cc577f4e487b7100000000000000000000000000000000000000000000000000000000600052603260045260246000fd5b60200101907effffffffffffffffffffffffffffffffffffffffffffffffffffffffffffff1916908160001a905350600485901c94508061320c90615636565b905061312a565b5060008414613257576040517f08c379a000000000000000000000000000000000000000000000000000000000815260040161324e906150d3565b60405180910390fd5b8091505092915050565b61326b828261169a565b61333e5760016065600084815260200190815260200160002060000160008373ffffffffffffffffffffffffffffffffffffffff1673ffffffffffffffffffffffffffffffffffffffff16815260200190815260200160002060006101000a81548160ff0219169083151502179055506132e3612495565b73ffffffffffffffffffffffffffffffffffffffff168173ffffffffffffffffffffffffffffffffffffffff16837f2f8788117e7eff1d82e926ec794901d17c78024a50270940304540a733656f0d60405160405180910390a45b5050565b600061334e8383613cb7565b6133a75782600001829080600181540180825580915050600190039060005260206000200160009091909190915055826000018054905083600101600084815260200190815260200160002081905550600190506133ac565b600090505b92915050565b6133bc828261169a565b156134905760006065600084815260200190815260200160002060000160008373ffffffffffffffffffffffffffffffffffffffff1673ffffffffffffffffffffffffffffffffffffffff16815260200190815260200160002060006101000a81548160ff021916908315150217905550613435612495565b73ffffffffffffffffffffffffffffffffffffffff168173ffffffffffffffffffffffffffffffffffffffff16837ff6391f5c32d9c69d2a47ea670b442974b53935d1edc7fd64eb21e047a839171b60405160405180910390a45b5050565b6000808360010160008481526020019081526020016000205490506000811461360e5760006001826134c691906154ff565b90506000600186600001805490506134de91906154ff565b9050818114613599576000866000018281548110613525577f4e487b7100000000000000000000000000000000000000000000000000000000600052603260045260246000fd5b906000526020600020015490508087600001848154811061356f577f4e487b7100000000000000000000000000000000000000000000000000000000600052603260045260246000fd5b90600052602060002001819055508387600101600083815260200190815260200160002081905550505b856000018054806135d3577f4e487b7100000000000000000000000000000000000000000000000000000000600052603160045260246000fd5b600190038181906000526020600020016000905590558560010160008681526020019081526020016000206000905560019350505050613614565b60009150505b92915050565b600060019054906101000a900460ff1680613640575060008054906101000a900460ff16155b61367f576040517f08c379a0000000000000000000000000000000000000000000000000000000008152600401613676906151b3565b60405180910390fd5b60008060019054906101000a900460ff1615905080156136cf576001600060016101000a81548160ff02191690831515021790555060016000806101000a81548160ff0219169083151502179055505b80156136f05760008060016101000a81548160ff0219169083151502179055505b50565b600060019054906101000a900460ff1680613719575060008054906101000a900460ff16155b613758576040517f08c379a000000000000000000000000000000000000000000000000000000000815260040161374f906151b3565b60405180910390fd5b60008060019054906101000a900460ff1615905080156137a8576001600060016101000a81548160ff02191690831515021790555060016000806101000a81548160ff0219169083151502179055505b80156137c95760008060016101000a81548160ff0219169083151502179055505b50565b600060019054906101000a900460ff16806137f2575060008054906101000a900460ff16155b613831576040517f08c379a0000000000000000000000000000000000000000000000000000000008152600401613828906151b3565b60405180910390fd5b60008060019054906101000a900460ff161590508015613881576001600060016101000a81548160ff02191690831515021790555060016000806101000a81548160ff0219169083151502179055505b80156138a25760008060016101000a81548160ff0219169083151502179055505b50565b600060019054906101000a900460ff16806138cb575060008054906101000a900460ff16155b61390a576040517f08c379a0000000000000000000000000000000000000000000000000000000008152600401613901906151b3565b60405180910390fd5b60008060019054906101000a900460ff16159050801561395a576001600060016101000a81548160ff02191690831515021790555060016000806101000a81548160ff0219169083151502179055505b801561397b5760008060016101000a81548160ff0219169083151502179055505b50565b600060019054906101000a900460ff16806139a4575060008054906101000a900460ff16155b6139e3576040517f08c379a00000000000000000000000000000000000000000000000000000000081526004016139da906151b3565b60405180910390fd5b60008060019054906101000a900460ff161590508015613a33576001600060016101000a81548160ff02191690831515021790555060016000806101000a81548160ff0219169083151502179055505b600060c960006101000a81548160ff0219169083151502179055508015613a6f5760008060016101000a81548160ff0219169083151502179055505b50565b613a7c8282613261565b5050565b6000826000018281548110613abe577f4e487b7100000000000000000000000000000000000000000000000000000000600052603260045260246000fd5b9060005260206000200154905092915050565b600081600001805490509050919050565b60007f7fffffffffffffffffffffffffffffff5d576e7357a4501ddfe92f46681b20a08260001c1115613b4a576040517f08c379a0000000000000000000000000000000000000000000000000000000008152600401613b4190615153565b60405180910390fd5b601b8460ff161480613b5f5750601c8460ff16145b613b9e576040517f08c379a0000000000000000000000000000000000000000000000000000000008152600401613b95906151d3565b60405180910390fd5b600060018686868660405160008152602001604052604051613bc39493929190615016565b6020604051602081039080840390855afa158015613be5573d6000803e3d6000fd5b505050602060405103519050600073ffffffffffffffffffffffffffffffffffffffff168173ffffffffffffffffffffffffffffffffffffffff161415613c61576040517f08c379a0000000000000000000000000000000000000000000000000000000008152600401613c58906150b3565b60405180910390fd5b80915050949350505050565b60008060007f7fffffffffffffffffffffffffffffffffffffffffffffffffffffffffffffff84169150601b8460ff1c019050613cac86828785613ae2565b925050509392505050565b600080836001016000848152602001908152602001600020541415905092915050565b6000613ced613ce8846153a1565b615370565b905082815260208101848484011115613d0557600080fd5b613d108482856155f4565b509392505050565b6000613d2b613d26846153d1565b615370565b905082815260208101848484011115613d4357600080fd5b613d4e848285615603565b509392505050565b600081359050613d658161575d565b92915050565b600081519050613d7a8161575d565b92915050565b600081359050613d8f81615774565b92915050565b600081359050613da48161578b565b92915050565b600081519050613db98161578b565b92915050565b60008083601f840112613dd157600080fd5b8235905067ffffffffffffffff811115613dea57600080fd5b602083019150836001820283011115613e0257600080fd5b9250929050565b600082601f830112613e1a57600080fd5b8135613e2a848260208601613cda565b91505092915050565b600081359050613e42816157a2565b92915050565b60008083601f840112613e5a57600080fd5b8235905067ffffffffffffffff811115613e7357600080fd5b602083019150836001820283011115613e8b57600080fd5b9250929050565b600082601f830112613ea357600080fd5b8151613eb3848260208601613d18565b91505092915050565b600081359050613ecb816157b9565b92915050565b600081519050613ee0816157b9565b92915050565b600060208284031215613ef857600080fd5b6000613f0684828501613d56565b91505092915050565b600060208284031215613f2157600080fd5b6000613f2f84828501613d6b565b91505092915050565b600080600060608486031215613f4d57600080fd5b6000613f5b86828701613d56565b9350506020613f6c86828701613d56565b9250506040613f7d86828701613ebc565b9150509250925092565b600080600080600060808688031215613f9f57600080fd5b6000613fad88828901613d56565b9550506020613fbe88828901613d56565b9450506040613fcf88828901613ebc565b935050606086013567ffffffffffffffff811115613fec57600080fd5b613ff888828901613dbf565b92509250509295509295909350565b6000806000806060858703121561401d57600080fd5b600061402b87828801613d56565b945050602061403c87828801613d80565b935050604085013567ffffffffffffffff81111561405957600080fd5b61406587828801613dbf565b925092505092959194509250565b600080600080600080600060a0888a03121561408e57600080fd5b600061409c8a828b01613d56565b975050602088013567ffffffffffffffff8111156140b957600080fd5b6140c58a828b01613dbf565b965096505060406140d88a828b01613d80565b94505060606140e98a828b01613d80565b935050608088013567ffffffffffffffff81111561410657600080fd5b6141128a828b01613e48565b925092505092959891949750929550565b6000806000806000806080878903121561413c57600080fd5b600061414a89828a01613d56565b965050602087013567ffffffffffffffff81111561416757600080fd5b61417389828a01613dbf565b9550955050604061418689828a01613d80565b935050606087013567ffffffffffffffff8111156141a357600080fd5b6141af89828a01613e48565b92509250509295509295509295565b60008060008060008060008060006101008a8c0312156141dd57600080fd5b60006141eb8c828d01613d56565b99505060208a013567ffffffffffffffff81111561420857600080fd5b6142148c828d01613dbf565b985098505060406142278c828d01613d80565b96505060606142388c828d01613ebc565b95505060806142498c828d01613ebc565b94505060a061425a8c828d01613d80565b93505060c061426b8c828d01613ebc565b92505060e061427c8c828d01613ebc565b9150509295985092959850929598565b6000806040838503121561429f57600080fd5b60006142ad85828601613d56565b92505060206142be85828601613ebc565b9150509250929050565b6000602082840312156142da57600080fd5b60006142e884828501613d80565b91505092915050565b6000806040838503121561430457600080fd5b600061431285828601613d80565b925050602061432385828601613d56565b9150509250929050565b6000806040838503121561434057600080fd5b600061434e85828601613d80565b925050602061435f85828601613ebc565b9150509250929050565b60006020828403121561437b57600080fd5b600061438984828501613d95565b91505092915050565b6000602082840312156143a457600080fd5b60006143b284828501613daa565b91505092915050565b6000602082840312156143cd57600080fd5b600082013567ffffffffffffffff8111156143e757600080fd5b6143f384828501613e09565b91505092915050565b60006020828403121561440e57600080fd5b600061441c84828501613e33565b91505092915050565b60006020828403121561443757600080fd5b600082015167ffffffffffffffff81111561445157600080fd5b61445d84828501613e92565b91505092915050565b60006020828403121561447857600080fd5b600061448684828501613ed1565b91505092915050565b61449881615533565b82525050565b6144af6144aa82615533565b6156a9565b82525050565b6144be81615545565b82525050565b6144cd81615551565b82525050565b6144e46144df82615551565b6156bb565b82525050565b6144f38161555b565b82525050565b60006145058385615417565b93506145128385846155f4565b61451b8361573f565b840190509392505050565b600061453182615401565b61453b8185615417565b935061454b818560208601615603565b6145548161573f565b840191505092915050565b600061456a82615401565b6145748185615428565b9350614584818560208601615603565b80840191505092915050565b614599816155d0565b82525050565b60006145ab8385615433565b93506145b88385846155f4565b6145c18361573f565b840190509392505050565b60006145d88385615444565b93506145e58385846155f4565b82840190509392505050565b60006145fc8261540c565b6146068185615433565b9350614616818560208601615603565b61461f8161573f565b840191505092915050565b60006146358261540c565b61463f8185615444565b935061464f818560208601615603565b80840191505092915050565b6000614668601883615433565b91507f45434453413a20696e76616c6964207369676e617475726500000000000000006000830152602082019050919050565b60006146a8602083615433565b91507f537472696e67733a20686578206c656e67746820696e73756666696369656e746000830152602082019050919050565b60006146e8601f83615433565b91507f45434453413a20696e76616c6964207369676e6174757265206c656e677468006000830152602082019050919050565b6000614728601583615433565b91507f4d533a204c6f636b6564204e46542065786973747300000000000000000000006000830152602082019050919050565b6000614768601783615433565b91507f4d533a20556e617574686f72697a656420626c617a6f6e0000000000000000006000830152602082019050919050565b60006147a8602283615433565b91507f45434453413a20696e76616c6964207369676e6174757265202773272076616c60008301527f75650000000000000000000000000000000000000000000000000000000000006020830152604082019050919050565b600061480e601583615433565b91507f4d533a20556e617070726f76656420736f7572636500000000000000000000006000830152602082019050919050565b600061484e601283615433565b91507f4d533a204f776e6572206d69736d6174636800000000000000000000000000006000830152602082019050919050565b600061488e602e83615433565b91507f496e697469616c697a61626c653a20636f6e747261637420697320616c72656160008301527f647920696e697469616c697a65640000000000000000000000000000000000006020830152604082019050919050565b60006148f4602283615433565b91507f45434453413a20696e76616c6964207369676e6174757265202776272076616c60008301527f75650000000000000000000000000000000000000000000000000000000000006020830152604082019050919050565b600061495a601783615433565b91507f4d533a20556e617574686f72697a6564206d61737465720000000000000000006000830152602082019050919050565b600061499a601483615433565b91507f4d533a20537570706c79206578686175737465640000000000000000000000006000830152602082019050919050565b60006149da601383615433565b91507f4d533a20536e617073686f7420657869737473000000000000000000000000006000830152602082019050919050565b6000614a1a601783615444565b91507f416363657373436f6e74726f6c3a206163636f756e74200000000000000000006000830152601782019050919050565b6000614a5a601583615433565b91507f4d533a20496e76616c6964207369676e617475726500000000000000000000006000830152602082019050919050565b6000614a9a601183615444565b91507f206973206d697373696e6720726f6c65200000000000000000000000000000006000830152601182019050919050565b6000614ada602f83615433565b91507f416363657373436f6e74726f6c3a2063616e206f6e6c792072656e6f756e636560008301527f20726f6c657320666f722073656c6600000000000000000000000000000000006020830152604082019050919050565b614b3c816155b9565b82525050565b614b53614b4e826155b9565b6156d7565b82525050565b614b62816155c3565b82525050565b6000614b74828561449e565b601482019150614b848284614b42565b6020820191508190509392505050565b6000614ba082876144d3565b602082019150614bb082866144d3565b602082019150614bc18284866145cc565b915081905095945050505050565b6000614bdb82866144d3565b602082019150614bec8284866145cc565b9150819050949350505050565b6000614c0582896144d3565b602082019150614c158288614b42565b602082019150614c258287614b42565b602082019150614c3582866144d3565b602082019150614c458285614b42565b602082019150614c558284614b42565b602082019150819050979650505050505050565b6000614c75828561455f565b9150614c8182846144d3565b6020820191508190509392505050565b6000614c9c82614a0d565b9150614ca8828561462a565b9150614cb382614a8d565b9150614cbf828461462a565b91508190509392505050565b6000602082019050614ce0600083018461448f565b92915050565b6000606082019050614cfb600083018661448f565b614d08602083018561448f565b614d156040830184614b33565b949350505050565b6000608082019050614d32600083018861448f565b614d3f602083018761448f565b614d4c6040830186614b33565b8181036060830152614d5f8184866144f9565b90509695505050505050565b6000604082019050614d80600083018661448f565b8181036020830152614d9381848661459f565b9050949350505050565b6000604082019050614db2600083018561448f565b8181036020830152614dc481846145f1565b90509392505050565b6000604082019050614de2600083018561448f565b614def6020830184614b33565b9392505050565b600060e082019050614e0b600083018a61448f565b614e186020830189614b33565b614e25604083018861448f565b614e3260608301876144b5565b614e3f60808301866144b5565b614e4c60a08301856144b5565b614e5960c08301846144b5565b98975050505050505050565b6000608082019050614e7a600083018761448f565b614e876020830186614b33565b614e94604083018561448f565b614ea16060830184614b33565b95945050505050565b6000602082019050614ebf60008301846144b5565b92915050565b6000602082019050614eda60008301846144c4565b92915050565b6000604082019050614ef560008301856144c4565b614f0260208301846144c4565b9392505050565b6000606082019050614f1e60008301866144c4565b614f2b60208301856144c4565b614f386040830184614b33565b949350505050565b6000606082019050614f5560008301866144c4565b614f6260208301856144c4565b614f6f6040830184614b59565b949350505050565b6000604082019050614f8c60008301856144c4565b8181036020830152614f9e8184614526565b90509392505050565b600060e082019050614fbc600083018a6144c4565b614fc96020830189614b33565b614fd66040830188614b33565b614fe36060830187614b33565b614ff060808301866144c4565b614ffd60a0830185614b33565b61500a60c0830184614b33565b98975050505050505050565b600060808201905061502b60008301876144c4565b6150386020830186614b59565b61504560408301856144c4565b61505260608301846144c4565b95945050505050565b600060208201905061507060008301846144ea565b92915050565b600060208201905061508b6000830184614590565b92915050565b600060208201905081810360008301526150ab81846145f1565b905092915050565b600060208201905081810360008301526150cc8161465b565b9050919050565b600060208201905081810360008301526150ec8161469b565b9050919050565b6000602082019050818103600083015261510c816146db565b9050919050565b6000602082019050818103600083015261512c8161471b565b9050919050565b6000602082019050818103600083015261514c8161475b565b9050919050565b6000602082019050818103600083015261516c8161479b565b9050919050565b6000602082019050818103600083015261518c81614801565b9050919050565b600060208201905081810360008301526151ac81614841565b9050919050565b600060208201905081810360008301526151cc81614881565b9050919050565b600060208201905081810360008301526151ec816148e7565b9050919050565b6000602082019050818103600083015261520c8161494d565b9050919050565b6000602082019050818103600083015261522c8161498d565b9050919050565b6000602082019050818103600083015261524c816149cd565b9050919050565b6000602082019050818103600083015261526c81614a4d565b9050919050565b6000602082019050818103600083015261528c81614acd565b9050919050565b60006020820190506152a86000830184614b33565b92915050565b600060c0820190506152c36000830189614b33565b6152d0602083018861448f565b6152dd60408301876144b5565b6152ea60608301866144b5565b6152f760808301856144b5565b61530460a08301846144b5565b979650505050505050565b600060c0820190506153246000830189614b33565b6153316020830188614b33565b61533e6040830187614b33565b61534b60608301866144c4565b6153586080830185614b33565b61536560a0830184614b33565b979650505050505050565b6000604051905081810181811067ffffffffffffffff8211171561539757615396615710565b5b8060405250919050565b600067ffffffffffffffff8211156153bc576153bb615710565b5b601f19601f8301169050602081019050919050565b600067ffffffffffffffff8211156153ec576153eb615710565b5b601f19601f8301169050602081019050919050565b600081519050919050565b600081519050919050565b600082825260208201905092915050565b600081905092915050565b600082825260208201905092915050565b600081905092915050565b600061545a826155b9565b9150615465836155b9565b9250827fffffffffffffffffffffffffffffffffffffffffffffffffffffffffffffffff0382111561549a576154996156e1565b5b828201905092915050565b60006154b0826155b9565b91506154bb836155b9565b9250817fffffffffffffffffffffffffffffffffffffffffffffffffffffffffffffffff04831182151516156154f4576154f36156e1565b5b828202905092915050565b600061550a826155b9565b9150615515836155b9565b925082821015615528576155276156e1565b5b828203905092915050565b600061553e82615599565b9050919050565b60008115159050919050565b6000819050919050565b60007fffffffff0000000000000000000000000000000000000000000000000000000082169050919050565b600061559282615533565b9050919050565b600073ffffffffffffffffffffffffffffffffffffffff82169050919050565b6000819050919050565b600060ff82169050919050565b60006155db826155e2565b9050919050565b60006155ed82615599565b9050919050565b82818337600083830152505050565b60005b83811015615621578082015181840152602081019050615606565b83811115615630576000848401525b50505050565b6000615641826155b9565b91506000821415615655576156546156e1565b5b600182039050919050565b600061566b826155b9565b91507fffffffffffffffffffffffffffffffffffffffffffffffffffffffffffffffff82141561569e5761569d6156e1565b5b600182019050919050565b60006156b4826156c5565b9050919050565b6000819050919050565b60006156d082615750565b9050919050565b6000819050919050565b7f4e487b7100000000000000000000000000000000000000000000000000000000600052601160045260246000fd5b7f4e487b7100000000000000000000000000000000000000000000000000000000600052604160045260246000fd5b6000601f19601f8301169050919050565b60008160601b9050919050565b61576681615533565b811461577157600080fd5b50565b61577d81615551565b811461578857600080fd5b50565b6157948161555b565b811461579f57600080fd5b50565b6157ab81615587565b81146157b657600080fd5b50565b6157c2816155b9565b81146157cd57600080fd5b5056fea2646970667358221220e254a92b9db66e5b0ef2f3f7477c04ace30866185806abe63eccb5e4270217f364736f6c63430008000033",
  "linkReferences": {},
  "deployedLinkReferences": {}
}